:020000040800F2
:100000000000022059020008A5020008A50200080D
:10001000A5020008A5020008A502000800000000D3
:1000200000000000000000000000000005030008C0
:10003000A50200080000000091030008E903000881
:10004000A5020008A5020008A5020008A5020008F4
:10005000A5020008A5020008A5020008A5020008E4
:10006000A5020008A5020008A5020008A5020008D4
:10007000A5020008A5020008A5020008A5020008C4
:10008000A5020008A5020008A5020008A5020008B4
:10009000A5020008A5020008A5020008A5020008A4
:1000A000A5020008A5020008A5020008A502000894
:1000B000A5020008A5020008A5020008A502000884
:1000C000A5020008A5020008A5020008A502000874
:1000D000A5020008A5020008A5020008A502000864
:1000E000A5020008A5020008A5020008A502000854
:1000F000A5020008A5020008A5020008A502000844
:10010000A5020008A5020008A5020008A502000833
:10011000A5020008A5020008A5020008A502000823
:10012000A5020008A5020008A5020008A502000813
:10013000A5020008A5020008A5020008A502000803
:10014000A5020008A5020008A5020008A5020008F3
:10015000A5020008A5020008A5020008A5020008E3
:10016000A5020008A5020008A5020008A5020008D3
:10017000A5020008A5020008A50200080000000072
:10018000A5020008A502000810B5054C237833B974
:10019000044B13B10448AFF300800123237010BD5A
:1001A000DC02002000000000F49C0008084B10B5A1
:1001B0001BB108480849AFF300800848036803B939
:1001C00010BD074B002BFBD0BDE81040184700BF07
:1001D00000000000F49C0008E0020020D80200208B
:1001E00000000000154B002B08BF134B9D46A3F5E4
:1001F000803A00218B460F461348144A121A03F026
:1002000022FE0F4B002B00D098470E4B002B00D046
:1002100098470020002104000D000D48002802D05E
:100220000C4803F0DAF903F055FD2000290003F033
:1002300077F903F0EDF900BF00000800000002208C
:1002400000000000511A0008DC020020F414002015
:10025000DB3500082D3A0008DFF830D0002103E03C
:100260000B4B5B58435004310A480B4B42189A42DF
:10027000F6D30A4A02E0002342F8043B084B9A42B4
:10028000F9D300F0FBFFFFF7ADFF7047000002203D
:10029000289D000888010020DC020020DC020020EC
:1002A000F4140020FEE7000080F309887047EFF3A4
:1002B00009807047684680F3098851480078C00774
:1002C00014BF0220032080F314887047DFF834C184
:1002D000EFF305831B0618BF6047EFF31483DB07BA
:1002E00008BF604700DF7047DFF81CC1EFF30583EC
:1002F0001B0618BF6047EFF31483DB0708BF604796
:1003000000DF7047EFF30980816911F8021C79BBA7
:1003100090E80F1010B5E047BDE81040EFF3098CEE
:100320008CE80700394B93E80600914208BF7047FC
:1003300071B11EF0100F0CBF0120002081F82000C9
:100340002CE9F00FC1F828C00CB402F0CDF80CBCB9
:100350001A60D2F828C0BCE8F00F92F820000028FC
:1003600014BF6FF0120E6FF0020E8CF30988704705
:1003700010B5274A1268914209D8264C54F82140FA
:1003800090E80F10A047EFF3098C8CE80F0010BD28
:1003900010B502F039F8BDE810401C4B93E8060098
:1003A000914208BF7047EFF3098C1EF0100F0CBF8D
:1003B0000120002081F820002CE9F00FC1F828C0AE
:1003C0000CB402F091F80CBC1A60D2F828C0BCE85A
:1003D000F00F92F82000002814BF6FF0120E6FF09B
:1003E000020E8CF30988704710B502F05FF8FFF732
:1003F000D2BF10B502F058F802F058F8FFF7CBBFA3
:100400008A970008052300081F2300083C0F0020DE
:1004100000000000FCFFFFFF7047000008B5094B1B
:100420001A6842F400721A601A6842F480621A6014
:10043000032000F017F80F2000F0ECFDFFF7ECFFB1
:10044000002008BD003C0240024A136801331360DB
:10045000704700BFF8020020014B1868704700BFCA
:10046000F8020020074AD36823F4E0631B041B0C46
:1004700043F0BF6343F4003300F0070043EA002376
:10048000D360704700ED00E02DE9F3410F680022D2
:100490000123934003EA07059D4240F0CB804C685E
:1004A00024F0100CBCF1020F14D14FEAD20E00EB75
:1004B0008E0E02F00706DEF82030B6004FF00F086F
:1004C00008FA06F823EA08080B69B34048EA030370
:1004D000CEF820304FEA420E0323066803FA0EF3EB
:1004E000DB4303EA060804F0030606FA0EF60CF1F5
:1004F000FF3C48EA0606BCF1010F066011D8866889
:1005000003EA060CCE6806FA0EF64CEA060686608A
:10051000466826EA050CC4F3001696404CEA060627
:100520004660C66803EA060C8B6803FA0EF64CEACE
:100530000603C360E3007DD5424B5E6C46F4804603
:100540005E645B6C22F0030606F1804603F4804390
:1005500006F59C36019302F0030C019BD6F808E0E7
:100560004FEA8C0C0F2303FA0CF32EEA030E364BE2
:10057000984222D003F58063984220D003F580632F
:1005800098421ED003F5806398421CD003F5806327
:1005900098421AD003F58063984218D003F580631F
:1005A000984216D003F58063984214D003F5806317
:1005B00098420CBF082309230EE000230CE001231E
:1005C0000AE0022308E0032306E0042304E00523F5
:1005D00002E0062300E0072303FA0CF343EA0E03CC
:1005E000DFF868E0B360DEF80030EE4314F4803FDB
:1005F00014BF2B433340CEF80030DEF80430DFF870
:100600004CE014F4003F14BF2B433340CEF80430C9
:10061000DEF8083014F4801F14BF2B433340CEF8AB
:100620000830DEF80C30A40254BF06EA03051D436F
:10063000064BDD600132102A7FF42AAF02B0BDE81C
:10064000F08100BF0038024000000240003C014041
:100650000368F7B5DD07044603D4236898074CD434
:100660009DE08C4B9A6802F00C02042A07D09A682D
:1006700002F00C02082A0BD15B68590208D5854BA1
:100680001B689A03E9D56368002BE6D1012069E174
:10069000814D00232B70FFF7DFFE06467D4B1B6864
:1006A0009B0308D5FFF7D8FE41F28833801B9842A0
:1006B000F4D9032056E123792B70636873B1FFF7F7
:1006C000CBFE0546734B1B689F03C6D4FFF7C4FEE1
:1006D00041F28833401B9842F4D9EAE7FFF7BCFEA9
:1006E00005466C4B1B689E03B7D5FFF7B5FE41F27C
:1006F0008833401B9842F4D9DBE7664B9A6812F0C6
:100700000C0F07D09A6802F00C02082A18D15B6817
:10071000580215D45F4A1368990702D5E368012B84
:10072000B4D11168F82393FAA3F3B3FA83F32069E1
:10073000DBB2984021F0F80140EA010313602EE09B
:10074000E268564BEAB101221A60FFF785FE0546C2
:1007500050490B689B0705D4FFF77EFE401B6428B9
:10076000F6D9A6E70A68F82393FAA3F3B3FA83F35A
:100770002069DBB2984022F0F80240EA02030B60E5
:100780000DE01A60FFF768FE0546424B1B689F07A5
:1007900005D5FFF761FE401B6428F6D989E7236879
:1007A0001E0703D423685D074BD51FE062693C4BED
:1007B00072B101221A60FFF74FFE0546354B5B6FA1
:1007C0009807EFD4FFF748FE401B6428F6D970E77E
:1007D0001A60FFF741FE05462E4B5B6F9907E1D586
:1007E000FFF73AFE401B6428F6D962E7294B1A6CE2
:1007F00042F080521A641B6C2A4A03F08053019322
:10080000019B136843F480731360FFF725FE0546D0
:10081000244B1B68DA0517D5234D00232B70FFF7F7
:100820001BFE06461B4B1B6F9B0713D4237A2B70B2
:10083000A368FBB1FFF710FE0546164B1B6F9F0721
:1008400010D5A26992BB72E0FFF706FE401B642838
:10085000DED92EE7FFF700FE41F28833801B984275
:10086000E0D926E7FFF7F8FD41F28833401B9842B4
:10087000E3D91EE7FFF7F0FD0546064B1B6F9E0709
:10088000DFD5FFF7E9FD41F28833401B9842F4D9E8
:100890000FE700BF00380240023802400000474224
:1008A000800E474200700040703802402E4B9B681B
:1008B00003F00C03082B3FF4E9AE2C4D0023022A71
:1008C0002B6042D1FFF7C8FD064627490B68980107
:1008D0002FD447F6C07292FAA2F2B2FA82F24FF423
:1008E000403696FAA6F6B6FA86F64FF0706090FAA1
:1008F000A0F0B0FA80F0E369276A1F43636AD2B2BE
:10090000934047EA0302A36A5B08013BF6B2B34097
:100910001343E26AC0B2824013434B6001232B6051
:10092000FFF79AFD0446104B1B689A0107D500207B
:1009300018E0FFF791FD801B6428C6D9B9E6FFF7E0
:100940008BFD001B6428EED9B3E6FFF785FD044656
:10095000054B1B689B01EAD5FFF77EFD001B642851
:10096000F6D9A6E603B0F0BD003802406000474269
:100970007F4B1A6802F00F02914270B504460D4693
:1009800077D9CAB21A701B6803F00F038B4201D0EB
:10099000012070BD01688B0741BF7648836823F052
:1009A000F002A36844BF13438360CE070BD42168D1
:1009B0004D0740F1CC806F48836823F4E052E36830
:1009C00013438360C3E063686A4A012B03D1126852
:1009D00012F4003F08E0991E0129126802D812F0B3
:1009E000007F01E012F0020FD2D062498A6822F043
:1009F000030213438B60FFF72FFD6368012B05464D
:100A00000ED15C4B9B6803F00C03042BCFD0FFF797
:100A100023FD41F28833401B9842F2D9032070BD78
:100A2000022B0DD1534B9B6803F00C03082BBED057
:100A3000FFF712FD41F28833401B9842F2D9EDE7EF
:100A4000032B10D14B4B9B68FFF706FD41F2883317
:100A5000401B9842F6D9E1E7FFF7FEFC41F28833EC
:100A6000401B9842DAD8434B9B6813F00C0FF3D12C
:100A70009DE70168880741BF3E48836823F0F00284
:100A8000A36844BF13438360CA0709D4384BEAB252
:100A90001A701B6803F00F03AB427FF479AF86E74F
:100AA0006368344A012B03D1126812F4003F08E056
:100AB000991E0129126802D812F0007F01E012F09D
:100AC000020F3FF465AF2B498A6822F003021343FB
:100AD0008B60FFF7C1FC6368012B06460DD1254BE7
:100AE0009B6803F00C03042BD0D0FFF7B5FC41F258
:100AF0008833801B9842F2D990E7022B0DD11D4B11
:100B00009B6803F00C03082BC0D0FFF7A5FC41F253
:100B10008833801B9842F2D980E7032B11D1154B03
:100B20009B68FFF799FC41F28833801B9842F6D905
:100B300074E7FFF791FC41F28833801B98423FF63F
:100B40006DAF0C4B9B6813F00C0FF2D19EE70B07B7
:100B500041BF084A2169936823F4604344BF43EAD4
:100B6000C10393600F2000F055FA002070BD00BF54
:100B7000003C02400038024030B51D4CA36803F031
:100B80000C03042B30D0082B30D16268636802F06C
:100B90003F0513F4800F47F6C071636891FAA1F125
:100BA000B1FA81F147F6C07004BF124AB2FBF5F208
:100BB000C9B200EA030020FA01F01CBF0E49B1FBE4
:100BC000F5F202FB00F30A4A50684FF4403292FA01
:100BD000A2F2B2FA82F2D2B200F44030D040013038
:100BE0004000B3FBF0F030BD034830BD014830BDDC
:100BF000003802400024F40000127A0008B5FFF724
:100C0000BBFF094B9A68F02393FAA3F3B3FA83F37B
:100C100002F0F002DBB222FA03F3044AD35CD840BC
:100C2000034B186008BD00BF00380240EC95000877
:100C30008C01002008B5FFF7E1FF084B9A684FF4DC
:100C4000E05393FAA3F3B3FA83F302F4E052DBB276
:100C500022FA03F3024AD35CD84008BD00380240B0
:100C6000EC95000808B5FFF7C9FF084B9A684FF4E8
:100C7000604393FAA3F3B3FA83F302F46042DBB266
:100C800022FA03F3024AD35CD84008BD0038024080
:100C9000EC950008704700002E4A0368904212D07D
:100CA000B0F1804F0FD0A2F57C4290420BD002F5FC
:100CB0008062904207D002F58062904203D002F534
:100CC0007842904218D14A6823F070031343214AB6
:100CD000904237D0B0F1804F34D01F4A904231D08B
:100CE00002F5806290422DD002F58062904229D0B8
:100CF00002F57842904225D0184A904222D002F55F
:100D0000806290421ED002F5806290421AD0A2F515
:100D10009832904216D002F58062904212D002F5CD
:100D2000806290420ED003608B68C3620B6883625E
:100D3000084B98420BD003F58063984207D00123FB
:100D400043617047CA6823F440731343EBE70B69B0
:100D50000363F4E70000014000040040004001404C
:100D600010B50446A0B190F8393003F0FF021BB96A
:100D700080F83820FFF78EFF022384F8393020688E
:100D8000211DFFF789FF012384F83930002010BDB1
:100D9000012010BD10B50123046A8B4024EA03032F
:100DA0000362036A8A401343036210BD10B5044610
:100DB00001220068FFF7EEFF2368084A934203D040
:100DC00002F58062934203D15A6C42F400425A64A5
:100DD0001A6842F001021A60002010BD00000140B4
:100DE0002DE9F84306683369054623F44052C36889
:100DF0002969C0691343AA683361F36811436A69BA
:100E000023F416430A43024323F00C031343F36015
:100E1000736923F44072AB69B0F5004F43EA0203F3
:100E200073613F4B36D19E4203D003F580639E42EF
:100E300016D1FFF717FF6F68192460437F00B0FBDE
:100E4000F7F7FFF70FFF6A684FF064086043B7FBDE
:100E5000F8F752003F01B0FBF2F9FFF703FF15E08E
:100E6000FFF7E8FE6F68192460437F00B0FBF7F7D7
:100E7000FFF7E0FE6A684FF064086043B7FBF8F7DD
:100E800052003F01B0FBF2F9FFF7D4FE444368681B
:100E9000400034E09E4202D0224B9E4216D1FFF722
:100EA000E1FE6F6819246043BF00B0FBF7F7FFF75E
:100EB000D9FE6A684FF064086043B7FBF8F7920008
:100EC0003F01B0FBF2F9FFF7CDFE15E0FFF7B2FEF0
:100ED0006F6819246043BF00B0FBF7F7FFF7AAFE65
:100EE0006A684FF064086043B7FBF8F792003F016F
:100EF000B0FBF2F9FFF79EFE444368688000B4FB44
:100F0000F0F0B0FBF8F008FB109212013232B2FBA5
:100F1000F8F303F00F033B43B360BDE8F88300BF71
:100F20000010014000140140704710B5044630B372
:100F300090F8393003F0FF021BB980F83820FFF732
:100F4000F3FF2268022384F83930D36823F4005376
:100F5000D3602046FFF744FF23681A6922F49042C9
:100F60001A615A6922F02A025A61DA6842F4005280
:100F7000DA6000200123E06384F8393010BD0120DD
:100F800010BD000010B50C4CA268A468B4F1006F4D
:100F900013460CD1131F094A53F8044F42F8044F6B
:100FA000074CA242F8D1044A4FF00053936010302E
:100FB00043F8201010BD00BF00ED00E0FCFFFF1F54
:100FC0008401002038B5114B1A68D16811F0020F66
:100FD0001C4604D06FF00203136100F0D3FC2368B9
:100FE000DA68520711D56FF00402094D1A615C6A84
:100FF0002B68E31AB3F57A7F07D3FFF725FA034B83
:101000002C601B6804F57A729A6338BD00030020D7
:10101000FC020020264B37B51A6C264C254842F0BE
:1010200008021A641A6C02F008020192019A1A6A04
:1010300042F008021A621A6A22F008021A62A3F544
:101040000B3323604FF0FF33E3601B4B1B4A1B68DD
:1010500093420EBF0F231A4AB3FBF2F34FF0000581
:1010600018BF03F1FF3363602561A5606561FFF779
:1010700077FE32201349FFF785FF134B0D484FF4DD
:1010800080225A602946FFF791FE04210948FFF7A4
:101090008DFE23680D495A6A0A6002F57A729A63D6
:1010A000DA68284642F00402DA6003B030BD00BFBF
:1010B00000380240000300208C0100200024F400CE
:1010C00080841E00C50F000800E100E0FC02002043
:1010D000174A1849936803F00C03042B03D0082B1C
:1010E00003D0154B18E0154B16E05068536810F408
:1010F000800F03F03F03506814BF104A0E4AB2FB42
:10110000F3F30B4A5268C2F30142C0F38810013274
:1011100043435200B3FBF2F30B60054B084A9B6854
:10112000C3F30313D25C0B68D3400B60704700BF5E
:10113000003802408C0100200024F40000127A00E4
:10114000FC950008214B30B51A6C42F080521A64AD
:101150001B6C95B003F080530193019B1C4B1A68E4
:1011600022F480421A601B6803F480430293029BBE
:101170000123089300B1052309934FF480030F93D3
:10118000082310934FF4A87302250024119308A894
:1011900007230B940E9512951393FFF759FA88B90C
:1011A0000F2303934FF4A0530590069303A84FF425
:1011B0008053052104950793FFF7DAFBB0FA80F01E
:1011C000400900E0204615B030BD00BF00380240A5
:1011D00000700040204B30B51A6C42F080521A6407
:1011E0001B6C95B003F080530193019B1B4B1A6855
:1011F00022F480421A601B6803F480430293029B2E
:101200000323089301230B9310230C9310934FF4A3
:10121000A87300240225119308A8072309940E95AA
:101220000F9412951393FFF713FA88B90F230393C2
:101230004FF4A0530590069303A84FF48053052163
:1012400004950793FFF794FBB0FA80F0400900E0A3
:10125000204615B030BD00BF00380240007000408D
:1012600008B50120FFF76EFF30B9FFF76BFF18B923
:10127000FFF7B0FF00B9FEE708BD0000184AD2F83A
:10128000883010B543F47003164CC2F888302368D8
:10129000002143F001032360A160236823F08473DD
:1012A00023F480332360104B6360236823F480238E
:1012B00023604FF00063E16093600C4B0C4A1A60AE
:1012C000FFF7ACF8FFF7CCFFFFF702FF236A43F00C
:1012D00008032362236A23F00803236210BD00BFC2
:1012E00000ED00E000380240103000248C010020A6
:1012F0000024F40010B50021044604F00F0400F0AF
:10130000BFF80120A04010BD70B504464B1C0E462E
:1013100021800DD0C1F3031000F01EF805463046C1
:10132000FFF7E8FF05F1100318356060A360E56082
:1013300070BDB0F9000000F0C5B80129B0F9000097
:1013400018BF002100F09CB808B5FFF7C1FEBDE84A
:101350000840FFF763B8000000B58BB0082872D8CA
:10136000DFE800F005111D2935414D596500394B65
:1013700039481A6B42F001021A631B6B03F0010338
:101380000193019B63E0334B34481A6B42F0020235
:101390001A631B6B03F002030293029B57E02D4B71
:1013A0002F481A6B42F004021A631B6B03F004030C
:1013B0000393039B4BE0274B2A481A6B42F0080229
:1013C0001A631B6B03F008030493049B3FE0214B5B
:1013D00025481A6B42F010021A631B6B03F01003CE
:1013E0000593059B33E01B4B20481A6B42F020020B
:1013F0001A631B6B03F020030693069B27E0154B33
:101400001B481A6B42F040021A631B6B03F0400347
:101410000793079B1BE00F4B16481A6B42F08002A4
:101420001A631B6B03F080030893089B0FE0094BC2
:1014300011481A6B42F480721A631B6B03F48073B9
:101440000993099B03E00D4800F0BAF900200BB0A6
:101450005DF804FB00380240000002400004024036
:1014600000080240000C024000100240001402403C
:1014700000180240001C0240002002400C960008A8
:1014800030B5054687B0C0F303100C4605F00F05D4
:10149000FFF762FF0123AB4004F00F020193084BFA
:1014A00053F822300293C4F302130393C4F3C3141A
:1014B000032301A904930594FEF7E6FF07B030BDAE
:1014C0003096000838B500F00F05C0F303100C4645
:1014D000FFF742FF6B00C16803229A4021EA020233
:1014E000032CC260C16828BF00249C400C43C46028
:1014F00038BD000008B5124B02681A6082685A6055
:10150000C2689A600269DA6042691A6100229A61CF
:10151000B0F91A20013201D1082205E0B0F91820F3
:1015200001320CBF04220C2205485A61FFF7FDFC72
:1015300020B10448BDE8084000F042B908BD00BF32
:101540006403002064960008F0B5044687B008469E
:101550000E465149154600F09BF95049074628466A
:1015600000F096F90146384600F074F94C4B2060C3
:10157000984243D013D8A3F50063984232D003F5C4
:101580008063984252D1474B1A6C42F480221A640D
:101590001B6C03F480230293029B022345E0424B21
:1015A000984213D003F58063984233D0A3F54443A7
:1015B00098423BD13B4B1A6C42F480121A641B6C6C
:1015C00003F480130493049B04232EE0354B5A6CE0
:1015D00042F010025A645B6C03F010030093009B0E
:1015E000002322E02F4B1A6C42F400321A641B6C69
:1015F00003F400330193019B012316E0294B1A6C7D
:1016000042F400221A641B6C03F400230393039B2F
:1016100003230AE0234B5A6C42F020025A645B6CAD
:1016200003F020030593059B0523636030461A49A8
:1016300000F0F2F82846194900F0EEF8721C03D0C9
:1016400030460121FFF73EFF6B1C03D028460121E5
:10165000FFF738FF4FF41653A3600023E3602361C4
:101660006361268365832046FFF744FF22680F4BA2
:101670009A420FD10E4B01221A600E4B04F118054D
:10168000206861681A4603C20834AC421346F7D199
:101690002068106007B0F0BDC49600087C96000872
:1016A000004C00400038024000100140001401408E
:1016B0003C030020A40300208160FFF71BBF000053
:1016C000034B19604168034B43F82120704700BF6A
:1016D00060030020400300200368034A1868136079
:1016E000C0F34010704700BF6403002038B50568A0
:1016F00004462046FFF7F0FF0028FAD06868C0F3E0
:10170000080038BD0368034A18681360C0F3C010AE
:10171000704700BF6403002070B5066805460C469C
:101720002846FFF7EFFF0028FAD0C4F308047460DE
:1017300070BD0000054B186830B901221A60044BD7
:10174000044A1A60FFF766BC704700BFFC03002024
:10175000C0030020000C004008B5044B1B680BB907
:10176000FFF7E8FF024B586A08BD00BFFC030020EA
:10177000000C0040034B1B685863DA6842F0020219
:10178000DA607047C0030020034B1A68D36823F067
:101790000203D360704700BFC0030020024B1B68E8
:1017A0006FF002021A617047C003002008B572B6DC
:1017B000962000F0F8F8962000F0F5F8F8E7000021
:1017C0000FB407B5054B04AA1B6852F8041BD86870
:1017D000019202F00BFD012001F01AFF84020020AB
:1017E00070B50E4604461546FFF78EFD01360ED045
:1017F000E168636805B91B0420460B600121FFF70F
:101800009CFD20460021BDE87040FFF792BD70BDF1
:101810000022FFF7E5BF000010B50446013001D1FA
:1018200010BD0C31B1F900305A1C0BD0A342F8D1D5
:1018300020468968FFF724FE20460021BDE81040BD
:10184000FFF740BE0248BDE81040FFF7B9BF00BF38
:101850000C970008884208B50AD0431C07D0013114
:1018600006D00448FFF7ACFF4FF0FF3008BD084634
:1018700008BD00BF1D970008B1F900305A1C05D003
:10188000834201D1486870470C31F5E7184670472C
:10189000421C10B5044607D0FFF7EEFF431C044678
:1018A00002D10248FFF78CFF204610BD2E9700089A
:1018B00038B5036804461B680D46984763681D6089
:1018C00038BD036870B5DB680446984763685A689A
:1018D00023681AB99B68BDE8704018475B681568B3
:1018E0009847281A0028636808DC5A68916859608C
:1018F0001B68002BEAD050689847E7E721685A68D0
:101900000B691068BDE87040184770B50D4672B697
:101910004668746881E80C00002334B12168511ACC
:10192000002902DB2346A468F7E72BB9036875603A
:101930001B691046984700E09D60AC6062B670BDC0
:1019400008B572B6426853688B420BD19B685360EE
:10195000026813B9936898470AE0126918689047BB
:1019600006E0134623B19A688A42FAD18A689A60DF
:1019700062B608BD03685B681847000000487047FE
:10198000809700080148FFF79CBF00BF80970008C0
:1019900038B50446FFF7E0FE0546FFF7DDFE401BC5
:1019A000A042FAD338BD4FF47A735843FFF7F0BF23
:1019B000436AF0B5C46A23F0030323445A0748BFBF
:1019C000043B4FF0807203E90600A3F14005A3F148
:1019D0004402A3F10C06002742F8047FB242FAD178
:1019E000C26943F8202CC3788562012B18BF024BD3
:1019F000016318BF2360F0BDA52E5AE290F82020A5
:101A0000836A0AB1603300E020331960704710B573
:101A100090F82040836A0CB1603300E0203383E803
:101A2000060010BDFEE7FFF7C1BE08B1FFF7BEBE5E
:101A3000704700000449054AC1F1005303F5FE3325
:101A40009360D160704700BFF41400209001002023
:101A50000020002104460D46094801F0BEFD02F0B9
:101A600039F92046294600F073F8FFF7E3FF0548EF
:101A7000002100F009F900F07FF801F0C9FD000035
:101A80002D3A00089001002038B1830704D1037873
:101A9000002B18BF002070470020704700B5DFF80A
:101AA0000CC000DFDFF808C000DFFEE7551C0008AF
:101AB0006D1C00080B4A136830B5002433B11D8932
:101AC000A94203D31C46491B1B68F7E789B2036090
:101AD000018113B11D89691A19810CB1206030BDD3
:101AE000106030BDF40E0020431C11D00B4B984207
:101AF00011D80B4B1B684FF47A715A1E01FB002062
:101B0000B0FBF3F04FF6FE73984228BF18467047BB
:101B10004FF6FF7070474FF6FE70704700093D00AA
:101B20008C97000838B5084C257855B900F0E6FDCB
:101B3000064B1B68FF229A702846FFF776FF0123A9
:101B40002370002038BD00BFF00E00203C0F0020A5
:101B500010B5EFF305845CB9EFF31484E40703D404
:101B6000BDE81040FFF7DEBFDFF808C000DF10BDA2
:101B7000822010BD251B000810B588B0EFF3058446
:101B800034BBEFF3148404F00304022C0CD0032CB8
:101B900016D0012C1ED008AC84F309880F4C247891
:101BA000E40705D5022404E00C4C2478E4070BD4A8
:101BB000032484F31488BFF34F8FBFF36F8F03E0C8
:101BC000064C2478E40705D4DFF814C000DF02E0F7
:101BD000822000E0FF2008B010BD00BF8A970008F7
:101BE0007D1D00082DE9F8438946044650B103687D
:101BF00043B18588EB1C9BB2062B03D883680BB1DD
:101C0000C2682AB98020FFF710FF0020BDE8F883E2
:101C10004363C26300F1100600F08AFC0B4F00F131
:101C2000FF38291D47F82860C9B22268E074C4F85B
:101C30002C90304600F08EFC304600F0A9FC57F89E
:101C40002800034A836A5A63BDE8F8838C0C00209D
:101C50009D1A000808B500F0D7FC18B10138024BF6
:101C600053F8200008BD00BF8C0C002008B5FFF71A
:101C70000BFF38B1C07800F009FDFF280CBF8120B0
:101C8000002008BD802008BD70B505460C46EFF366
:101C9000058686B9EFF31486F60706D4074E367824
:101CA0001EB9BDE87040FFF79DBF28462146DFF80A
:101CB00010C000DF70BD002070BD00BFF80E002016
:101CC000E51B0008830704D128B10369C1681B68BC
:101CD00003E0002300E00346194618467047000061
:101CE000F8B5134B1C681F460CB32389013B2381B5
:101CF0002389E3B90F4B26681D683E6055B12B78E8
:101D0000012B07D1284600F05DFA18B1284621467C
:101D100000F05CFA6379012B04D120466189FFF75A
:101D2000C9FE01E0012323710EB13446E0E7F8BD9E
:101D3000F40E0020EC0E002010B504460846DFF833
:101D40000CC000DF84E80300204610BDC51C00085D
:101D500010B5044618B1016809B1406820B9802067
:101D6000FFF763FE002010BD0378002BF7D104318C
:101D7000890089B200F0C6F9606810BD38B5104D11
:101D80002C78D4B921460F48FFF7E2FF0E4B2146CD
:101D900018600E48FFF726FF0D4B214618602046BD
:101DA00000F03AFC0B4A13689B6A203383F30988DE
:101DB000146000F011FD01232B70002038BD00BF1E
:101DC000F80E0020D4010020EC0E0020DC010020E1
:101DD000E80E00203C0F00202DE9F04F0C4685B0A6
:101DE0008046E8B10378012B1FD10846FFF77CFE3F
:101DF00002A982B2404600F093F9012806D10020E2
:101E0000002C0246034618BF402003E00020024693
:101E100003461020029904460D4616461F4608E068
:101E2000802405460646074603E0002580242E460A
:101E30002F462046294632463B4605B0BDE8F08F86
:101E40007FB5044616460846EFF30581A9B101ADFA
:101E500000B10AB180230AE00378012BFAD102A96C
:101E600000F0BBF9042801D0019601E01023019392
:101E700095E8070084E8070005E01146DFF80CC08C
:101E800000DF84E80700204604B070BDD91D0008BB
:101E90007FB50A4B03A819684FF0FF32FFF7D0FF58
:101EA000039B102BF5D101A80499FFF745FF019B77
:101EB000002BEED002989847EBE700BFEC0E002015
:101EC00010B5038B42781943062A04460183438BDD
:101ED00004D101EA03029A4219D105E0052A16D17C
:101EE00011EA030213D0428321EA03012183204631
:101EF00000F0D4F80123204663700821628BFFF7BD
:101F000086FD21460248BDE8104000F003B810BD30
:101F1000140F002030B502788C784368013AD2B2B1
:101F20002BB19D78A54202D318465B68F8E7022AD8
:101F30004B60416003D803B19960886030BD0023D5
:101F40008B6030BD02784368013A59684160022ACB
:101F50004FF0000204D809B188605A609A6000E02E
:101F60005A60184670470000034B5A6842600022CE
:101F700082605860704700BF140F0020114BDA6870
:101F800010B50AB19A8A0CE000248A1AC460D8609D
:101F900003619A82848210BD002CF5D0A38A1A4472
:101FA00023468A42DC68F7D3C460D860C468036102
:101FB00004B12061521A92B28282998A8A1A9A8254
:101FC00010BD00BFFC0E002038B5194DEB68002B8A
:101FD0002CD0AB8A013BAB82AA8A002A26D1144BB3
:101FE000DC681CB3A3683BB161685960616809B1E2
:101FF0008B6062600023A3600E482146FFF78AFFD2
:10200000A38AAB826378042B01BF0B4B1A68E38A67
:102010009B1808BFA38201236370E368EB60002272
:1020200013B103491961E2602261D5E738BD00BFF1
:10203000FC0E0020140F0020780F0020836853B995
:10204000084B5A68824202D142685A607047134670
:10205000002AF6D1704742685A60426802B1936024
:10206000704700BF140F002038B58468054624B9B6
:102070004378012B0ED1084C03E023780BB9A468F8
:10208000FBE72846FFF7DAFF20462946BDE838403F
:10209000FFF740BF38BD00BF140F0020036910B523
:1020A00073B1C268DA60C2683AB1998A848A2144FD
:1020B000998213610023C36000E09A8200230361C8
:1020C00010BD000030B50E4BDD78EFF3108272B614
:1020D0009A78AA4207D201329A701A78541CAC42FC
:1020E00008BF00241C7062B6AA4204D203EBC203EC
:1020F0005860996030BD0220BDE83040FFF793BCC6
:10210000080C002001231039037089080023437054
:1021100083704360038143818381C18170470000E4
:1021200070B5858904461646002D34D043891A1DA2
:10213000013350F822200A60C2899BB29A4243813F
:1021400004BF002343814368EBB14378022B1AD1CB
:10215000FFF7F8FE00210546FFF750FC2389E969E7
:102160001A1D013344F82210E2899BB29A4223815E
:1021700008BF0023284608BF2381FFF78FFF2846AA
:1021800000F006FA05E0EFF3108372B6013DA58179
:1021900062B6002070BD82B14268094B1AB119685D
:1021A000FFF7B8FE05E01B6843605A6098600123A2
:1021B00043703046082100F00DFA012070BD00BFC9
:1021C0003C0F0020C2898089101A704708B5FFF7BC
:1021D00079FFBDE8084000F005B9838910B50446D1
:1021E000EBB14389043350F823300B604378022B62
:1021F00004D10021FFF766FF00F0F4F8EFF310833D
:1022000072B6A389013BA38162B66389E289013377
:102210009BB29A42638104D10023638101E0184696
:1022200010BD042010BD0000426870B504460E4683
:10223000002A4AD04578022D1CD0032D0AD0012D4A
:102240005DD1FFF77FFE044610213246FFF7DFFB2A
:10225000657034E0084600F055F8054600284ED079
:102260002046FFF76FFE29460446FFF7C7FB012310
:10227000637024E0FFF766FE00210546FFF7BEFB12
:102280002389E9691A1D44F82210EFF3108272B60F
:10229000A2890132A28162B6E28901339BB29A42DD
:1022A000238104BF00232381012328466B70FFF79D
:1022B000F5FE13482946BDE87040FFF72BBE2046C7
:1022C000FFF7ECFE0E482146F5E78189C08981427F
:1022D00010D223891D1D44F82560EFF3108572B6D6
:1022E0000131A18162B601339BB2834214BF2381C5
:1022F000228170BD0320BDE87040FFF794BB70BD24
:10230000140F0020EFF3108372B6026803F001038C
:102310000AB11168016003B962B610467047814284
:102320000DD3436899420AD2EFF3108372B6026864
:102330000A60016013F0010003D162B6704701200A
:102340007047002070470000034B00221A60034AC8
:102350001268DA80704700BF2C0F002098970008A1
:1023600008B5104B10485A68104B196891421FBFAE
:102370001A60DA8802F1FF3102681CBF52189A8095
:102380009A8803889A420BD1084B064800221A60AB
:10239000FFF7D8FDBDE8084001460248FFF7BABD87
:1023A00008BD00BF140F0020780F00202C0F002064
:1023B000426810B57AB1FFF7C5FD0446FFF76EFE1F
:1023C000012161702046FFF719FB21460448BDE852
:1023D0001040FFF79FBD42880132428010BD00BF10
:1023E000140F0020054B1B7823B9054B4FF080528A
:1023F0001A607047034B01221A707047390F002092
:1024000004ED00E0380F002038B5184B184D18685F
:1024100001234370FFF7A8FD6C78AA78144BEAB14A
:1024200003EBC403586802781AB91989FFF748FD0D
:1024300007E0012A03D19968FFF7F6FE01E0FFF7F4
:10244000B7FFEB7801349C4208BF0024EFF3108300
:1024500072B6AB78013BAB7062B6DEE75C700548E4
:10246000FFF770FDBDE8384000F08AB83C0F00204F
:10247000080C0020140F0020084B1A68084B1A6043
:1024800000225A60072243F8042C064A136843F0DE
:102490007F4313604FF0FF30704700BF94970008F0
:1024A00014E000E020ED00E07047000008B50B4BA1
:1024B000186801234370FFF757FDFFF751FF084AE3
:1024C000136801331360FFF77FFDFFF709FC054830
:1024D000FFF738FDBDE8084000F052B83C0F00207F
:1024E000780F0020140F0020084B1B68DA78012AAF
:1024F0000AD0DA6A9B6A9A4203D81268044B9A425D
:1025000002D00120FFF78FBA704700BF3C0F0020B8
:10251000A52E5AE208B50448FFF714FD034B586096
:102520000223437008BD00BF140F00203C0F0020A1
:10253000064B1A88064B0120904204D853F8041F1A
:1025400011B10130F8E70020704700BF88970008FC
:10255000880C002030B5002401250470457081707E
:1025600044608460C46004618482C48204834483C0
:1025700080F820401146BDE83040FFF719BA00004E
:10258000024B586002234370704700BF3C0F00208D
:1025900070B5044618B9BDE87040FFF7BBBF0B4DDE
:1025A000A278286883789A424FF0010607D9FFF78E
:1025B000DBFC2B685E7002236C60637070BD66701C
:1025C00021460348BDE87040FFF7A4BC3C0F002043
:1025D000140F002038B50D46014678B14FF6FF7351
:1025E0009842074C02D02068FFF7C8FC23680548D2
:1025F0005D70FFF7A7FC02236060437038BD00BF29
:102600003C0F0020140F0020024B186800B1C07866
:10261000704700BF3C0F002010B588B9174B1B68EE
:102620009970174843689B788B4222D9134C2168D4
:10263000FFF770FC236801225A70FFF76BFF18E068
:10264000104B1B88984216D801380F4B53F8204086
:102650008CB10A4BA1701B689C42E2D02046FFF768
:1026600003FD6378012B04D10548FFF76BFCFFF7EE
:102670008FFF002010BDFF2010BD00BF3C0F0020C9
:10268000140F0020889700088C0C002070B5184D9E
:1026900018B12B68DB78984213D12E68002474702F
:1026A000FDF705FEB062FFF71FFF2A681149D378D6
:1026B0002C60013B41F82340D462FFF72BFF2046FA
:1026C00070BD0D4B1B8898420FD8441E094E56F81A
:1026D000245055B12846FFF7B1FC2846FFF7DEFC31
:1026E000002046F82400E86270BDFF2070BD00BFE6
:1026F0003C0F00208C0C00208897000810B5284B58
:102700001A880023934205D22649002041F823006D
:102710000133F7E7244C254AFF23E370244B1B8841
:1027200063622046234BE3620021FFF713FF224A36
:102730000023042111705360204A1170D36013618B
:1027400093821F4A1460022262701E4A13705370F3
:102750001D4B1B78D370FFF7F7FD1C4B1A6842F432
:102760007F021A601B681B0203F07F43DB43B3FA4E
:1027700083F3174A17481268DBB2C3F10803C2F3A8
:1027800002229A42A8BF531C6FF08071026801FABE
:1027900003F303F07F4122F07F430B43036010BD3E
:1027A000889700088C0C0020440F0020251A000890
:1027B00090970008E80C0020140F0020FC0E002069
:1027C0003C0F0020080C00209297000820ED00E04C
:1027D0000CED00E01CED00E008B5FFF74DFE0C4BE2
:1027E0000028186012DB00F1604000F56440FF2211
:1027F00002701A6853119B0003F1604303F56143B3
:1028000002F01F02012101FA02F21A6008BD00BFA6
:10281000340F00207047000010B5064B036003F131
:1028200018024C33044642658365543000F0C0FC06
:10283000204610BD88980008A0F15400FFF7ECBFB7
:10284000A0F15800FFF7E8BF10B5044600F0A2FE63
:10285000204610BD10B5054B0360044600F0FAFC9D
:10286000204600F031FD204610BD00BF4899000809
:1028700010B50446FFF7EEFF204600F08BFE204621
:1028800010BD0000084909480B685A1C032392FB3D
:10289000F3F303EB4303D31A0B600BB9012100E000
:1028A000002100F08DB800BF1C1000202010002077
:1028B00008B5FFF7E7FF0248BDE8084000F00AB995
:1028C0005810002008B50D4800F090F80C480B494E
:1028D00000F06EF80B480C4900F072F90B480C4BF5
:1028E00083610023C36241F2883100F0BBFC0548DC
:1028F00000F098F90A20FFF756F8F8E75810002082
:10290000201000207C0F0020800F002028100020C5
:10291000B128000810B50446FFF77EFF204600F0FE
:1029200039FE204610BDA0F15400F3E7A0F1580095
:10293000F0E700002DE9F041164D174EDFF86C80EE
:10294000164F0024284600F09FFCC5F80080AC61BB
:10295000EC622846124D3946324600F016FE2846F3
:1029600000F092FCC5F80080AC61EC6228460D4D89
:102970003946324600F009FE284626212722234602
:1029800000F064FB284632460749BDE8F04100F0FC
:10299000FCBD00BFEC0F0020880100205528000876
:1029A00028100020800F00201928000848990008EE
:1029B000024B196000230360436070475C100020E5
:1029C00001607047C268436801B91B041360704717
:1029D00038B5102204460D46002101F034FA204695
:1029E0002946FEF715FF204638BD000008B50B4B01
:1029F0000B48DA685B681B0413600A4BDA685B6893
:102A00001B041360084BDA685B681360002100F058
:102A100034FA064B00221A6008BD00BF6011002086
:102A20009411002030110020DC11002070110020D2
:102A300070B51E480C460125C1F10701A54000F004
:102A40001CFA1B4C04F1C00614F8011C194829405B
:102A5000FFF7B8FF217818482940FFF7B3FF6178E6
:102A600016482940FFF7AEFFA17815482940FFF727
:102A7000A9FFE17813482940FFF7A4FF2179124804
:102A80002940FFF79FFF114BDA68596811605B68B6
:102A900006341B04B4421360D6D10D4BDA68596872
:102AA00011605B681B04136070BD00BF94110020AF
:102AB0007110002074110020EC1100204011002042
:102AC00084110020601000205011002060110020AF
:102AD0003011002070B5064600240A4DEB686A6884
:102AE0001A60E1B23046FFF7A3FF6B68EA681B0487
:102AF00013604FF4FA700134FEF74AFF082CECD152
:102B000070BD00BFDC11002010B5214C8EB04FF01D
:102B1000FF33009301930293039304930593069369
:102B20000793089309930A930B930C93204617235A
:102B300016211F2200F024F9164A1749204600F0FA
:102B400024FD0F211548FFF743FF1E211448FFF70E
:102B50003FFF15211348FFF73BFF3B211248FFF7CA
:102B600037FF3C211148FFF733FF33211048FFF7AF
:102B70002FFF36210F48FFF72BFF3D210E48FFF7AF
:102B800027FF08210D48FFF723FF0EB010BD00BF3F
:102B90009411002088010020492D000860110020B8
:102BA00030110020DC11002074110020841100205D
:102BB000EC11002060100020401100205011002076
:102BC00008B5124B084619604FF4E13100F08AFA5B
:102BD0000F484FF4E13100F085FA00220D4900233F
:102BE00053540132402AF9D100220B4919440020E4
:102BF00041F8220001320A2AF7D12833A02BF3D161
:102C000006480749BDE8084000F0FABA4C13002016
:102C1000E0120020A0120020001200203413002037
:102C20009C970008F8B5324C206800F063FA2546FE
:102C300000285CD02068543000F0D8FA23284BD10B
:102C40002C492D4800F0DCFA2068543000F0CEFA10
:102C5000242808D0252837D12748284900F0D0FA61
:102C60000020064612E020682549264C543000F02A
:102C7000C7FA2868543000F0B9FA04F8010F286840
:102C8000543000F0B3FA2128F3D11AE01E4C216829
:102C900009290BDC032EDFBF06F1FF331A460A2792
:102CA00007FB0213DCBF194A42F82300286854309E
:102CB00000F09CFA212806F10106E7D123680133D0
:102CC00023600D4812490EE020682B21543000F09B
:102CD00081FA09480F4906E020682B21543000F0A2
:102CE00079FA05480C49BDE8F84000F089BAF8BD0A
:102CF0004C130020BB97000834130020F7970008FE
:102D0000C99700089E120020FC110020001200202C
:102D1000DF9700080B9800081598000810B5074CBD
:102D2000262120462722002300F090F9204604495E
:102D3000044ABDE8104000F028BC00BFE0120020AB
:102D40001928000888010020074B70B5044603606D
:102D5000054600F1400655F8040F08B100F01AFCD2
:102D6000B542F8D1204670BD2898000810B5044639
:102D7000FFF7EAFF204600F00DFC204610BD0000E2
:102D80002DE9F04188B00546ADF80430BDF9383082
:102D9000ADF80630BDF93C30ADF80830BDF9403033
:102DA000ADF80A30BDF94430ADF80C30BDF948300B
:102DB000ADF80E30BDF94C30ADF81030BDF95030E3
:102DC000ADF81230BDF95430ADF81430BDF95830BB
:102DD000ADF81630BDF95C30ADF81830BDF9603093
:102DE000ADF81A30BDF964301948ADF81C30002434
:102DF000BDF968302860ADF80010ADF80220ADF8DC
:102E00001E306C64A8463DF914707B1C0CD0102059
:102E100000F0C2FB00210646102201F014F83046F3
:102E20003946FEF7F5FC00E0002601371CBF012300
:102E30006A6C48F8046F1CBFA340134304F10104FB
:102E400018BF6B64102CDED1284608B0BDE8F081B5
:102E50002898000810B5012350F823205C1E42B1C9
:102E600041FA04F414F0010FD468526808BF120448
:102E700022600133112BEFD110BD10B50446FFF7CE
:102E8000E9FF204610BD0000094B036083686BB169
:102E9000084A1368834202D14368136070475A6836
:102EA000824201D01346FAE742685A60704700BF79
:102EB000389800085013002010B50446FFF7E4FFCF
:102EC000204600F067FB204610BD0000054B036064
:102ED000002343608160027319B1034B1A6842609A
:102EE000186070473898000850130020F8B50B4B55
:102EF0001C6807460E4674B1A56855B12846394688
:102F0000324602F018FC20B9284602F00CFCB04210
:102F100001D06468EFE72046F8BD00BF50130020E1
:102F2000007B7047036870B51B69002101220546CC
:102F30009847431C04460ED02B6828461B69002185
:102F4000022298472B6806461B6928462146002224
:102F50009847304670BD70BD10B5074B044600223F
:102F600040F8043BFFF7B2FF044B03F1080234338F
:102F700022606360204610BD9899000840980008C0
:102F800010B5074B03F1080234330446026040F8E1
:102F9000043FFFF779FF204600F0AEF9204610BD50
:102FA0004098000810B50023036043600A782F2A78
:102FB000044613D14A788AB1481C20601946236818
:102FC0001A782F2A02D10133236004E01AB10133A9
:102FD00001312360F3E7FFF789FF6060204610BDF1
:102FE00000687047406808B520B1FFF799FF431E9D
:102FF0005842584108BD10B50446FFF7F3FF00B131
:10300000606810BD406808B520B1FFF789FFB0FACD
:1030100080F0400908BD10B50446FFF7F3FF10B17A
:10302000606800B1043810BD4068003018BF01204E
:10303000704700F062B8A0F15400FFF7FABF00F04B
:103040005FB8A0F15400FFF7FABF000038B504469E
:103050001D4600F021F804F15400294600F086F8DE
:10306000054B03F10802226003F12002543362652C
:10307000A365204638BD00BF809800081823594337
:1030800043185A6B1B6A0AB92BB118471BB101448C
:103090002431184610477047F8B505460F4B45F8E0
:1030A000043B04460F461646284600211C2200F029
:1030B000CAFE002323626363A363E3644FF41653E1
:1030C0002365284639463246FEF73EFA284604492B
:1030D0002246FEF7F5FA2046F8BD00BFE898000842
:1030E0007D30000838B504460D460430FEF7E4FA9A
:1030F000256538BD0430FEF7EFBA0430FEF7F6BAA6
:1031000010B504300C46FEF707FB204610BD00202A
:103110007047F8B507460D468E180C46B44208D0E5
:103120003B6814F8011B5B6A384698470130F5D1BB
:103130002646701BF8BDF8B506460D468F180C469E
:10314000BC4208D0336830469B6A9847431C02D083
:1031500004F8010BF4E7601BF8BD00207047002065
:103160007047002070470020704700001FB50446DC
:10317000FFF7F2FE0B4B0C4903F108023C3363608E
:1031800000236361226001A8224602F02FFA07495A
:1031900001A800F09FFC606100F0F2F9204604B045
:1031A00010BD00BFF0980008349900083899000855
:1031B00010B5074B03F108023C330446026043603C
:1031C000406900F08BFA2046FFF7DAFE204610BD7A
:1031D000F098000838B504460D46406900F034FB0D
:1031E00028466169BDE8384000F0A2BC10B504462D
:1031F000406900F029FB6069BDE8104000F0C3B9E8
:103200000EB433B505AB044653F8045B4069019333
:1032100000F01AFB6069019A294600F0E7FF02B04E
:10322000BDE8304003B070474368416910B50446BB
:10323000194400F03DF8E36A23B9A3694BB1BDE836
:1032400010401847A06920B104F11C01BDE81040EE
:10325000184710BD10B5044600F030F80023A361F4
:10326000E36210BD38B505460C4600F027F86C61E6
:103270002869FEF77FFB01192846BDE8384000F0B9
:1032800017B803689B681847074B10B50360002305
:1032900043608360C3600446FEF770FB034920610E
:1032A000FEF706FB204610BD609900088332000837
:1032B00003460A460069191DFEF727BB0146043183
:1032C0000069FEF73DBB000010B5034B03600446E8
:1032D000FFF7F4FF204610BD60990008044B1B68FF
:1032E00023B9044826212722FEF72EB9704700BFD4
:1032F0003C030020A4030020074B03600023074A7F
:1033000052F82310814204BF002142F823100133F8
:10331000402BF4D1704700BF989900085413002047
:103320002DE9F3410F462D49054602F0F2F9044616
:1033300010B9FFF7D3FF4DE02846294902F0E9F91B
:1033400018B9FFF7CBFF012444E02846254902F0D5
:10335000E0F918B9FFF7C2FF02243BE00024224B3A
:1033600053F824201E4672B10134402CF7D107E0F7
:1033700068462946FFF716FE6846FFF755FE60B916
:103380004FF0FF3426E02B783A2BF1D1284617492D
:103390006A4602F04FF9009817E06846FFF732FEE0
:1033A00018B16846FFF737FE0FE06846FFF723FEC7
:1033B00005460028E4D003686846D3F80880FFF784
:1033C0000FFE3A4601462846C0470028D8D046F8A6
:1033D00024000334204602B0BDE8F0816C99000857
:1033E0008599000873990008541300203499000847
:1033F00002284FF0000309DDC21E074951F82200E0
:1034000041F8223020B103685B68184718467047BE
:103410004FF0FF30704700BF54130020022870B5F2
:103420000C4615460FDC0E4B1B680BB9FFF756FF19
:103430006619B44205D00B4814F8011BFEF76CF96D
:10344000F7E7284670BD0338074B53F8200020B13A
:103450000368BDE870401B6818474FF0FF3070BD2F
:103460003C030020A403002054130020022810B5C0
:103470000C460ADC0B4B1B680BB9FFF72FFF0A4801
:10348000FEF734F92070012010BD0338074B53F8C4
:10349000200020B10368BDE810409B6818474FF03A
:1034A000FF3010BD3C030020A40300205413002073
:1034B000022807DD0338064B53F8200020B10368CB
:1034C000DB681847012070474FF0FF30704700BF9E
:1034D00054130020022807DD0338064B53F8200060
:1034E00020B103681B691847002070474FF0FF3078
:1034F000704700BF54130020022808B504D84FF4C9
:1035000000534B60002008BD00F07CF809230360E5
:103510004FF0FF3008BD08B5012000F079F8704782
:1035200008B5FDF711FFFFF7FAFFBDE80840FFF708
:10353000C9B90000074A13681844EFF308818842AC
:1035400029BF054B10600C224FF0FF302CBF1A60D2
:103550001846704720020020F0140020074C08B5E0
:1035600023680546986800F06FF92368D86800F072
:103570006BF90DB1FEF71AF9FEE700BF84020020D7
:10358000002101F05BBF00F09DB9034608461946D3
:1035900000F02AB800F01ABC10B5002814BF044689
:1035A0000124204600F00AFC30B900F007F808B901
:1035B00000F00CF88047F4E710BD0000024B1868DB
:1035C000BFF35F8F704700BF5414002008B506207A
:1035D00001F0F0FF0120FFF7C1FF01460020024685
:1035E000034603F01BB9000038B5054604480C46F5
:1035F000134620B102202946224603F00FF938BDB8
:103600001D680008014B1868704700BF8402002045
:1036100008B5074B044613B1002103F05BF9054BD5
:103620001868836A03B198472046FFF797FF00BFE9
:10363000D5680008209A000870B505460C4609B9FF
:10364000002070BD18B183690BB900F083F9204BDD
:103650009C4201D16C6808E01E4B9C4201D1AC68D1
:1036600003E01D4B9C4208BFEC68B4F90C30002B02
:10367000E6D02846214600F039F8236B064633B1E0
:103680002846216A98470028B8BF4FF0FF36A38923
:103690001B0603D52846216900F0DEFB616B41B1B2
:1036A00004F14403994202D0284600F0D5FB0023E0
:1036B0006363A16C21B1284600F0CEFB0023A36414
:1036C00000F0B2F90023A38100F0AFF9304670BDDD
:1036D000BC990008DC990008FC990008024B0146DF
:1036E0001868FFF7A9BF00BF840200208A892DE96E
:1036F000F041054610070C4657D44B68002B02DCFE
:103700000B6C002B18DDE66AB6B102F48052002380
:1037100092B22F682B600AB1626D10E0216A2846D0
:103720000123B047411C024609D12B683BB11D2B38
:1037300001D0162B47D12F600020BDE8F081A3896E
:103740005B0705D56368D21A636B0BB1236CD21A81
:10375000E66A216A00232846B047461CA38905D1A2
:103760002A681AB11D2A01D0162A19D100226260D6
:10377000D9042269226004D5421C01D12B6803B907
:103780006065616B2F600029D6D004F14403994233
:1037900002D0284600F060FB00206063BDE8F081A5
:1037A00043F04003A381BDE8F0810F69002FC3D02F
:1037B00093070E6808BF4B690F6018BF0023C7EB63
:1037C00006088B6012E0A38943F04003A3814FF009
:1037D000FF30BDE8F0812846216AA66A3A46434692
:1037E000B0470028EFDD0744C0EB0808B8F1000F30
:1037F000F1DCA1E738B50B6905460C46DBB118B121
:1038000083690BB900F0A6F80C4B9C4201D16C689F
:1038100008E00B4B9C4201D1AC6803E0094B9C4291
:1038200008BFEC68B4F90C302BB128462146BDE83E
:103830003840FFF75BBF002038BD00BFBC990008CF
:10384000DC990008FC990008014620B9044B0549A1
:10385000186800F021BA044B1868FFF7CBBF00BF0F
:10386000209A0008F53700088402002038B50C467D
:10387000054618B183690BB900F06CF80E4B9C42F9
:1038800001D16C6808E00D4B9C4201D1AC6803E0AB
:103890000B4B9C4208BFEC686368013B002B6360E4
:1038A00005DA28462146BDE8384001F02FBD2368DF
:1038B0005A1C2260187838BDBC990008DC990008B1
:1038C000FC990008024B01461868FFF7CFBF00BF04
:1038D00084020020014900F0DFB900BFF53700087D
:1038E000002310B504460360436083608181436612
:1038F000C28103614361836119465C30082200F094
:10390000A2FA054B6362054BA362054BE362054BCC
:103910002462236310BD00BF89560008AF5600081B
:10392000E75600080B57000870B568234D1E5D432D
:103930000E4605F1740100F0D3FA044640B10021AF
:1039400080E842000C30A06005F1680200F07BFACC
:10395000204670BD836910B5044633BB8364C364DD
:103960000365124B124A1B688262984204BF01230E
:10397000836100F01FF86060204600F01BF8A06033
:10398000204600F017F80421E06000226068FFF78D
:10399000A7FFA06809210122FFF7A2FFE06812211A
:1039A0000222FFF79DFF0123A36110BD209A0008AA
:1039B000D5380008F8B51B4B1E68B369074613B924
:1039C0003046FFF7C7FF4836B4687368013B04D43C
:1039D000B4F90C5075B16834F8E733682BB9384640
:1039E0000421FFF7A1FF306008B13668ECE70C2333
:1039F0003B60F8BD4FF6FF73E3810123A381656649
:103A00002560A560656025616561A56104F15C00C4
:103A10002946082200F017FA6563A563A564E564EA
:103A20002046F8BD209A00087047704738B5074B0C
:103A3000074CE41AA4101D4624B1013C55F824306B
:103A40009847F9E7BDE8384005F0CABDD402002028
:103A5000D8020020F7B50F46114601AA054603F02B
:103A600007FE064608B9002029E02846FFF7A2FF16
:103A700004460028F7D028463946019A4FF4DB73F4
:103A800001F066FB002806DA0025FFF7CDFFA581CF
:103A9000FFF7CBFFE7E70B4B63620B4BA3620B4BCC
:103AA000E3620B4B2363F305E081A681246205D515
:103AB000284621460022022300F044F8204603B0A5
:103AC000F0BD00BF89560008AF560008E756000851
:103AD0000B5700080A460349034608681946FFF7D2
:103AE000B9BF00BF8402002070B50E4614460546DB
:103AF00018B183690BB9FFF72DFF0A4B9C4201D126
:103B00006C6808E0084B9C4201D1AC6803E0074BAD
:103B10009C4208BFEC68284631462246BDE870400A
:103B200001F028BBBC990008DC990008FC9900084A
:103B30000A460349034608681946FFF7D5BF00BF88
:103B40008402002000F000B82DE9F8430C469046AE
:103B50001E46054618B183690BB9FFF7FBFE3D4BC6
:103B60009C4201D16C6808E03B4B9C4201D1AC689F
:103B700003E03A4B9C4208BFEC68A38903F48473CA
:103B8000B3F5847F03D128462146FFF733FEE76A69
:103B90000FB91D232BE0012E04D0022E2BD056B3DB
:103BA000162324E028462146FFF724FEA28902F4CA
:103BB000805292B20AB1606D05E0216A2846334610
:103BC000B847411C14D0A3895A0706D56368C01AA8
:103BD000636B4BB1236CC01A06E01B0704D5236846
:103BE00013B122699B1A18448044002603E02B601D
:103BF0004FF0FF392BE023691BB92846214600F01E
:103C00008FF828462146FFF7F5FD81460028EFD1C1
:103C10002846216A42463346B8470130E8D0616BF6
:103C200041B104F14403994202D0284600F014F94E
:103C30000023636323692360A389002123F40263C3
:103C40006160A38104F15C00082200F0FCF84846A2
:103C5000BDE8F883BC990008DC990008FC990008CD
:103C60002DE9F041884600F1480400268CB1A56892
:103C70006768013F0BD4AB89012B06D9B5F90E302B
:103C8000013302D02846C04706436835F1E724686F
:103C9000ECE73046BDE8F0812DE9F84380468946DF
:103CA00000F14804002694B1A5686768013F0CD470
:103CB000AB89012B07D9B5F90E30013303D040464B
:103CC0002946C84706436835F0E72468EBE73046E5
:103CD000BDE8F88370B50E4B0E4CE41AA410002515
:103CE0001E46A54204D056F8253098470135F8E71E
:103CF00005F070FC084C094BE41AA41000251E4680
:103D0000A54204D056F8253098470135F8E770BD34
:103D1000C4020020C4020020D4020020C4020020FB
:103D2000F0B58B899D0791B006460C4626D4B1F9B3
:103D30000E10002909DAA38913F0800F4FF0000557
:103D400014BF40274FF480670DE001AA03F0C8FCC0
:103D50000028F0DB029D05F47045A5F500514D42A9
:103D60004D414FF480673046394600F0B9F860B9EC
:103D7000A3899A051DD443F00203A38104F14703EC
:103D8000236023610123636113E00B4BB362A389BA
:103D9000206043F08003A381206167614DB130460C
:103DA000B4F90E1003F0BAFF18B1A38943F0010370
:103DB000A38111B0F0BD00BFD5380008024B014609
:103DC000186800F08DB800BF84020020024B014645
:103DD000186800F041B800BF8402002010B5C9B2D5
:103DE00002449042034606D01C788C4200F1010048
:103DF000F7D1184610BD002010BD10B5431E0A446F
:103E0000914204D011F8014B03F8014FF8E710BDBF
:103E1000814210B501EB020301D3421E0BE0984230
:103E2000FBD28118D21AD34204D013F8014D01F805
:103E3000014DF8E710BD994204D011F8014B02F88A
:103E4000014FF8E710BD02440346934202D003F845
:103E5000011BFAE77047000030B500293DD051F84A
:103E6000042C0B1F1D49002AB8BF9B180A680C467A
:103E700012B95A600B6030BD93420DD219685818C0
:103E8000904201BF5A5852181A6042685A60236023
:103E900030BD994203D80A4651680029F9D1146807
:103EA00015199D420AD11B682344D018884213601B
:103EB00013D10868034413604B680DE002D90C234A
:103EC000036030BD1C681819884204BF086849683F
:103ED000596004BF00191860536030BD5C140020A5
:103EE00070B5CC1C24F0030408340C2C38BF0C240F
:103EF000002C064603DA0C233360002070BD8C4290
:103F0000F9D3204A136810461946A1B10A68121B5A
:103F10000ED40B2A03D90A608B188C501FE08B42F9
:103F20000DBF5A684A685A60026018BF0B4616E017
:103F30000B464968E9E7144D2B681BB9304601F080
:103F40003BFA28603046214601F036FA421C03460F
:103F5000D1D0C51C25F0030585420AD11C6003F1B0
:103F60000B001A1D20F00700821A0AD05142995006
:103F700070BD3046E91A01F01FFA0130BBD02B4664
:103F8000ECE770BD5C140020581400209368013BDE
:103F9000002B10B5936009DA9469A34202DBCBB21F
:103FA0000A2B03D1BDE8104002F066BB1368581C11
:103FB00010601970C8B210BDF8B506460F46144619
:103FC000D518AC4208D0304614F8011B3A46FFF72A
:103FD000DDFF431CF5D100E00020F8BD2DE9F043E2
:103FE0009DB00D4690460393064618B183690BB900
:103FF000FFF7B0FC754B9D4201D1756808E0744B2A
:104000009D4201D1B56803E0724B9D4208BFF5683F
:10401000AB891C070AD52B6943B1002309932023E0
:104020008DF8293030238DF82A3041E0304629467A
:1040300002F088FB0028F0D04FF0FF30C2E0039A76
:10404000111D12680391002ABBBF524243F00203C4
:1040500007920792B8BF0493013423782E2B7BD0AC
:10406000DFF88081217840460322FFF7B7FE38B1A0
:10407000049AC8EB000040238340134304930134A7
:10408000217855488DF82810062204F10108FFF721
:10409000A5FE002800F08580504B002B78D1039BB3
:1040A000073323F0070308330393099B3B44099329
:1040B00043461C4613F8012B1AB9B4EB08090ED07D
:1040C00002E0252AF5D1F8E73046294642464B461C
:1040D000FFF772FF013070D0099B4B44099323789E
:1040E000002B6AD000234FF0FF3204930793059210
:1040F00006938DF853301A9304F101084446DFF813
:10410000E890217848460522FFF768FE08F101088B
:10411000049B30B1C9EB0000012282401343049399
:10412000ECE7D80644BF20228DF85320190744BF7E
:104130002B228DF8532022782A2A80D007992346F3
:104140001C4601332278303A092A03D80A2000FBA2
:104150000121F5E7079180E763782A2B0AD1039BB9
:104160001A1D1B680392002BB8BF4FF0FF330234B7
:10417000059375E7611C00220C4601312378303B22
:10418000092B03D80A2000FB0232F5E7059267E706
:1041900003AB0093304604A92A46114B00F0C4F843
:1041A00007E003AB0093304604A92A460C4B00F00D
:1041B00077FB421C07467FF478AFAB895B063FF57F
:1041C0003BAF09981DB0BDE8F08300BFBC99000863
:1041D000DC990008FC9900082E9A00082943000881
:1041E000B93F00082A9A0008249A000830B51346FF
:1041F000044A05460C46106829462246BDE8304070
:10420000FFF7ECBE840200202DE9F04788B0002BB8
:10421000149F1299109EDDF84CA01D46B8BF05F101
:10422000004327F02007B6BF1D4600232D23144668
:10423000B8BF1446462F0B7003D0452F03D101366B
:1042400001E0032300E002238DE8480406AB03935A
:1042500007AB049322462B4602F046FC472F8046CC
:1042600002D1119BDB0726D5462F08EB060911D199
:1042700098F80030302B0AD120462946002200232E
:1042800005F0CEF818B9C6F10106CAF80060DAF8F0
:1042900000309944204629460022002305F0C0F84A
:1042A00008B1CDF81C90079B4B4504D25A1C0792CD
:1042B00030221A70F7E7079B159AC8EB03034046B4
:1042C000136008B0BDE8F08773B503460029B8BF96
:1042D000494203F8022BB4BF2D222B220929427038
:1042E00019DD0DF1070426460A2291FBF2F502FBC7
:1042F00015113031092D04F8011D2946F4DC303147
:10430000651E04F8011CB5421A460AD215F8012BA5
:1043100003F8012BF7E730241A46214402F8024B38
:104320005970101A02B070BD2DE9F04F91B08B4654
:1043300015461E461A9F044603F000FDD0F800A063
:10434000504601F0F0F900230E933B6809900733C3
:1043500023F0070303F108029BF818803A60D3E9C1
:104360000023CBE91223DBE9120100F0FBFF012857
:10437000DBE9120119D10022002305F05BF810B12E
:104380002D238BF84330A04BA04FB8F1470F88BFC7
:104390001F460323CBF81030DBF8003023F0040372
:1043A000CBF800304FF00009A1E000F0DBFFDBF8B4
:1043B000003048B9964A974FB8F1470F88BF174663
:1043C0000322CBF81020E9E7DBF804209BED127BF9
:1043D000571C8DED0A7B01D1062209E0B8F1670F69
:1043E00002D0B8F1470F05D1002A40F0C781012261
:1043F000CBF80420DBF80420CDF8108043F4806370
:104400008DE80C00CBF800300DF1330302930DABB7
:1044100003930EAB0593002306932046DDE90A23A0
:10442000FFF7F2FE08F0DF03472B07460AD10D9B8A
:10443000D81C03DBDBF80420934237DDA8F1020827
:104440005FFA88F8B8F1650F0D9915D80139424621
:104450000BF150000D91FFF737FF0E9A8318012AD8
:104460008146CBF8103003DCDBF80020D10738D5CB
:104470000133CBF8103034E0B8F1660F18D10029C1
:10448000DBF8043009DDCBF810101BB9DBF8002095
:10449000D20721D501330B441CE01BB9DBF8002007
:1044A000D00701D5023315E0012313E04FF0670870
:1044B0000D9B0E9A934207DBDBF80020CBF81030FF
:1044C000D10709D5013305E0002BD4BFC3F10203A6
:1044D00001231344CBF810300D9BCBF858304FF02C
:1044E00000099DF8333013B12D238BF8433000962B
:1044F000204659460FAA2B4600F05CF9013002D144
:104500004FF0FF3052E1DBF800305A0505D4204669
:1045100029463A46DBF8103008E1B8F1650F40F261
:10452000D080DBE912010022002304F079FF50B3B0
:1045300020462946384A0123B0470130E0D00E9B7F
:104540000D9A9A4209DBDBF80030D80705D4DBF876
:1045500000309F0700F1108107E1204629465246AE
:10456000099BB0470130CBD000270E9B013B9F42F7
:10457000EDDA204629460BF11A020123B04701303B
:10458000BED00137F1E70D9B002B29DC20462946E0
:10459000214A0123B0470130B2D00D9B2BB90E9BAD
:1045A0001BB9DBF80030D907D1D520462946524641
:1045B000099BB0470130A3D04FF000080D9B5B4230
:1045C00098452046294608DA0BF11A020123B04724
:1045D000013095D008F10108F0E73A460E9BA5E0BE
:1045E000DBF858200E9B9A42A8BF1A46002A914633
:1045F00002DC4FF000081CE0204629463A464B46B4
:10460000B0470130F5D17BE7399A0008359A0008A8
:10461000419A00083D9A00088E9A000820462946D3
:104620000BF11A020123B04701303FF469AF08F1E2
:104630000108DBF85830B9F1000FACBFC9EB030239
:104640001A469045EADB07EB03080D9A0E9B9A4247
:1046500010DBDBF80030DA070CD40E9A1744C8EBF5
:1046600007030D9FD21B9342A8BF1346002B1F4682
:1046700008DC0EE0204629465246099BB04701302F
:10468000EBD13DE7204629464246B04701303FF492
:1046900037AF4FF000080AE0204629460BF11A0216
:1046A0000123B04701303FF42BAF08F101080D9A08
:1046B0000E9B002FA3EB0203A8BFDB1B9845EBDB8F
:1046C00045E70E9A012A01DCDB0736D5204629464C
:1046D0003A460123B04701303FF412AF2046294645
:1046E0005246099BB04701303FF40AAFDBE91201A3
:1046F0000022002304F094FEE8B90E9B20462946D0
:104700007A1C013B1DE0204629460BF11A020123C9
:10471000B04701303FF4F4AE01370E9B013B9F429E
:10472000F1DB204629460BF150024B46B0470130E1
:104730007FF40DAFE4E60027EFE7204629463A462E
:104740000123B0470130ECD1DAE6204629460BF1CF
:1047500019020123B04701303FF4D2AE0137DBF834
:104760000C300F9A9B1A9F42EFDBDBF80C000F9B7B
:104770009842B8BF184619E00027F0E743F4806379
:104780008DE80C00CBF800300DF1330302930DAB34
:1047900003930EAB059300230693CDF810802046BB
:1047A000DDE90A23FFF730FD074640E611B0BDE81A
:1047B000F08F00BF2DE9F84391461F468A680B69C8
:1047C000DDF820809342B8BF1346C9F8003091F855
:1047D000432006460C4612B10133C9F80030236865
:1047E000990642BFD9F800300233C9F80030256875
:1047F00015F006051CD094F843302268003318BF2A
:10480000012392061FD5E1185A1C302081F843007D
:10481000224494F8451082F84310023313E03046E6
:10482000394604F119020123C047013007D0013590
:10483000E368D9F800209B1A9D42F0DBDBE74FF0DC
:10484000FF30BDE8F8833046394604F14302C047E3
:104850000130F4D02268D9F80050E36802F0060273
:10486000042A08BF5D1B2269A3680CBF25EAE57511
:1048700000259342C4BF9B1AED184FF00009A945CB
:104880000ADA3046394604F11A020123C0470130E2
:10489000D5D009F10109F2E70020BDE8F883000056
:1048A0002DE9FF410C461746227E6E2A98460646A1
:1048B0000A9B01F1430100F0AF8012D8632A23D094
:1048C0000AD8002A00F0BC80582A40F0CB8084F837
:1048D0004520DFF804E257E0642A1ED0692A1CD084
:1048E000C0E0732A00F0B08009D86F2A2ED0702A59
:1048F00040F0B880226842F0200222603FE0752A32
:1049000024D0782A3BD0ADE01A68111D19601368D5
:1049100084F8423004F14205A8E020681A6810F0DB
:10492000800F02D0101D186008E010F0400F02F157
:104930000400186002D0B2F9003000E01368002BC8
:104940003EDA2D225B4284F8432039E020681A6861
:1049500010F0800F02D0101D186007E010F0400F1B
:1049600002F10400186001D0138800E01368227E71
:10497000DFF864E16F2A0CBF08220A221CE07822CB
:10498000DFF858E184F845202268186812F0800F9B
:1049900000F104051D6003D1550601D5038800E030
:1049A0000368D00744BF42F0200222601BB922688E
:1049B00022F0200222601022002084F8430002E04E
:1049C000DFF814E10A226568A560002DA2BF206807
:1049D00020F00400206003B965B10D46B3FBF2F08E
:1049E00002FB10331EF8033005F8013D0346002892
:1049F000F4D100E00D46082A0BD12368DA0708D568
:104A0000236962689A42DEBF302305F8013C05F154
:104A1000FF35491B21612EE025681A68606915F091
:104A2000800F03D0151D1D60136808E015F0400FBE
:104A300002F104051D60136801D0188000E01860C1
:104A4000002323610D4616E01A68111D19601568D0
:104A5000626828460021FFF7C1F908B1401B606079
:104A6000636804E004F1420584F8422001232361D5
:104A7000002384F84330CDF800803046214603AA55
:104A80003B46FFF797FE013002D14FF0FF301FE0A9
:104A9000304639462A462369C0470130F5D023689D
:104AA0009B0705D4E068039B9842B8BF18460FE007
:104AB0000025E368039A9B1A9D42F3DA3046394693
:104AC00004F119020123C0470130DED00135F0E7BF
:104AD00004B0BDE8F08100BF459A0008569A00086E
:104AE0002DE9F04F99468B6815465A1EB2F5AE7FF8
:104AF00081BF6FF4AE7203EB020C40F25D138B606A
:104B00000B680F4643F4F06387B047F81C3B4FF047
:104B1000000B06460C4698BF4FF0000CB8465A46AC
:104B2000CDF80CB0CDF808B0DA46CDF804B0A168E5
:104B3000002900F0EC802B681B78492B70D016D828
:104B4000392B0DD8312B40D22D2B46D002D82B2B10
:104B500043D0DCE02E2B00F09280302B23D0D6E027
:104B6000452B00F09580462B77D0412B0CE0652B30
:104B700000F08E800AD8542B75D002D84E2B34D03A
:104B8000C5E0592B75D0612B46D0C0E06E2B2CD0E0
:104B900004D8662B61D0692B42D0B8E0742B62D068
:104BA000792B66D0B3E0206810F4807F0DD020F020
:104BB000800020600AF1010ABCF1000F00F08A8039
:104BC00001310CF1FF3CA16084E012EB0B0F40F0CF
:104BD0009E80216821F4C07105E02168080640F13B
:104BE000968021F08001216070E06AB9BAF1000F6F
:104BF0000CD1216801F4E060B0F5E06F06D121F43A
:104C0000F0612160012261E0022A5ED0BBF1010F58
:104C10001ED0BBF1040F1AE0012A78D1022255E020
:104C2000BBF1000F0ED1BAF1000F73D1216801F46E
:104C3000E060B0F5E06F71D121F4F06121604FF0D8
:104C4000010B43E0BBF1030F02D0BBF1050F5ED1B6
:104C50000BF1010B5FFA8BFB38E0BBF1020F56D171
:104C60004FF0030B32E0BBF1060F50D14FF0070BB2
:104C70002CE0BBF1070F4AD14FF0080B26E021686A
:104C8000880544D521F420712160CDF804A01DE0F1
:104C9000216801F4A060B0F5806F04D0480536D5D6
:104CA000BAF1000F3AD088055CBF0198CDF80C80AE
:104CB00021F4F06158BFC0EB0A0041F4C07158BF45
:104CC000029021604FF0000A00E0032288F80030D3
:104CD00008F10108A368013BA36023690133236144
:104CE0006B68013B002B6B6003DD2B6801332B608D
:104CF0001DE7D4F88031059230462946CDF810C022
:104D00009847DDF810C0059A00283FF410AFBAF1BB
:104D1000000F03D0236823F480732360013A012A33
:104D20000ED8B8450AD9D4F87C3118F8011D3046A0
:104D30002A4698472369013B2361F2E70125AEE04B
:104D40000BF1FF33062B22D8BBF1020F12D9ABF1C6
:104D5000030B5FFA8BFBCBEB080BD84517D0D4F8CD
:104D60007C3118F8011D30462A4698472369013BDB
:104D70002361F2E7B845E1D9D4F87C3118F8011D78
:104D800030462A4698472369013B2361F2E72368AE
:104D9000DA052CD55B050CD5B845CFD9D4F87C31D4
:104DA00018F8011D30462A4698472369013B2361C4
:104DB000F2E718F8011C2369652903F1FF3308F1B4
:104DC000FF3B23610DD045290BD0D4F87C31304610
:104DD0002A469847236918F8021C013BA8F1020BE8
:104DE0002361D4F87C3130462A469847D846256856
:104DF00015F0100552D188F80050236803F4C06301
:104E0000B3F5806F05D1019BC3EB0A035A426BB91E
:104E100016E0029BA3B1039B2A46591C30460A2385
:104E200001F0ECFA029BDDF80C80C21A04F26F1359
:104E3000984528BF04F5B77840461B4900F0D6FBDB
:104E400030463946002200F0C7FC2268D9F800300D
:104E500012F0020F06460F4603D01A1DC9F80020B3
:104E600006E012F0040F03F10402C9F8002003D099
:104E70001B68C3E900670DE0D3F8008000F072FA08
:104E800010B900F06BFB03E03046394604F042FBFA
:104E9000C8F80000E3680133E36000E0002528461D
:104EA00007B0BDE8F08F00BF679A00082DE9F04118
:104EB00015468A6880460C4632B98A69002A0CBFBA
:104EC00001224FF0FF328A602268D1065FBF1A6864
:104ED000111D196017680026A06900BB2368DA0657
:104EE0005EBF2B681B783B702A686B6802F1010279
:104EF0002A60A26803F1FF3302F1FF326B6006F112
:104F0000010658BF0137A260EAB1002BE4DCD4F8F7
:104F100080314046294698470028DDD013E001281B
:104F200007D12B6862691B78D35C002BD6D1C6B140
:104F300009E0022807D12B680B4A1B78126813443A
:104F40005B781B07CAD5236813F0100305D1E2680C
:104F50000132E260A26902B13B7023691E442661FE
:104F60000020BDE8F08100BF880200202DE9F04F4D
:104F70009A46734B0C468346164693E8070087B063
:104F800003AB83E807006F4BA1696F4A032918BF81
:104F90001A46A36800925A1EB2F5AE7F81BF6FF425
:104FA000AE7503EB050840F25D13A360236804F1BE
:104FB0001C0943F45063236098BF4FF000084F462C
:104FC00000233268019303A951F8230011780222CB
:104FD000FEF704FF019B002836D0012B0BD162683D
:104FE0002AB908226260226842F4007222602268B4
:104FF00022F4A0620BE0022B0AD1226802F4C06105
:10500000B1F5007F20D11021616042F480722260EE
:10501000A268511EA160BAB13268511C3160127889
:105020003A707268013A002A07F1010572600ADCE1
:10503000D4F880210193584631469047002840D14A
:105040002F46019B00E02F460133032BB9D1636843
:105050000BB90A23636063683C496069C91A00F0B0
:10506000BBF93D460027A36863B3316860690A78DD
:10507000805C38B3302A22680AD1100508D5013780
:10508000B8F1000F0AD0013308F1FF38A36005E042
:1050900022F4106222600B782B7001357368013B9B
:1050A000002B736003DD33680133336005E0D4F80F
:1050B000803158463146984720B9A368013BA36028
:1050C000D1E700272368D9050DD54D4509D915F835
:1050D000011CD4F87C3158463246984705F1FF3818
:1050E00045464D4527D0226812F010021BD12A7088
:1050F0006368009E58464946B0472268DAF8003097
:1051000012F0200F07D1D20705D51A1DCAF80020CA
:105110001B68188004E01A1DCAF800201B6818607C
:10512000E3680133E360C9EB05053D4427693D446D
:105130002561002000E0012007B0BDE8F08F00BF2E
:105140006C9A000809650008FD630008889A000849
:1051500038B5074C054600202060084611461A461F
:10516000FEF7DEF8431C02D1236803B12B6038BD83
:10517000F014002070B50E461446054618B1836938
:105180000BB9FEF7E7FB164B9C4201D16C6808E0B7
:10519000144B9C4201D1AC6803E0134B9C4208BF06
:1051A000EC68A368013B002BA36011DAA26993426B
:1051B00007DB23681E70236819780A290BD128465B
:1051C00001E0284631462246BDE8704001F054BA5D
:1051D00023681E7023685A1C2260187870BD00BFB7
:1051E000BC990008DC990008FC990008838903F049
:1051F0000903092B01D1FEF727BB002070470000EF
:10520000F8B50C46054618B183690BB9FEF7A2FB49
:10521000394B9C4201D16C6808E0384B9C4201D16B
:10522000AC6803E0364B9C4208BFEC68A2890023BF
:10523000636093B29E065AD458071AD4D90605D48F
:10524000092342F040022B60A28150E01A070BD5DF
:1052500028462146FEF7CEFA002848D1A389A0604F
:1052600023F00803A381A061A38943F00403A38171
:1052700010E0616B71B104F14403994202D02846F9
:10528000FEF7EAFD236C63600020606313B1E36BFB
:105290002360F8BD23691BB928462146FEF740FD6F
:1052A000A789BEB2B3070FD00123A381154B1649BE
:1052B000186806F00906FEF7D3FC092EA78103D172
:1052C00028462146FEF712FA22692260666A216AA0
:1052D00063692846B047002860600BDCA38917BFCC
:1052E000002243F0200343F040036260A3814FF0AB
:1052F000FF30F8BD0020F8BDBC990008DC9900081B
:10530000FC990008209A0008ED51000838B50C46B9
:10531000054618B183690BB9FEF71CFB0E4B9C4286
:1053200001D16C6808E00D4B9C4201D1AC6803E0F0
:105330000B4B9C4208BFEC6828462146FFF760FFF4
:1053400038B96368013B636023685A1C226018788F
:1053500038BD4FF0FF3038BDBC990008DC9900081B
:10536000FC9900080A4631F0004110B503461BD0F5
:105370000F48A2F58014844210D902F1FF420C4874
:1053800002F5E002824209D9B1F5801F08D3094A2B
:10539000914207D1B3FA83F0400910BD042010BD3B
:1053A000032010BD002010BD0028E6D1022010BD52
:1053B000FFFFDF7F0000F07F38B5064C0023054675
:1053C00008462360FEF7B6F8431C02D1236803B1F8
:1053D0002B6038BDF0140020F0B50A785E2A13BFA8
:1053E0004B1C8B1C4A78002108BF0121441E00F190
:1053F000FF0504F8011FAC42FBD10AB9581EF0BDED
:10540000C1F10104E7B2875419782D2903F101068F
:1054100005D05D290ED079B10A463346F2E75D78B2
:105420005D2DF9D09542F7DB02330132AA42875451
:10543000FBDBE9E73046F0BD1846F0BD00290CBFA4
:10544000022200224FF4806300F000B82DE9F04101
:105450001D463D4B1E6804460F46904626B1B36973
:1054600013B93046FEF776FA384B9C4201D1746886
:1054700008E0374B9C4201D1B46803E0354B9C42B5
:1054800008BFF468B8F1020F5AD8002D58DB304637
:105490002146FEF7AFF900236360A361A3891B06D1
:1054A00003D530462169FEF7D7FCA389B8F1020F76
:1054B00023F08303A38112D037BB002D08BF4FF424
:1054C00080652846FEF77AFC0746C8B94FF480602D
:1054D000FEF774FC074688B94FF0FF3000E000206B
:1054E000A38943F00203A3810023A36004F14703CF
:1054F0002360236101236361BDE8F0814FF480657F
:10550000A38943F08003A381B8F1010F01BFA389F0
:1055100043F00103A3816B4208BFA3610E4BB3624A
:10552000A389276003F0080080B22761656148B154
:1055300013F0030F18BF0025A5600020BDE8F0811F
:105540004FF0FF30BDE8F08184020020BC990008D4
:10555000DC990008FC990008D5380008004870471D
:105560000000C07F1F2938B504460D4604D9162314
:1055700003604FF0FF3038BD426C12B152F8213059
:105580004BB9204600F030F82A4601462046BDE8D7
:10559000384000F017B8012B0AD0591C03D116234C
:1055A0000360012038BD002442F825402846984772
:1055B000002038BD024B01461868FFF7D3BF00BF7B
:1055C0008402002038B5074C0023054608461146E2
:1055D000236003F0F7FF431C02D1236803B12B6063
:1055E00038BD00BFF014002003F0E4BF0EB400B5D6
:1055F0009CB04FF40271ADF814106FF000410491AB
:1056000007914FF6FF711DABADF81610084953F81E
:10561000042B029006900868019302A903F02AF86F
:10562000029B00221A701CB05DF804EB03B07047B7
:10563000840200200EB430B59CB01FAC4FF4017250
:1056400054F8045BADF814200290069000F06BF85B
:105650000B4B0B9300230F9314934FF6FF73ADF88E
:105660001630084B0390079002A9186801942A4647
:10567000234603F04BF91CB0BDE8304003B070473F
:10568000AB5600088402002010B50C46B1F90E108C
:1056900003F08AFA0028ABBF636DA3891B1823F4BB
:1056A0008053ACBF6365A38110BD002070472DE916
:1056B000F0411D468B89DB0507460C46164605D58D
:1056C000B1F90E100022022302F03CFBA389B4F9C9
:1056D0000E1023F48053A381384632462B46BDE892
:1056E000F04101F01DB810B50C46B1F90E1002F0F2
:1056F00029FB431CA38915BF606523F4805343F441
:105700008053A38118BFA38110BDB1F90E1001F021
:105710004BB910F8012B11F8013B012A28BF9A421E
:10572000F7D0D01A7047034613F8012B002AFBD19B
:10573000181A0138704770B5AAB1451E01396B7847
:1057400011F8014FA34205F1010606D16FF00104E3
:10575000641B1444E04202D11C46181B70BD354640
:10576000002BECD1F8E7104670BD30B5036811F896
:10577000014B01334CB11A78A2F14105192D98BFA4
:105780002032A242F3D0002030BD0360012030BDA2
:105790002DE9F0410F46904602F0B4FD04460D4657
:1057A000B8F1000F11D0C7F30A53C3F16B03002BFC
:1057B0000BDD1B0503F17F55002405F5401522463E
:1057C0002B4603F0C5FBBDE8F08120462946BDE825
:1057D000F0810000000000002DE9F04F9FB0002391
:1057E00083468A4616921A934FF000084FF000093C
:1057F0001991199B1A780D2A05D8092A13D2002A63
:1058000000F0BE8112E02B2A06D02D2A02D0202AD9
:105810000CD108E0012200E0002209925A1C1992E2
:105820005B782BB9ACE101331993E2E700230993CC
:10583000199C2378302B5CD16378582B01D0782BBE
:105840004CD11AAB0093099B0193584619A9B14A50
:105850001BAB01F0A2FF10F00706054600F09B8588
:10586000062E05D1013400231994099300F093BD4D
:105870001A9A3AB11CA8352102F032FE58461A99FC
:1058800002F0A7FA1B9A062E21D8DFE806F0040DD5
:1058900008171C0D04004FF00009C84617E0DDF89A
:1058A0007080DDF8749012E01D9BDDF8708002F2CC
:1058B000334223F4801343EA025908E0DFF8589298
:1058C0004FF0000803E06FF000494FF0FF38290760
:1058D00040F1618549F0004900F05DBD199B5A1CFB
:1058E00019925B78302BF9D0002B00F054850123FE
:1058F00000E0002300260493199B05930396354688
:10590000199C2778A7F13003DAB2092A10D8082D9C
:10591000D8BF03994FF00A02D8BF02FB013304F14C
:105920000104D4BF039302FB063601351994E7E75F
:10593000584602F003FA01680291584602F0FEF957
:105940000068FFF7F0FE029902462046FFF7F3FEDB
:1059500028B100203B462C46029007465DE00290AD
:10596000584602F0EBF90068FFF7DDFE199B02993B
:105970001A1819921B5C002D47D12846302B05D1EF
:10598000199B5A1C199201305B78F7E7A3F1310299
:10599000082A48D8199A0290002005920446303B04
:1059A00000F101012BD0029A0A4402920719214604
:1059B000B94213D0013101F1FF3EBEF1080F06DC00
:1059C000039A4FF00A0E0EFB02F20392F0E7102941
:1059D000DCBF4FF00A0E0EFB06F6E9E7204408286C
:1059E00000F1010405DC039A0A2101FB0233039351
:1059F00004E0102CDCBF0A2101FB06360021199BB4
:105A0000581C19905B78084602E02C460846029123
:105A1000A3F130010929C2D90127652B01D0452BFB
:105A200060D174B905E0652B40F0C3840023029374
:105A3000012728B9049B002B00F0A280044600E057
:105A40000024DDF864A00AF1010319939AF80130EB
:105A50002B2B07D02D2B02D04FF0000C09E04FF07C
:105A6000010C01E04FF0000C0AF1020319939AF8BF
:105A70000230A3F13001092932D81946302904D166
:105A8000199B591C19915978F8E7A1F1310EBEF113
:105A9000080F0B4626D8199B06933039199B03F142
:105AA000010ECDF864E05B78A3F13002092A05D835
:105AB0004FF00A0E0EFB01313039EFE7069AC2EBC8
:105AC0000E0EBEF1080F44F61F6E03DC7145A8BF31
:105AD000714600E07146BCF1000F04D0494202E07B
