:020000040800F2
:100000000000022059020008A5020008A50200080D
:10001000A5020008A5020008A502000800000000D3
:1000200000000000000000000000000005030008C0
:10003000A50200080000000091030008E903000881
:10004000A5020008A5020008A5020008A5020008F4
:10005000A5020008A5020008A5020008A5020008E4
:10006000A5020008A5020008A5020008A5020008D4
:10007000A5020008A5020008A5020008A5020008C4
:10008000A5020008A5020008A5020008A5020008B4
:10009000A5020008A5020008A5020008A5020008A4
:1000A000A5020008A5020008A5020008A502000894
:1000B000A5020008A5020008A5020008A502000884
:1000C000A5020008A5020008A5020008A502000874
:1000D000A5020008A5020008A5020008A502000864
:1000E000A5020008A5020008A5020008A502000854
:1000F000A5020008A5020008A5020008A502000844
:10010000A5020008A5020008A5020008A502000833
:10011000A5020008A5020008A5020008A502000823
:10012000A5020008A5020008A5020008A502000813
:10013000A5020008A5020008A5020008A502000803
:10014000A5020008A5020008A5020008A5020008F3
:10015000A5020008A5020008A5020008A5020008E3
:10016000A5020008A5020008A5020008A5020008D3
:10017000A5020008A5020008A50200080000000072
:10018000A5020008A502000810B5054C237833B974
:10019000044B13B10448AFF300800123237010BD5A
:1001A000D8020020000000000C8C0008084B10B59D
:1001B0001BB108480849AFF300800848036803B939
:1001C00010BD074B002BFBD0BDE81040184700BF07
:1001D000000000000C8C0008DC020020D40200208B
:1001E00000000000154B002B08BF134B9D46A3F5E4
:1001F000803A00218B460F461348144A121A03F026
:100200009AFC0F4B002B00D098470E4B002B00D0D0
:1002100098470020002104000D000D48002802D05E
:100220000C4803F004FA03F0CDFB2000290003F092
:10023000A7F903F017FA00BF000008000000022031
:1002400000000000311A0008D8020020C812002067
:100250002F36000861390008DFF830D0002103E0B4
:100260000B4B5B58435004310A480B4B42189A42DF
:10027000F6D30A4A02E0002342F8043B084B9A42B4
:10028000F9D300F0FBFFFFF7ADFF7047000002203D
:10029000188C000888010020D8020020D802002015
:1002A000C8120020FEE7000080F309887047EFF3D2
:1002B00009807047684680F3098851480078C00774
:1002C00014BF0220032080F314887047DFF834C184
:1002D000EFF305831B0618BF6047EFF31483DB07BA
:1002E00008BF604700DF7047DFF81CC1EFF30583EC
:1002F0001B0618BF6047EFF31483DB0708BF604796
:1003000000DF7047EFF30980816911F8021C79BBA7
:1003100090E80F1010B5E047BDE81040EFF3098CEE
:100320008CE80700394B93E80600914208BF7047FC
:1003300071B11EF0100F0CBF0120002081F82000C9
:100340002CE9F00FC1F828C00CB402F0BDF80CBCC9
:100350001A60D2F828C0BCE8F00F92F820000028FC
:1003600014BF6FF0120E6FF0020E8CF30988704705
:1003700010B5274A1268914209D8264C54F82140FA
:1003800090E80F10A047EFF3098C8CE80F0010BD28
:1003900010B502F029F8BDE810401C4B93E80600A8
:1003A000914208BF7047EFF3098C1EF0100F0CBF8D
:1003B0000120002081F820002CE9F00FC1F828C0AE
:1003C0000CB402F081F80CBC1A60D2F828C0BCE86A
:1003D000F00F92F82000002814BF6FF0120E6FF09B
:1003E000020E8CF30988704710B502F04FF8FFF742
:1003F000D2BF10B502F048F802F048F8FFF7CBBFC3
:10040000A2880008E5220008FF220008140F00203F
:1004100000000000FCFFFFFF7047000008B5094B1B
:100420001A6842F400721A601A6842F480621A6014
:10043000032000F017F80F2000F0ECFDFFF7ECFFB1
:10044000002008BD003C0240024A136801331360DB
:10045000704700BFF4020020014B1868704700BFCE
:10046000F4020020074AD36823F4E0631B041B0C4A
:1004700043F0BF6343F4003300F0070043EA002376
:10048000D360704700ED00E02DE9F3410F680022D2
:100490000123934003EA07059D4240F0CB804C685E
:1004A00024F0100CBCF1020F14D14FEAD20E00EB75
:1004B0008E0E02F00706DEF82030B6004FF00F086F
:1004C00008FA06F823EA08080B69B34048EA030370
:1004D000CEF820304FEA420E0323066803FA0EF3EB
:1004E000DB4303EA060804F0030606FA0EF60CF1F5
:1004F000FF3C48EA0606BCF1010F066011D8866889
:1005000003EA060CCE6806FA0EF64CEA060686608A
:10051000466826EA050CC4F3001696404CEA060627
:100520004660C66803EA060C8B6803FA0EF64CEACE
:100530000603C360E3007DD5424B5E6C46F4804603
:100540005E645B6C22F0030606F1804603F4804390
:1005500006F59C36019302F0030C019BD6F808E0E7
:100560004FEA8C0C0F2303FA0CF32EEA030E364BE2
:10057000984222D003F58063984220D003F580632F
:1005800098421ED003F5806398421CD003F5806327
:1005900098421AD003F58063984218D003F580631F
:1005A000984216D003F58063984214D003F5806317
:1005B00098420CBF082309230EE000230CE001231E
:1005C0000AE0022308E0032306E0042304E00523F5
:1005D00002E0062300E0072303FA0CF343EA0E03CC
:1005E000DFF868E0B360DEF80030EE4314F4803FDB
:1005F00014BF2B433340CEF80030DEF80430DFF870
:100600004CE014F4003F14BF2B433340CEF80430C9
:10061000DEF8083014F4801F14BF2B433340CEF8AB
:100620000830DEF80C30A40254BF06EA03051D436F
:10063000064BDD600132102A7FF42AAF02B0BDE81C
:10064000F08100BF0038024000000240003C014041
:100650000368F7B5DD07044603D4236898074CD434
:100660009DE08C4B9A6802F00C02042A07D09A682D
:1006700002F00C02082A0BD15B68590208D5854BA1
:100680001B689A03E9D56368002BE6D1012069E174
:10069000814D00232B70FFF7DFFE06467D4B1B6864
:1006A0009B0308D5FFF7D8FE41F28833801B9842A0
:1006B000F4D9032056E123792B70636873B1FFF7F7
:1006C000CBFE0546734B1B689F03C6D4FFF7C4FEE1
:1006D00041F28833401B9842F4D9EAE7FFF7BCFEA9
:1006E00005466C4B1B689E03B7D5FFF7B5FE41F27C
:1006F0008833401B9842F4D9DBE7664B9A6812F0C6
:100700000C0F07D09A6802F00C02082A18D15B6817
:10071000580215D45F4A1368990702D5E368012B84
:10072000B4D11168F82393FAA3F3B3FA83F32069E1
:10073000DBB2984021F0F80140EA010313602EE09B
:10074000E268564BEAB101221A60FFF785FE0546C2
:1007500050490B689B0705D4FFF77EFE401B6428B9
:10076000F6D9A6E70A68F82393FAA3F3B3FA83F35A
:100770002069DBB2984022F0F80240EA02030B60E5
:100780000DE01A60FFF768FE0546424B1B689F07A5
:1007900005D5FFF761FE401B6428F6D989E7236879
:1007A0001E0703D423685D074BD51FE062693C4BED
:1007B00072B101221A60FFF74FFE0546354B5B6FA1
:1007C0009807EFD4FFF748FE401B6428F6D970E77E
:1007D0001A60FFF741FE05462E4B5B6F9907E1D586
:1007E000FFF73AFE401B6428F6D962E7294B1A6CE2
:1007F00042F080521A641B6C2A4A03F08053019322
:10080000019B136843F480731360FFF725FE0546D0
:10081000244B1B68DA0517D5234D00232B70FFF7F7
:100820001BFE06461B4B1B6F9B0713D4237A2B70B2
:10083000A368FBB1FFF710FE0546164B1B6F9F0721
:1008400010D5A26992BB72E0FFF706FE401B642838
:10085000DED92EE7FFF700FE41F28833801B984275
:10086000E0D926E7FFF7F8FD41F28833401B9842B4
:10087000E3D91EE7FFF7F0FD0546064B1B6F9E0709
:10088000DFD5FFF7E9FD41F28833401B9842F4D9E8
:100890000FE700BF00380240023802400000474224
:1008A000800E474200700040703802402E4B9B681B
:1008B00003F00C03082B3FF4E9AE2C4D0023022A71
:1008C0002B6042D1FFF7C8FD064627490B68980107
:1008D0002FD447F6C07292FAA2F2B2FA82F24FF423
:1008E000403696FAA6F6B6FA86F64FF0706090FAA1
:1008F000A0F0B0FA80F0E369276A1F43636AD2B2BE
:10090000934047EA0302A36A5B08013BF6B2B34097
:100910001343E26AC0B2824013434B6001232B6051
:10092000FFF79AFD0446104B1B689A0107D500207B
:1009300018E0FFF791FD801B6428C6D9B9E6FFF7E0
:100940008BFD001B6428EED9B3E6FFF785FD044656
:10095000054B1B689B01EAD5FFF77EFD001B642851
:10096000F6D9A6E603B0F0BD003802406000474269
:100970007F4B1A6802F00F02914270B504460D4693
:1009800077D9CAB21A701B6803F00F038B4201D0EB
:10099000012070BD01688B0741BF7648836823F052
:1009A000F002A36844BF13438360CE070BD42168D1
:1009B0004D0740F1CC806F48836823F4E052E36830
:1009C00013438360C3E063686A4A012B03D1126852
:1009D00012F4003F08E0991E0129126802D812F0B3
:1009E000007F01E012F0020FD2D062498A6822F043
:1009F000030213438B60FFF72FFD6368012B05464D
:100A00000ED15C4B9B6803F00C03042BCFD0FFF797
:100A100023FD41F28833401B9842F2D9032070BD78
:100A2000022B0DD1534B9B6803F00C03082BBED057
:100A3000FFF712FD41F28833401B9842F2D9EDE7EF
:100A4000032B10D14B4B9B68FFF706FD41F2883317
:100A5000401B9842F6D9E1E7FFF7FEFC41F28833EC
:100A6000401B9842DAD8434B9B6813F00C0FF3D12C
:100A70009DE70168880741BF3E48836823F0F00284
:100A8000A36844BF13438360CA0709D4384BEAB252
:100A90001A701B6803F00F03AB427FF479AF86E74F
:100AA0006368344A012B03D1126812F4003F08E056
:100AB000991E0129126802D812F0007F01E012F09D
:100AC000020F3FF465AF2B498A6822F003021343FB
:100AD0008B60FFF7C1FC6368012B06460DD1254BE7
:100AE0009B6803F00C03042BD0D0FFF7B5FC41F258
:100AF0008833801B9842F2D990E7022B0DD11D4B11
:100B00009B6803F00C03082BC0D0FFF7A5FC41F253
:100B10008833801B9842F2D980E7032B11D1154B03
:100B20009B68FFF799FC41F28833801B9842F6D905
:100B300074E7FFF791FC41F28833801B98423FF63F
:100B40006DAF0C4B9B6813F00C0FF2D19EE70B07B7
:100B500041BF084A2169936823F4604344BF43EAD4
:100B6000C10393600F2000F055FA002070BD00BF54
:100B7000003C02400038024030B51D4CA36803F031
:100B80000C03042B30D0082B30D16268636802F06C
:100B90003F0513F4800F47F6C071636891FAA1F125
:100BA000B1FA81F147F6C07004BF124AB2FBF5F208
:100BB000C9B200EA030020FA01F01CBF0E49B1FBE4
:100BC000F5F202FB00F30A4A50684FF4403292FA01
:100BD000A2F2B2FA82F2D2B200F44030D040013038
:100BE0004000B3FBF0F030BD034830BD014830BDDC
:100BF000003802400024F40000127A0008B5FFF724
:100C0000BBFF094B9A68F02393FAA3F3B3FA83F37B
:100C100002F0F002DBB222FA03F3044AD35CD840BC
:100C2000034B186008BD00BF00380240048700086D
:100C30008C01002008B5FFF7E1FF084B9A684FF4DC
:100C4000E05393FAA3F3B3FA83F302F4E052DBB276
:100C500022FA03F3024AD35CD84008BD00380240B0
:100C60000487000808B5FFF7C9FF084B9A684FF4DE
:100C7000604393FAA3F3B3FA83F302F46042DBB266
:100C800022FA03F3024AD35CD84008BD0038024080
:100C900004870008704700002E4A0368904212D073
:100CA000B0F1804F0FD0A2F57C4290420BD002F5FC
:100CB0008062904207D002F58062904203D002F534
:100CC0007842904218D14A6823F070031343214AB6
:100CD000904237D0B0F1804F34D01F4A904231D08B
:100CE00002F5806290422DD002F58062904229D0B8
:100CF00002F57842904225D0184A904222D002F55F
:100D0000806290421ED002F5806290421AD0A2F515
:100D10009832904216D002F58062904212D002F5CD
:100D2000806290420ED003608B68C3620B6883625E
:100D3000084B98420BD003F58063984207D00123FB
:100D400043617047CA6823F440731343EBE70B69B0
:100D50000363F4E70000014000040040004001404C
:100D600010B50446A0B190F8393003F0FF021BB96A
:100D700080F83820FFF78EFF022384F8393020688E
:100D8000211DFFF789FF012384F83930002010BDB1
:100D9000012010BD10B50123046A8B4024EA03032F
:100DA0000362036A8A401343036210BD10B5044610
:100DB00001220068FFF7EEFF2368084A934203D040
:100DC00002F58062934203D15A6C42F400425A64A5
:100DD0001A6842F001021A60002010BD00000140B4
:100DE0002DE9F84306683369054623F44052C36889
:100DF0002969C0691343AA683361F36811436A69BA
:100E000023F416430A43024323F00C031343F36015
:100E1000736923F44072AB69B0F5004F43EA0203F3
:100E200073613F4B36D19E4203D003F580639E42EF
:100E300016D1FFF717FF6F68192460437F00B0FBDE
:100E4000F7F7FFF70FFF6A684FF064086043B7FBDE
:100E5000F8F752003F01B0FBF2F9FFF703FF15E08E
:100E6000FFF7E8FE6F68192460437F00B0FBF7F7D7
:100E7000FFF7E0FE6A684FF064086043B7FBF8F7DD
:100E800052003F01B0FBF2F9FFF7D4FE444368681B
:100E9000400034E09E4202D0224B9E4216D1FFF722
:100EA000E1FE6F6819246043BF00B0FBF7F7FFF75E
:100EB000D9FE6A684FF064086043B7FBF8F7920008
:100EC0003F01B0FBF2F9FFF7CDFE15E0FFF7B2FEF0
:100ED0006F6819246043BF00B0FBF7F7FFF7AAFE65
:100EE0006A684FF064086043B7FBF8F792003F016F
:100EF000B0FBF2F9FFF79EFE444368688000B4FB44
:100F0000F0F0B0FBF8F008FB109212013232B2FBA5
:100F1000F8F303F00F033B43B360BDE8F88300BF71
:100F20000010014000140140704710B5044630B372
:100F300090F8393003F0FF021BB980F83820FFF732
:100F4000F3FF2268022384F83930D36823F4005376
:100F5000D3602046FFF744FF23681A6922F49042C9
:100F60001A615A6922F02A025A61DA6842F4005280
:100F7000DA6000200123E06384F8393010BD0120DD
:100F800010BD000010B50C4CA268A468B4F1006F4D
:100F900013460CD1131F094A53F8044F42F8044F6B
:100FA000074CA242F8D1044A4FF00053936010302E
:100FB00043F8201010BD00BF00ED00E0FCFFFF1F54
:100FC0008401002038B5114B1A68D16811F0020F66
:100FD0001C4604D06FF00203136100F0C3FC2368C9
:100FE000DA68520711D56FF00402094D1A615C6A84
:100FF0002B68E31AB3F57A7F07D3FFF725FA034B83
:101000002C601B6804F57A729A6338BDFC020020DC
:10101000F8020020264B37B51A6C264C254842F0C2
:1010200008021A641A6C02F008020192019A1A6A04
:1010300042F008021A621A6A22F008021A62A3F544
:101040000B3323604FF0FF33E3601B4B1B4A1B68DD
:1010500093420EBF0F231A4AB3FBF2F34FF0000581
:1010600018BF03F1FF3363602561A5606561FFF779
:1010700077FE32201349FFF785FF134B0D484FF4DD
:1010800080225A602946FFF791FE04210948FFF7A4
:101090008DFE23680D495A6A0A6002F57A729A63D6
:1010A000DA68284642F00402DA6003B030BD00BFBF
:1010B00000380240FC0200208C0100200024F400D3
:1010C00080841E00C50F000800E100E0F802002047
:1010D000174A1849936803F00C03042B03D0082B1C
:1010E00003D0154B18E0154B16E05068536810F408
:1010F000800F03F03F03506814BF104A0E4AB2FB42
:10110000F3F30B4A5268C2F30142C0F38810013274
:1011100043435200B3FBF2F30B60054B084A9B6854
:10112000C3F30313D25C0B68D3400B60704700BF5E
:10113000003802408C0100200024F40000127A00E4
:1011400014870008214B30B51A6C42F080521A64A3
:101150001B6C95B003F080530193019B1C4B1A68E4
:1011600022F480421A601B6803F480430293029BBE
:101170000123089300B1052309934FF480030F93D3
:10118000082310934FF4A87302250024119308A894
:1011900007230B940E9512951393FFF759FA88B90C
:1011A0000F2303934FF4A0530590069303A84FF425
:1011B0008053052104950793FFF7DAFBB0FA80F01E
:1011C000400900E0204615B030BD00BF00380240A5
:1011D00000700040204B30B51A6C42F080521A6407
:1011E0001B6C95B003F080530193019B1B4B1A6855
:1011F00022F480421A601B6803F480430293029B2E
:101200000323089301230B9310230C9310934FF4A3
:10121000A87300240225119308A8072309940E95AA
:101220000F9412951393FFF713FA88B90F230393C2
:101230004FF4A0530590069303A84FF48053052163
:1012400004950793FFF794FBB0FA80F0400900E0A3
:10125000204615B030BD00BF00380240007000408D
:1012600008B50120FFF76EFF30B9FFF76BFF18B923
:10127000FFF7B0FF00B9FEE708BD0000184AD2F83A
:10128000883010B543F47003164CC2F888302368D8
:10129000002143F001032360A160236823F08473DD
:1012A00023F480332360104B6360236823F480238E
:1012B00023604FF00063E16093600C4B0C4A1A60AE
:1012C000FFF7ACF8FFF7CCFFFFF702FF236A43F00C
:1012D00008032362236A23F00803236210BD00BFC2
:1012E00000ED00E000380240103000248C010020A6
:1012F0000024F40010B50021044604F00F0400F0AF
:10130000BFF80120A04010BD70B504464B1C0E462E
:1013100021800DD0C1F3031000F01EF805463046C1
:10132000FFF7E8FF05F1100318356060A360E56082
:1013300070BDB0F9000000F0C5B80129B0F9000097
:1013400018BF002100F09CB808B5FFF7C1FEBDE84A
:101350000840FFF763B8000000B58BB0082872D8CA
:10136000DFE800F005111D2935414D596500394B65
:1013700039481A6B42F001021A631B6B03F0010338
:101380000193019B63E0334B34481A6B42F0020235
:101390001A631B6B03F002030293029B57E02D4B71
:1013A0002F481A6B42F004021A631B6B03F004030C
:1013B0000393039B4BE0274B2A481A6B42F0080229
:1013C0001A631B6B03F008030493049B3FE0214B5B
:1013D00025481A6B42F010021A631B6B03F01003CE
:1013E0000593059B33E01B4B20481A6B42F020020B
:1013F0001A631B6B03F020030693069B27E0154B33
:101400001B481A6B42F040021A631B6B03F0400347
:101410000793079B1BE00F4B16481A6B42F08002A4
:101420001A631B6B03F080030893089B0FE0094BC2
:1014300011481A6B42F480721A631B6B03F48073B9
:101440000993099B03E00D4800F0AAF900200BB0B6
:101450005DF804FB00380240000002400004024036
:1014600000080240000C024000100240001402403C
:1014700000180240001C024000200240248700089F
:1014800030B5054687B0C0F303100C4605F00F05D4
:10149000FFF762FF0123AB4004F00F020193084BFA
:1014A00053F822300293C4F302130393C4F3C3141A
:1014B000032301A904930594FEF7E6FF07B030BDAE
:1014C0004887000838B500F00F05C0F303100C463C
:1014D000FFF742FF6B00C16803229A4021EA020233
:1014E000032CC260C16828BF00249C400C43C46028
:1014F00038BD000008B5124B02681A6082685A6055
:10150000C2689A600269DA6042691A6100229A61CF
:10151000B0F91A20013201D1082205E0B0F91820F3
:1015200001320CBF04220C2205485A61FFF7FDFC72
:1015300020B10448BDE8084000F032B908BD00BF42
:101540003C0300207C870008F0B5044687B00846BD
:101550000E465149154600F08BF95049074628467A
:1015600000F086F90146384600F064F94C4B2060E3
:10157000984243D013D8A3F50063984232D003F5C4
:101580008063984252D1474B1A6C42F480221A640D
:101590001B6C03F480230293029B022345E0424B21
:1015A000984213D003F58063984233D0A3F54443A7
:1015B00098423BD13B4B1A6C42F480121A641B6C6C
:1015C00003F480130493049B04232EE0354B5A6CE0
:1015D00042F010025A645B6C03F010030093009B0E
:1015E000002322E02F4B1A6C42F400321A641B6C69
:1015F00003F400330193019B012316E0294B1A6C7D
:1016000042F400221A641B6C03F400230393039B2F
:1016100003230AE0234B5A6C42F020025A645B6CAD
:1016200003F020030593059B0523636030461A49A8
:1016300000F0E2F82846194900F0DEF8721C03D0E9
:1016400030460121FFF73EFF6B1C03D028460121E5
:10165000FFF738FF4FF41653A3600023E3602361C4
:101660006361268365832046FFF744FF22680F4BA2
:101670009A420FD10E4B01221A600E4B04F118054D
:10168000206861681A4603C20834AC421346F7D199
:101690002068106007B0F0BDDC8700089487000860
:1016A000004C00400038024000100140001401408E
:1016B000380300207C0300200368034A1868136085
:1016C000C0F34010704700BF3C03002038B50568E8
:1016D00004462046FFF7F0FF0028FAD06868C0F300
:1016E000080038BD0368034A18681360C0F3C010CF
:1016F000704700BF3C03002070B5066805460C46E5
:101700002846FFF7EFFF0028FAD0C4F308047460FE
:1017100070BD0000054B186830B901221A60044BF7
:10172000044A1A60FFF776BC704700BFD40300205C
:1017300098030020000C004008B5044B1B680BB94F
:10174000FFF7E8FF024B586A08BD00BFD403002032
:10175000000C0040034B1B685863DA6842F0020239
:10176000DA60704798030020034B1A68D36823F0AF
:101770000203D360704700BF98030020024B1B6830
:101780006FF002021A6170479803002008B572B624
:10179000962000F0F8F8962000F0F5F8F8E7000041
:1017A0000FB407B5054B04AA1B6852F8041BD86890
:1017B000019202F093FB012001F054FF840200200B
:1017C00070B50E4604461546FFF79EFD01360ED055
:1017D000E168636805B91B0420460B600121FFF72F
:1017E000ACFD20460021BDE87040FFF7A2BD70BDF2
:1017F0000022FFF7E5BF000010B50446013001D11B
:1018000010BD0C31B1F900305A1C0BD0A342F8D1F5
:1018100020468968FFF734FE20460021BDE81040CD
:10182000FFF750BE0248BDE81040FFF7B9BF00BF48
:1018300024880008884208B50AD0431C07D001312B
:1018400006D00448FFF7ACFF4FF0FF3008BD084654
:1018500008BD00BF35880008B1F900305A1C05D01A
:10186000834201D1486870470C31F5E7184670474C
:10187000421C10B5044607D0FFF7EEFF431C044698
:1018800002D10248FFF78CFF204610BD46880008B1
:1018900038B5036804461B680D46984763681D60A9
:1018A00038BD036870B5DB680446984763685A68BA
:1018B00023681AB99B68BDE8704018475B681568D3
:1018C0009847281A0028636808DC5A6891685960AC
:1018D0001B68002BEAD050689847E7E721685A68F0
:1018E0000B691068BDE87040184770B50D4672B6B8
:1018F0004668746881E80C00002334B12168511AED
:10190000002902DB2346A468F7E72BB9036875605A
:101910001B691046984700E09D60AC6062B670BDE0
:1019200008B572B6426853688B420BD19B6853600E
:10193000026813B9936898470AE0126918689047DB
:1019400006E0134623B19A688A42FAD18A689A60FF
:1019500062B608BD03685B6818470000004870471E
:10196000988800080148FFF79CBF00BF98880008CE
:1019700038B50446FFF7E0FE0546FFF7DDFE401BE5
:10198000A042FAD338BD4FF47A735843FFF7F0BF43
:10199000436AF0B5C46A23F0030323445A0748BFDF
:1019A000043B4FF0807203E90600A3F14005A3F168
:1019B0004402A3F10C06002742F8047FB242FAD198
:1019C000C26943F8202CC3788562012B18BF024BF3
:1019D000016318BF2360F0BDA52E5AE290F82020C5
:1019E000836A0AB1603300E020331960704710B594
:1019F00090F82040836A0CB1603300E0203383E824
:101A0000060010BDFEE7FFF7C1BE08B1FFF7BEBE7E
:101A1000704700000449054AC1F1005303F5FE3345
:101A20009360D160704700BFC81200209001002071
:101A30000020002104460D46094801F0F8FD01F0A0
:101A4000C1FF2046294600F073F8FFF7E3FF054881
:101A5000002100F009F900F07FF801F003FE00001A
:101A6000613900089001002038B1830704D1037860
:101A7000002B18BF002070470020704700B5DFF82A
:101A80000CC000DFDFF808C000DFFEE7351C0008EF
:101A90004D1C00080B4A136830B5002433B11D8972
:101AA000A94203D31C46491B1B68F7E789B20360B0
:101AB000018113B11D89691A19810CB1206030BDF3
:101AC000106030BDCC0E0020431C11D00B4B98424F
:101AD00011D80B4B1B684FF47A715A1E01FB002082
:101AE000B0FBF3F04FF6FE73984228BF18467047DC
:101AF0004FF6FF7070474FF6FE70704700093D00CB
:101B0000A488000838B5084C257855B900F0E6FDE2
:101B1000064B1B68FF229A702846FFF776FF0123C9
:101B20002370002038BD00BFC80E0020140F002015
:101B300010B5EFF305845CB9EFF31484E40703D424
:101B4000BDE81040FFF7DEBFDFF808C000DF10BDC2
:101B5000822010BD051B000810B588B0EFF3058486
:101B600034BBEFF3148404F00304022C0CD0032CD8
:101B700016D0012C1ED008AC84F309880F4C2478B1
:101B8000E40705D5022404E00C4C2478E4070BD4C8
:101B9000032484F31488BFF34F8FBFF36F8F03E0E8
:101BA000064C2478E40705D4DFF814C000DF02E017
:101BB000822000E0FF2008B010BD00BFA28800080E
:101BC0005D1D00082DE9F8438946044650B10368BD
:101BD00043B18588EB1C9BB2062B03D883680BB1FD
:101BE000C2682AB98020FFF710FF0020BDE8F88303
:101BF0004363C26300F1100600F08AFC0B4F00F152
:101C0000FF38291D47F82860C9B22268E074C4F87B
:101C10002C90304600F08EFC304600F0A9FC57F8BE
:101C20002800034A836A5A63BDE8F883640C0020E5
:101C30007D1A000808B500F0D7FC18B10138024B36
:101C400053F8200008BD00BF640C002008B5FFF762
:101C50000BFF38B1C07800F009FDFF280CBF8120D0
:101C6000002008BD802008BD70B505460C46EFF386
:101C7000058686B9EFF31486F60706D4074E367844
:101C80001EB9BDE87040FFF79DBF28462146DFF82A
:101C900010C000DF70BD002070BD00BFD00E00205E
:101CA000C51B0008830704D128B10369C1681B68FC
:101CB00003E0002300E00346194618467047000081
:101CC000F8B5134B1C681F460CB32389013B2381D5
:101CD0002389E3B90F4B26681D683E6055B12B7808
:101CE000012B07D1284600F05DFA18B1284621469D
:101CF00000F05CFA6379012B04D120466189FFF77B
:101D0000C9FE01E0012323710EB13446E0E7F8BDBE
:101D1000CC0E0020C40E002010B504460846DFF8A3
:101D20000CC000DF84E80300204610BDA51C00089D
:101D300010B5044618B1016809B1406820B9802087
:101D4000FFF763FE002010BD0378002BF7D10431AC
:101D5000890089B200F0C6F9606810BD38B5104D31
:101D60002C78D4B921460F48FFF7E2FF0E4B2146ED
:101D700018600E48FFF726FF0D4B214618602046DD
:101D800000F03AFC0B4A13689B6A203383F30988FE
:101D9000146000F011FD01232B70002038BD00BF3E
:101DA000D00E0020D4010020C40E0020DC01002051
:101DB000C00E0020140F00202DE9F04F0C4685B016
:101DC0008046E8B10378012B1FD10846FFF77CFE5F
:101DD00002A982B2404600F093F9012806D1002002
:101DE000002C0246034618BF402003E000200246B4
:101DF00003461020029904460D4616461F4608E089
:101E0000802405460646074603E0002580242E462A
:101E10002F462046294632463B4605B0BDE8F08FA6
:101E20007FB5044616460846EFF30581A9B101AD1A
:101E300000B10AB180230AE00378012BFAD102A98C
:101E400000F0BBF9042801D0019601E010230193B2
:101E500095E8070084E8070005E01146DFF80CC0AC
:101E600000DF84E80700204604B070BDB91D0008FB
:101E70007FB50A4B03A819684FF0FF32FFF7D0FF78
:101E8000039B102BF5D101A80499FFF745FF019B97
:101E9000002BEED002989847EBE700BFC40E00205D
:101EA00010B5038B42781943062A04460183438BFD
:101EB00004D101EA03029A4219D105E0052A16D19C
:101EC00011EA030213D0428321EA03012183204651
:101ED00000F0D4F80123204663700821628BFFF7DD
:101EE00086FD21460248BDE8104000F003B810BD51
:101EF000EC0E002030B502788C784368013AD2B2FB
:101F00002BB19D78A54202D318465B68F8E7022AF8
:101F10004B60416003D803B19960886030BD0023F5
:101F20008B6030BD02784368013A59684160022AEB
:101F30004FF0000204D809B188605A609A6000E04E
:101F40005A60184670470000034B5A6842600022EE
:101F500082605860704700BFEC0E0020114BDA68B9
:101F600010B50AB19A8A0CE000248A1AC460D860BD
:101F700003619A82848210BD002CF5D0A38A1A4492
:101F800023468A42DC68F7D3C460D860C468036122
:101F900004B12061521A92B28282998A8A1A9A8274
:101FA00010BD00BFD40E002038B5194DEB68002BD2
:101FB0002CD0AB8A013BAB82AA8A002A26D1144BD3
:101FC000DC681CB3A3683BB161685960616809B102
:101FD0008B6062600023A3600E482146FFF78AFFF2
:101FE000A38AAB826378042B01BF0B4B1A68E38A88
:101FF0009B1808BFA38201236370E368EB60002293
:1020000013B103491961E2602261D5E738BD00BF11
:10201000D40E0020EC0E0020500F0020836853B92E
:10202000084B5A68824202D142685A607047134690
:10203000002AF6D1704742685A60426802B1936044
:10204000704700BFEC0E002038B58468054624B9FF
:102050004378012B0ED1084C03E023780BB9A46818
:10206000FBE72846FFF7DAFF20462946BDE838405F
:10207000FFF740BF38BD00BFEC0E0020036910B56C
:1020800073B1C268DA60C2683AB1998A848A21441D
:10209000998213610023C36000E09A8200230361E8
:1020A00010BD000030B50E4BDD78EFF3108272B634
:1020B0009A78AA4207D201329A701A78541CAC421C
:1020C00008BF00241C7062B6AA4204D203EBC2030C
:1020D0005860996030BD0220BDE83040FFF793BCE6
:1020E000E00B00200123103903708908002343709E
:1020F00083704360038143818381C1817047000005
:1021000070B5858904461646002D34D043891A1DC2
:10211000013350F822200A60C2899BB29A4243815F
:1021200004BF002343814368EBB14378022B1AD1EB
:10213000FFF7F8FE00210546FFF750FC2389E96907
:102140001A1D013344F82210E2899BB29A4223817E
:1021500008BF0023284608BF2381FFF78FFF2846CA
:1021600000F006FA05E0EFF3108372B6013DA58199
:1021700062B6002070BD82B14268094B1AB119687D
:10218000FFF7B8FE05E01B6843605A6098600123C2
:1021900043703046082100F00DFA012070BD00BFE9
:1021A000140F0020C2898089101A704708B5FFF704
:1021B00079FFBDE8084000F005B9838910B50446F1
:1021C000EBB14389043350F823300B604378022B82
:1021D00004D10021FFF766FF00F0F4F8EFF310835D
:1021E00072B6A389013BA38162B66389E289013398
:1021F0009BB29A42638104D10023638101E01846B7
:1022000010BD042010BD0000426870B504460E46A3
:10221000002A4AD04578022D1CD0032D0AD0012D6A
:102220005DD1FFF77FFE044610213246FFF7DFFB4A
:10223000657034E0084600F055F8054600284ED099
:102240002046FFF76FFE29460446FFF7C7FB012330
:10225000637024E0FFF766FE00210546FFF7BEFB32
:102260002389E9691A1D44F82210EFF3108272B62F
:10227000A2890132A28162B6E28901339BB29A42FD
:10228000238104BF00232381012328466B70FFF7BD
:10229000F5FE13482946BDE87040FFF72BBE2046E7
:1022A000FFF7ECFE0E482146F5E78189C08981429F
:1022B00010D223891D1D44F82560EFF3108572B6F6
:1022C0000131A18162B601339BB2834214BF2381E5
:1022D000228170BD0320BDE87040FFF794BB70BD44
:1022E000EC0E0020EFF3108372B6026803F00103D6
:1022F0000AB11168016003B962B6104670478142A5
:102300000DD3436899420AD2EFF3108372B6026884
:102310000A60016013F0010003D162B6704701202A
:102320007047002070470000034B00221A60034AE8
:102330001268DA80704700BF040F0020B0880008E0
:1023400008B5104B10485A68104B196891421FBFCE
:102350001A60DA8802F1FF3102681CBF52189A80B5
:102360009A8803889A420BD1084B064800221A60CB
:10237000FFF7D8FDBDE8084001460248FFF7BABDA7
:1023800008BD00BFEC0E0020500F0020040F0020FD
:10239000426810B57AB1FFF7C5FD0446FFF76EFE3F
:1023A000012161702046FFF719FB21460448BDE872
:1023B0001040FFF79FBD42880132428010BD00BF30
:1023C000EC0E0020054B1B7823B9054B4FF08052D3
:1023D0001A607047034B01221A707047110F0020DA
:1023E00004ED00E0100F002038B5184B184D1868A8
:1023F00001234370FFF7A8FD6C78AA78144BEAB16B
:1024000003EBC403586802781AB91989FFF748FD2D
:1024100007E0012A03D19968FFF7F6FE01E0FFF714
:10242000B7FFEB7801349C4208BF0024EFF3108320
:1024300072B6AB78013BAB7062B6DEE75C70054804
:10244000FFF770FDBDE8384000F08AB8140F002097
:10245000E00B0020EC0E0020084B1A68084B1A60B5
:1024600000225A60072243F8042C064A136843F0FE
:102470007F4313604FF0FF30704700BFAC88000807
:1024800014E000E020ED00E07047000008B50B4BC1
:10249000186801234370FFF757FDFFF751FF084A03
:1024A000136801331360FFF77FFDFFF709FC054850
:1024B000FFF738FDBDE8084000F052B8140F0020C7
:1024C000500F0020EC0E0020084B1B68DA78012A20
:1024D0000AD0DA6A9B6A9A4203D81268044B9A427D
:1024E00002D00120FFF78FBA704700BF140F002001
:1024F000A52E5AE208B50448FFF714FD034B5860B7
:102500000223437008BD00BFEC0E0020140F002012
:10251000064B1A88064B0120904204D853F8041F3A
:1025200011B10130F8E70020704700BFA088000813
:10253000600C002030B500240125047045708170C6
:1025400044608460C46004618482C48204834483E0
:1025500080F820401146BDE83040FFF719BA00006E
:10256000024B586002234370704700BF140F0020D5
:1025700070B5044618B9BDE87040FFF7BBBF0B4DFE
:10258000A278286883789A424FF0010607D9FFF7AE
:10259000DBFC2B685E7002236C60637070BD66703C
:1025A00021460348BDE87040FFF7A4BC140F00208B
:1025B000EC0E002038B50D46014678B14FF6FF739A
:1025C0009842074C02D02068FFF7C8FC23680548F2
:1025D0005D70FFF7A7FC02236060437038BD00BF49
:1025E000140F0020EC0E0020024B186800B1C078D8
:1025F000704700BF140F002010B588B9174B1B6837
:102600009970174843689B788B4222D9134C2168F4
:10261000FFF770FC236801225A70FFF76BFF18E088
:10262000104B1B88984216D801380F4B53F82040A6
:102630008CB10A4BA1701B689C42E2D02046FFF788
:1026400003FD6378012B04D10548FFF76BFCFFF70E
:102650008FFF002010BDFF2010BD00BF140F002011
:10266000EC0E0020A0880008640C002070B5184D06
:1026700018B12B68DB78984213D12E68002474704F
:10268000FDF715FEB062FFF71FFF2A681149D378E6
:102690002C60013B41F82340D462FFF72BFF20461A
:1026A00070BD0D4B1B8898420FD8441E094E56F83A
:1026B000245055B12846FFF7B1FC2846FFF7DEFC51
:1026C000002046F82400E86270BDFF2070BD00BF06
:1026D000140F0020640C0020A088000810B5284BBF
:1026E0001A880023934205D22649002041F823008E
:1026F0000133F7E7244C254AFF23E370244B1B8862
:1027000063622046234BE3620021FFF713FF224A56
:102710000023042111705360204A1170D3601361AB
:1027200093821F4A1460022262701E4A1370537013
:102730001D4B1B78D370FFF7F7FD1C4B1A6842F452
:102740007F021A601B681B0203F07F43DB43B3FA6E
:1027500083F3174A17481268DBB2C3F10803C2F3C8
:1027600002229A42A8BF531C6FF08071026801FADE
:1027700003F303F07F4122F07F430B43036010BD5E
:10278000A0880008640C00201C0F0020051A000817
:10279000A8880008C00C0020EC0E0020D40E0020F9
:1027A000140F0020E00B0020AA88000820ED00E0B4
:1027B0000CED00E01CED00E008B5FFF74DFE0C4B02
:1027C0000028186012DB00F1604000F56440FF2231
:1027D00002701A6853119B0003F1604303F56143D3
:1027E00002F01F02012101FA02F21A6008BD00BFC7
:1027F0000C0F0020014800F0EFBB00BF850F002048
:1028000010B5054B0360044600F0CFFD204600F0F4
:1028100007FE204610BD00BFD088000810B5044652
:10282000FFF7EEFF204600F0E0FE204610BD00005E
:1028300010B5124800F0AEFB1148104900F042F804
:102840001048114B83610024C462104900F0B5FDAB
:102850000B4807212246234600F06EFA01210A4662
:102860000748234600F04EF905480321022223467B
:1028700000F02EF8014800F06DFCFBE7850F00200A
:10288000840F0020540F0020F527000820A1070026
:1028900010B5084C204600F0A3FD074B2360002331
:1028A000A361E36220460549054ABDE8104000F0F7
:1028B00097BE00BF540F0020D088000801280008F0
:1028C00088010020014B1960704700BF880F00206D
:1028D0002DE9F74F22EAE272052AA8BF052208294E
:1028E000A8BF0821022B21EAE17603DC002BB8BF48
:1028F000012300E0022302EB42025700804CFFB2AA
:10290000DB00F6B2DDB207F1010A5FFA8AFA20684D
:1029100039462A46334607F102095FFA89F900F081
:10292000E7FB07F10308206851462A4633465FFA61
:1029300088F800F0DDFB206849462A46334600F05F
:10294000D7FB206841462A46334600F0D1FB3B1DA9
:10295000DBB205F1010B5FFA8BFB0193206819468E
:102960002A46334600F0C4FB206839465A463346AF
:1029700000F0BEFB206851465A46002300F0B8FB29
:10298000206849465A46002300F0B2FB20684146C1
:102990005A46002300F0ACFB5A4605F1020B5FFAE1
:1029A0008BFB20680199334600F0A2FB2068394672
:1029B0005A46334600F09CFB206851465A46002395
:1029C00000F096FB206849465A46002300F090FB31
:1029D000206841465A46002300F08AFB5A4605F11A
:1029E000030B5FFA8BFB20680199334600F080FBF4
:1029F000206839465A46334600F07AFB2068514633
:102A00005A46002300F074FB206849465A460023CA
:102A100000F06EFB206841465A46002300F068FB38
:102A20005A4605F1040B5FFA8BFB20680199334687
:102A300000F05EFB206839465A46334600F058FBEA
:102A4000206851465A46002300F052FB2068494650
:102A50005A46002300F04CFB206841465A460023AA
:102A600000F046FB5A4605F1050B5FFA8BFB206828
:102A70000199334600F03CFB206839465A463346FC
:102A800000F036FB206851465A46002300F030FB28
:102A9000206849465A46002300F02AFB0635206884
:102AA00041465A46002300F023FBEDB2206801990D
:102AB0005A46334600F01CFB206839462A46334606
:102AC00000F016FB206851462A46334600F010FB02
:102AD000206849462A46334600F00AFB20684146F2
:102AE0002A46334600F004FB206801992A46334603
:102AF00000F0FEFA206803B0BDE8F04F00F02ABBFA
:102B0000880F00202DE9F74F22EAE272052AA8BFBC
:102B100005220829A8BF0821022B21EAE17603DC5F
:102B2000002BB8BF012300E0022302EB4202570052
:102B3000804CFFB2DB00F6B2DDB207F1010A5FFAAA
:102B40008AFA206839462A46334607F102095FFAB5
:102B500089F900F0CDFA07F10308206851462A46AA
:102B600033465FFA88F800F0C3FA206849462A46DF
:102B7000334600F0BDFA206841462A46334600F04D
:102B8000B7FA3B1DDBB205F1010B5FFA8BFB01933A
:102B9000206819462A46334600F0AAFA20683946CA
:102BA0005A46002300F0A4FA206851465A460023F2
:102BB00000F09EFA206849465A46002300F098FA31
:102BC000206841465A46002300F092FA5A4605F121
:102BD000020B5FFA8BFB20680199334600F088FAFC
:102BE000206839465A46002300F082FA2068514690
:102BF0005A46002300F07CFA206849465A460023D2
:102C000000F076FA206841465A46002300F070FA38
:102C10005A4605F1030B5FFA8BFB20680199334696
:102C200000F066FA206839465A46334600F060FAEA
:102C3000206851465A46334600F05AFA2068494601
:102C40005A46334600F054FA206841465A46334605
:102C500000F04EFA5A4605F1040B5FFA8BFB206830
:102C60000199334600F044FA206839465A46334603
:102C700000F03EFA206851465A46002300F038FA28
:102C8000206849465A46002300F032FA206841463F
:102C90005A46002300F02CFA5A4605F1050B5FFA5C
:102CA0008BFB20680199002300F022FA2068394646
:102CB0005A46334600F01CFA206851465A46002313
:102CC00000F016FA206849465A46002300F010FA30
:102CD0000635206841465A46002300F009FAEDB255
:102CE000206801995A46002300F002FA206839460C
:102CF0002A46334600F0FCF9206851462A463346FE
:102D000000F0F6F9206849462A46334600F0F0F90B
:102D1000206841462A46334600F0EAF920680199C6
:102D20002A46334600F0E4F9206803B0BDE8F04FCE
:102D300000F010BA880F00202DE9F74F22EAE27266
:102D4000052AA8BF05220829A8BF0821022B21EACD
:102D5000E17703DC002BB8BF012300E0022302EB84
:102D600042025600804CF6B2DB00FFB2DDB206F143
:102D7000010A5FFA8AFA206831462A463B4606F184
:102D800002095FFA89F900F0B3F906F10308206837
:102D900051462A4600235FFA88F800F0A9F9206816
:102DA00049462A46002300F0A3F9206841462A46F6
:102DB000002300F09DF9331DDBB205F1010B5FFA32
:102DC0008BFB0193206819462A463B4600F090F998
:102DD000206831465A463B4600F08AF92068514641
:102DE0005A46002300F084F9206849465A460023D9
:102DF00000F07EF9206841465A46002300F078F939
:102E00005A4605F1020B5FFA8BFB206801993B469D
:102E100000F06EF9206831465A463B4600F068F9EA
:102E2000206851465A46002300F062F9206849465E
:102E30005A46002300F05CF9206841465A460023B8
:102E400000F056F95A4605F1030B5FFA8BFB206838
:102E500001993B4600F04CF9206831465A463B4602
:102E600000F046F9206851465A463B4600F040F9CA
:102E7000206849465A463B4600F03AF920684146E8
:102E80005A463B4600F034F95A4605F1040B5FFA06
:102E90008BFB206801993B4600F02AF920683146F7
:102EA0005A46002300F024F9206851465A46002370
:102EB00000F01EF9206849465A46002300F018F930
:102EC000206841465A46002300F012F95A4605F19F
:102ED000050B5FFA8BFB206801993B4600F008F96F
:102EE000206831465A46002300F002F92068514616
:102EF0005A46002300F0FCF8206849465A46002351
:102F000000F0F6F80635206841465A46002300F0E6
:102F1000EFF8EDB2206801995A463B4600F0E8F818
:102F2000206831462A46002300F0E2F82068514626
:102F30002A46002300F0DCF8206849462A46002390
:102F400000F0D6F8206841462A46002300F0D0F869
:102F5000206801992A463B4600F0CAF8206803B071
:102F6000BDE8F04F00F0F6B8880F0020C268436853
:102F700001B91B041360704738B5102204460D4692
:102F8000002100F0D8FD20462946FEF731FC2046FE
:102F900038BD000008B50B4B0B48DA685B681B04B2
:102FA00013600A4BDA685B681B041360084BDA682D
:102FB0005B681360002100F0DCF9064B00221A6008
:102FC00008BD00BF8C100020C01000205C10002045
:102FD000081100209C100020F0B51B4B93F8BA603C
:102FE00093F8BB5093F8BC40A3F1BA0019461A46B7
:102FF00091F8B47081F8BA7091F8B57081F8BB702F
:1030000091F8B67081F8BC7006398142F0D15570E4
:10301000947092F8BD5092F8BE4092F8BF101670AE
:1030200093F8B76083F8BD6093F8B86083F8BE602A
:1030300093F8B96083F8BF60063B8342F0D1D57046
:1030400014715171F0BD00BF9C0F002070B51E4877
:103050000C460125C1F10701A54000F08AF91B4C7F
:1030600004F1C00614F8011C19482940FFF77EFF3F
:10307000217818482940FFF779FF617816482940E0
:10308000FFF774FFA17815482940FFF76FFFE1783B
:1030900013482940FFF76AFF217912482940FFF7BA
:1030A00065FF114BDA68596811605B6806341B04D0
:1030B000B4421360D6D10D4BDA68596811605B6871
:1030C0001B04136070BD00BFC01000209D0F0020C6
:1030D000A0100020181100206C100020B01000205B
:1030E0008C0F00207C1000208C1000205C10002031
:1030F000F0B5C2F3C000440006267143204402F03C
:103100000702134D01EB000EC2F1070201249440A7
:1031100015F80E60E443E4B204EA0607C3F3800640
:1031200096403E44471C05F80E600F440230EE5DA9
:1031300004EA060EC3F3400696407644EE55084472
:1031400003F00103295C93400C4023442B54F0BD51
:103150009C0F002070B5064600240A4DEB686A6893
:103160001A60E1B23046FFF771FF6B68EA681B0432
:1031700013604FF4FA700134FEF7FAFB082CECD11F
:1031800070BD00BF0811002010B5214C8EB04FF06B
:10319000FF330093019302930393049305930693E3
:1031A0000793089309930A930B930C9320461723D4
:1031B00016211F2200F060F8164A1749204600F039
:1031C0000FFA0F211548FFF7D7FE1E211448FFF70D
:1031D000D3FE15211348FFF7CFFE3B211248FFF71E
:1031E000CBFE3C211148FFF7C7FE33211048FFF703
:1031F000C3FE36210F48FFF7BFFE3D210E48FFF703
:10320000BBFE08210D48FFF7B7FE0EB010BD00BF92
:10321000C010002088010020413200088C100020DE
:103220005C10002008110020A0100020B010002029
:10323000181100208C0F00206C1000207C10002042
:10324000074B70B504460360054600F1400655F88B
:10325000040F08B100F0C9F9B542F8D1204670BD9D
:10326000C088000810B50446FFF7EAFF204600F0CA
:10327000BCF9204610BD00002DE9F04188B005469C
:10328000ADF80430BDF93830ADF80630BDF93C304A
:10329000ADF80830BDF94030ADF80A30BDF9443022
:1032A000ADF80C30BDF94830ADF80E30BDF94C30FA
:1032B000ADF81030BDF95030ADF81230BDF95430D2
:1032C000ADF81430BDF95830ADF81630BDF95C30AA
:1032D000ADF81830BDF96030ADF81A30BDF9643082
:1032E0001948ADF81C300024BDF968302860ADF8ED
:1032F0000010ADF80220ADF81E306C64A8463DF910
:1033000014707B1C0CD0102000F071F900210646CF
:10331000102200F010FC30463946FEF769FA00E052
:10332000002601371CBF01236A6C48F8046F1CBFDC
:10333000A340134304F1010418BF6B64102CDED1C9
:10334000284608B0BDE8F081C088000810B5012308
:1033500050F823205C1E42B141FA04F414F0010F2E
:10336000D468526808BF120422600133112BEFD1D8
:1033700010BD10B50446FFF7E9FF204610BD4368B5
:10338000416910B50446194400F03EF8E36A23B9D8
:10339000A3694BB1BDE810401847A06920B104F102
:1033A0001C01BDE81040184710BD10B5044600F0E0
:1033B00031F80023A361E36210BD38B505460C4621
:1033C00000F028F86C612869FEF7C4FA0119284654
:1033D000BDE8384000F018B803689B681847000043
:1033E000074B10B50360002343608360C36004464D
:1033F000FEF7B4FA03492061FEF74AFA204610BDF1
:10340000E8880008D933000803460A460069191DF8
:10341000FEF76BBA014604310069FEF781BA00007D
:1034200010B5034B03600446FFF7F4FF204610BDC0
:10343000E8880008044B1B6823B90448262127228A
:10344000FEF782B8704700BF380300207C030020DD
:1034500002284FF0000309DDC21E074951F822007F
:1034600041F8223020B103685B681847184670475E
:103470004FF0FF30704700BF28110020022870B5C0
:103480000C4615460FDC0E4B1B680BB9FFF7D2FF3D
:103490006619B44205D00B4814F8011BFEF72CF94D
:1034A000F7E7284670BD0338074B53F8200020B1DA
:1034B0000368BDE870401B6818474FF0FF3070BDCF
:1034C000380300207C03002028110020022810B5BA
:1034D0000C460ADC0B4B1B680BB9FFF7ABFF0A4825
:1034E000FEF7F4F82070012010BD0338074B53F8A5
:1034F000200020B10368BDE810409B6818474FF0DA
:10350000FF3010BD380300207C030020281100206C
:10351000022807DD0338064B53F8200020B103686A
:10352000DB681847012070474FF0FF30704700BF3D
:1035300028110020022807DD0338064B53F820002D
:1035400020B103681B691847002070474FF0FF3017
:10355000704700BF28110020022808B504D84FF496
:1035600000534B60002008BD00F076F8092303608B
:103570004FF0FF3008BD08B5012000F073F8704728
:1035800008B5FDF7E1FEFFF7FAFFBDE80840FFF7D9
:103590004FB90000074A13681844EFF308818842C6
:1035A00029BF054B10600C224FF0FF302CBF1A6072
:1035B0001846704720020020C4120020074C08B5AE
:1035C00023680546986800F00FF92368D86800F072
:1035D0000BF90DB1FEF7DAF8FEE700BF8402002018
:1035E00003460846194600F029B800F067BA10B53E
:1035F000002814BF04460124204600F057FA30B9D1
:1036000000F006F808B900F00BF88047F4E710BDA9
:10361000024B1868BFF35F8F704700BF281200206D
:1036200008B5062001F020FB0120FFF7C7FF014687
:1036300000200246034602F05DBB000038B5054697
:1036400004480C46134620B102202946224602F0C7
:1036500051FB38BDF55C0008014B1868704700BF8E
:103660008402002008B5074B044613B1002102F084
:103670009DFB054B1868836A03B198472046FFF706
:103680009DFF00BFAD5D0008588900088A892DE9BB
:10369000F041054610070C4657D44B68002B02DC5E
:1036A0000B6C002B18DDE66AB6B102F480520023E1
:1036B00092B22F682B600AB1626D10E0216A284631
:1036C0000123B047411C024609D12B683BB11D2B99
:1036D00001D0162B47D12F600020BDE8F081A389CF
:1036E0005B0705D56368D21A636B0BB1236CD21AE2
:1036F000E66A216A00232846B047461CA38905D103
:103700002A681AB11D2A01D0162A19D10022626036
:10371000D9042269226004D5421C01D12B6803B967
:103720006065616B2F600029D6D004F14403994293
:1037300002D0284600F008FA00206063BDE8F0815E
:1037400043F04003A381BDE8F0810F69002FC3D08F
:1037500093070E6808BF4B690F6018BF0023C7EBC3
:1037600006088B6012E0A38943F04003A3814FF069
:10377000FF30BDE8F0812846216AA66A3A464346F2
:10378000B0470028EFDD0744C0EB0808B8F1000F90
:10379000F1DCA1E738B50B6905460C46DBB118B181
:1037A00083690BB900F072F80C4B9C4201D16C6834
:1037B00008E00B4B9C4201D1AC6803E0094B9C42F2
:1037C00008BFEC68B4F90C302BB128462146BDE89F
:1037D0003840FFF75BBF002038BD00BFF488000809
:1037E0001489000834890008014620B9044B0549B2
:1037F000186800F0C9B8044B1868FFF7CBBF00BFCA
:10380000588900089537000884020020014900F01B
:10381000BBB800BF95370008002310B5044603600D
:103820004360836081814366C28103614361836138
:1038300019465C30082200F07EF9054B6362054BA7
:10384000A362054BE362054B2462236310BD00BFF6
:10385000E94C00080B4D0008434D0008674D000877
:1038600070B568234D1E5D430E4605F1740100F0EE
:10387000AFF9044640B1002180E842000C30A0605E
:1038800005F1680200F057F9204670BD836910B554
:10389000044633BB8364C3640365124B124A1B683E
:1038A0008262984204BF0123836100F01FF86060C8
:1038B000204600F01BF8A060204600F017F8042115
:1038C000E06000226068FFF7A7FFA06809210122DD
:1038D000FFF7A2FFE06812210222FFF79DFF0123FC
:1038E000A36110BD588900080D380008F8B51B4BBE
:1038F0001E68B369074613B93046FFF7C7FF48365D
:10390000B4687368013B04D4B4F90C5075B16834E1
:10391000F8E733682BB938460421FFF7A1FF306080
:1039200008B13668ECE70C233B60F8BD4FF6FF7337
:10393000E3810123A38165662560A560656025613B
:103940006561A56104F15C002946082200F0F3F8E6
:103950006563A563A564E5642046F8BD5889000841
:1039600038B5074B074CE41AA4101D4624B1013C9E
:1039700055F824309847F9E7BDE8384004F0BCBE5C
:10398000D0020020D40200202DE9F8438046894669
:1039900000F14804002694B1A5686768013F0CD483
:1039A000AB89012B07D9B5F90E30013303D040465E
:1039B0002946C84706436835F0E72468EBE73046F8
:1039C000BDE8F88370B50E4B0E4CE41AA410002528
:1039D0001E46A54204D056F8253098470135F8E731
:1039E00004F084FE084C094BE41AA41000251E467E
:1039F000A54204D056F8253098470135F8E770BD48
:103A0000C4020020C4020020D0020020C402002012
:103A1000F0B58B899D0791B006460C4626D4B1F9C6
:103A20000E10002909DAA38913F0800F4FF000056A
:103A300014BF40274FF480670DE001AA03F084F81B
:103A40000028F0DB029D05F47045A5F500514D42BC
:103A50004D414FF480673046394600F0B9F860B9FF
:103A6000A3899A051DD443F00203A38104F14703FF
:103A7000236023610123636113E00B4BB362A389CD
:103A8000206043F08003A381206167614DB130461F
:103A9000B4F90E1003F076FB18B1A38943F00103CB
:103AA000A38111B0F0BD00BF0D380008024B0146E4
:103AB000186800F08DB800BF84020020024B014658
:103AC000186800F041B800BF8402002010B5C9B2E8
:103AD00002449042034606D01C788C4200F101005B
:103AE000F7D1184610BD002010BD10B5431E0A4482
:103AF000914204D011F8014B03F8014FF8E710BDD3
:103B0000814210B501EB020301D3421E0BE0984243
:103B1000FBD28118D21AD34204D013F8014D01F818
:103B2000014DF8E710BD994204D011F8014B02F89D
:103B3000014FF8E710BD02440346934202D003F858
:103B4000011BFAE77047000030B500293DD051F85D
:103B5000042C0B1F1D49002AB8BF9B180A680C468D
:103B600012B95A600B6030BD93420DD219685818D3
:103B7000904201BF5A5852181A6042685A60236036
:103B800030BD994203D80A4651680029F9D114681A
:103B900015199D420AD11B682344D018884213602E
:103BA00013D10868034413604B680DE002D90C235D
:103BB000036030BD1C681819884204BF0868496852
:103BC000596004BF00191860536030BD30120020E6
:103BD00070B5CC1C24F0030408340C2C38BF0C2422
:103BE000002C064603DA0C233360002070BD8C42A3
:103BF000F9D3204A136810461946A1B10A68121B6E
:103C00000ED40B2A03D90A608B188C501FE08B420C
:103C10000DBF5A684A685A60026018BF0B4616E02A
:103C20000B464968E9E7144D2B681BB9304600F094
:103C3000DFFF28603046214600F0DAFF421C0346D1
:103C4000D1D0C51C25F0030585420AD11C6003F1C3
:103C50000B001A1D20F00700821A0AD05142995019
:103C600070BD3046E91A00F0C3FF0130BBD02B46CF
:103C7000ECE770BD301200202C1200209368013B4D
:103C8000002B10B5936009DA9469A34202DBCBB232
:103C90000A2B03D1BDE8104001F05ABF1368581C2D
:103CA00010601970C8B210BDF8B506460F4614462C
:103CB000D518AC4208D0304614F8011B3A46FFF73D
:103CC000DDFF431CF5D100E00020F8BD2DE9F043F5
:103CD0009DB00D4690460393064618B183690BB913
:103CE000FFF7D4FD754B9D4201D1756808E0744B18
:103CF0009D4201D1B56803E0724B9D4208BFF56853
:103D0000AB891C070AD52B6943B1002309932023F3
:103D10008DF8293030238DF82A3041E0304629468D
:103D200001F07CFF0028F0D04FF0FF30C2E0039A92
:103D3000111D12680391002ABBBF524243F00203D7
:103D400007920792B8BF0493013423782E2B7BD0BF
:103D5000DFF88081217840460322FFF7B7FE38B1B3
:103D6000049AC8EB000040238340134304930134BA
:103D7000217855488DF82810062204F10108FFF734
:103D8000A5FE002800F08580504B002B78D1039BC6
:103D9000073323F0070308330393099B3B4409933C
:103DA00043461C4613F8012B1AB9B4EB08090ED090
:103DB00002E0252AF5D1F8E73046294642464B462F
:103DC000FFF772FF013070D0099B4B4409932378B1
:103DD000002B6AD000234FF0FF3204930793059223
:103DE00006938DF853301A9304F101084446DFF826
:103DF000E890217848460522FFF768FE08F101089F
:103E0000049B30B1C9EB00000122824013430493AC
:103E1000ECE7D80644BF20228DF85320190744BF91
:103E20002B228DF8532022782A2A80D00799234606
:103E30001C4601332278303A092A03D80A2000FBB5
:103E40000121F5E7079180E763782A2B0AD1039BCC
:103E50001A1D1B680392002BB8BF4FF0FF330234CA
:103E6000059375E7611C00220C4601312378303B35
:103E7000092B03D80A2000FB0232F5E7059267E719
:103E800003AB0093304604A92A46114B00F0C4F856
:103E900007E003AB0093304604A92A460C4B00F020
:103EA00077FB421C07467FF478AFAB895B063FF592
:103EB0003BAF09981DB0BDE8F08300BFF48800084F
:103EC0001489000834890008668900081940000830
:103ED000A93C0008628900085C89000830B51346D7
:103EE000044A05460C46106829462246BDE8304083
:103EF000FFF7ECBE840200202DE9F04788B0002BCC
:103F0000149F1299109EDDF84CA01D46B8BF05F114
:103F1000004327F02007B6BF1D4600232D2314467B
:103F2000B8BF1446462F0B7003D0452F03D101367E
:103F300001E0032300E002238DE8480406AB03936D
:103F400007AB049322462B4602F03AF8472F8046EF
:103F500002D1119BDB0726D5462F08EB060911D1AC
:103F600098F80030302B0AD1204629460022002341
:103F700004F0E2FA18B9C6F10106CAF80060DAF8EE
:103F800000309944204629460022002304F0D4FA48
:103F900008B1CDF81C90079B4B4504D25A1C0792E0
:103FA00030221A70F7E7079B159AC8EB03034046C7
:103FB000136008B0BDE8F08773B503460029B8BFA9
:103FC000494203F8022BB4BF2D222B22092942704B
:103FD00019DD0DF1070426460A2291FBF2F502FBDA
:103FE00015113031092D04F8011D2946F4DC30315A
:103FF000651E04F8011CB5421A460AD215F8012BB9
:1040000003F8012BF7E730241A46214402F8024B4B
:104010005970101A02B070BD2DE9F04F91B08B4667
:1040200015461E461A9F044603F0BCF8D0F800A0BF
:10403000504600F09CFE00230E933B680990073326
:1040400023F0070303F108029BF818803A60D3E9D4
:104050000023CBE91223DBE9120100F09FFD0128C8
:10406000DBE9120119D10022002304F06FFA10B12C
:104070002D238BF84330A04BA04FB8F1470F88BFDA
:104080001F460323CBF81030DBF8003023F0040385
:10409000CBF800304FF00009A1E000F07FFDDBF825
:1040A000003048B9964A974FB8F1470F88BF174676
:1040B0000322CBF81020E9E7DBF804209BED127B0C
:1040C000571C8DED0A7B01D1062209E0B8F1670F7C
:1040D00002D0B8F1470F05D1002A40F0C781012274
:1040E000CBF80420DBF80420CDF8108043F4806383
:1040F0008DE80C00CBF800300DF1330302930DABCB
:1041000003930EAB0593002306932046DDE90A23B3
:10411000FFF7F2FE08F0DF03472B07460AD10D9B9D
:10412000D81C03DBDBF80420934237DDA8F102083A
:104130005FFA88F8B8F1650F0D9915D80139424634
:104140000BF150000D91FFF737FF0E9A8318012AEB
:104150008146CBF8103003DCDBF80020D10738D5DE
:104160000133CBF8103034E0B8F1660F18D10029D4
:10417000DBF8043009DDCBF810101BB9DBF80020A8
:10418000D20721D501330B441CE01BB9DBF800201A
:10419000D00701D5023315E0012313E04FF0670883
:1041A0000D9B0E9A934207DBDBF80020CBF8103012
:1041B000D10709D5013305E0002BD4BFC3F10203B9
:1041C00001231344CBF810300D9BCBF858304FF03F
:1041D00000099DF8333013B12D238BF8433000963E
:1041E000204659460FAA2B4600F05CF9013002D157
:1041F0004FF0FF3052E1DBF800305A0505D420467D
:1042000029463A46DBF8103008E1B8F1650F40F274
:10421000D080DBE912010022002304F08DF950B3B5
:1042200020462946384A0123B0470130E0D00E9B92
:104230000D9A9A4209DBDBF80030D80705D4DBF889
:1042400000309F0700F1108107E1204629465246C1
:10425000099BB0470130CBD000270E9B013B9F420A
:10426000EDDA204629460BF11A020123B04701304E
:10427000BED00137F1E70D9B002B29DC20462946F3
:10428000214A0123B0470130B2D00D9B2BB90E9BC0
:104290001BB9DBF80030D907D1D520462946524654
:1042A000099BB0470130A3D04FF000080D9B5B4243
:1042B00098452046294608DA0BF11A020123B04737
:1042C000013095D008F10108F0E73A460E9BA5E0D1
:1042D000DBF858200E9B9A42A8BF1A46002A914646
:1042E00002DC4FF000081CE0204629463A464B46C7
:1042F000B0470130F5D17BE7718900086D8900086E
:1043000079890008758900087D89000820462946BA
:104310000BF11A020123B04701303FF469AF08F1F5
:104320000108DBF85830B9F1000FACBFC9EB03024C
:104330001A469045EADB07EB03080D9A0E9B9A425A
:1043400010DBDBF80030DA070CD40E9A1744C8EB08
:1043500007030D9FD21B9342A8BF1346002B1F4695
:1043600008DC0EE0204629465246099BB047013042
:10437000EBD13DE7204629464246B04701303FF4A5
:1043800037AF4FF000080AE0204629460BF11A0229
:104390000123B04701303FF42BAF08F101080D9A1B
:1043A0000E9B002FA3EB0203A8BFDB1B9845EBDBA2
:1043B00045E70E9A012A01DCDB0736D5204629465F
:1043C0003A460123B04701303FF412AF2046294658
:1043D0005246099BB04701303FF40AAFDBE91201B6
:1043E0000022002304F0A8F8E8B90E9B20462946D5
:1043F0007A1C013B1DE0204629460BF11A020123DD
:10440000B04701303FF4F4AE01370E9B013B9F42B1
:10441000F1DB204629460BF150024B46B0470130F4
:104420007FF40DAFE4E60027EFE7204629463A4641
:104430000123B0470130ECD1DAE6204629460BF1E2
:1044400019020123B04701303FF4D2AE0137DBF847
:104450000C300F9A9B1A9F42EFDBDBF80C000F9B8E
:104460009842B8BF184619E00027F0E743F480638C
:104470008DE80C00CBF800300DF1330302930DAB47
:1044800003930EAB059300230693CDF810802046CE
:10449000DDE90A23FFF730FD074640E611B0BDE82D
:1044A000F08F00BF2DE9F84391461F468A680B69DB
:1044B000DDF820809342B8BF1346C9F8003091F868
:1044C000432006460C4612B10133C9F80030236878
:1044D000990642BFD9F800300233C9F80030256888
:1044E00015F006051CD094F843302268003318BF3D
:1044F000012392061FD5E1185A1C302081F8430091
:10450000224494F8451082F84310023313E03046F9
:10451000394604F119020123C047013007D00135A3
:10452000E368D9F800209B1A9D42F0DBDBE74FF0EF
:10453000FF30BDE8F8833046394604F14302C047F6
:104540000130F4D02268D9F80050E36802F0060286
:10455000042A08BF5D1B2269A3680CBF25EAE57524
:1045600000259342C4BF9B1AED184FF00009A945DE
:104570000ADA3046394604F11A020123C0470130F5
:10458000D5D009F10109F2E70020BDE8F883000069
:104590002DE9FF410C461746227E6E2A98460646B4
:1045A0000A9B01F1430100F0AF8012D8632A23D0A7
:1045B0000AD8002A00F0BC80582A40F0CB8084F84A
:1045C0004520DFF804E257E0642A1ED0692A1CD097
:1045D000C0E0732A00F0B08009D86F2A2ED0702A6C
:1045E00040F0B880226842F0200222603FE0752A45
:1045F00024D0782A3BD0ADE01A68111D19601368E9
:1046000084F8423004F14205A8E020681A6810F0EE
:10461000800F02D0101D186008E010F0400F02F16A
:104620000400186002D0B2F9003000E01368002BDB
:104630003EDA2D225B4284F8432039E020681A6874
:1046400010F0800F02D0101D186007E010F0400F2E
:1046500002F10400186001D0138800E01368227E84
:10466000DFF864E16F2A0CBF08220A221CE07822DE
:10467000DFF858E184F845202268186812F0800FAE
:1046800000F104051D6003D1550601D5038800E043
:104690000368D00744BF42F0200222601BB92268A1
:1046A00022F0200222601022002084F8430002E061
:1046B000DFF814E10A226568A560002DA2BF20681A
:1046C00020F00400206003B965B10D46B3FBF2F0A1
:1046D00002FB10331EF8033005F8013D03460028A5
:1046E000F4D100E00D46082A0BD12368DA0708D57B
:1046F000236962689A42DEBF302305F8013C05F168
:10470000FF35491B21612EE025681A68606915F0A4
:10471000800F03D0151D1D60136808E015F0400FD1
:1047200002F104051D60136801D0188000E01860D4
:10473000002323610D4616E01A68111D19601568E3
:10474000626828460021FFF7C1F908B1401B60608C
:10475000636804E004F1420584F8422001232361E8
:10476000002384F84330CDF800803046214603AA68
:104770003B46FFF797FE013002D14FF0FF301FE0BC
:10478000304639462A462369C0470130F5D02368B0
:104790009B0705D4E068039B9842B8BF18460FE01A
:1047A0000025E368039A9B1A9D42F3DA30463946A6
:1047B00004F119020123C0470130DED00135F0E7D2
:1047C00004B0BDE8F08100BF7F890008908900082F
:1047D0002DE9F04F99468B6815465A1EB2F5AE7F0B
:1047E00081BF6FF4AE7203EB020C40F25D138B607D
:1047F0000B680F4643F4F06387B047F81C3B4FF05B
:10480000000B06460C4698BF4FF0000CB8465A46BF
:10481000CDF80CB0CDF808B0DA46CDF804B0A168F8
:10482000002900F0EC802B681B78492B70D016D83B
:10483000392B0DD8312B40D22D2B46D002D82B2B23
:1048400043D0DCE02E2B00F09280302B23D0D6E03A
:10485000452B00F09580462B77D0412B0CE0652B43
:1048600000F08E800AD8542B75D002D84E2B34D04D
:10487000C5E0592B75D0612B46D0C0E06E2B2CD0F3
:1048800004D8662B61D0692B42D0B8E0742B62D07B
:10489000792B66D0B3E0206810F4807F0DD020F033
:1048A000800020600AF1010ABCF1000F00F08A804C
:1048B00001310CF1FF3CA16084E012EB0B0F40F0E2
:1048C0009E80216821F4C07105E02168080640F14E
:1048D000968021F08001216070E06AB9BAF1000F82
:1048E0000CD1216801F4E060B0F5E06F06D121F44D
:1048F000F0612160012261E0022A5ED0BBF1010F6C
:104900001ED0BBF1040F1AE0012A78D1022255E033
:10491000BBF1000F0ED1BAF1000F73D1216801F481
:10492000E060B0F5E06F71D121F4F06121604FF0EB
:10493000010B43E0BBF1030F02D0BBF1050F5ED1C9
:104940000BF1010B5FFA8BFB38E0BBF1020F56D184
:104950004FF0030B32E0BBF1060F50D14FF0070BC5
:104960002CE0BBF1070F4AD14FF0080B26E021687D
:10497000880544D521F420712160CDF804A01DE004
:10498000216801F4A060B0F5806F04D0480536D5E9
:10499000BAF1000F3AD088055CBF0198CDF80C80C1
:1049A00021F4F06158BFC0EB0A0041F4C07158BF58
:1049B000029021604FF0000A00E0032288F80030E6
:1049C00008F10108A368013BA36023690133236157
:1049D0006B68013B002B6B6003DD2B6801332B60A0
:1049E0001DE7D4F88031059230462946CDF810C035
:1049F0009847DDF810C0059A00283FF410AFBAF1CF
:104A0000000F03D0236823F480732360013A012A46
:104A10000ED8B8450AD9D4F87C3118F8011D3046B3
:104A20002A4698472369013B2361F2E70125AEE05E
:104A30000BF1FF33062B22D8BBF1020F12D9ABF1D9
:104A4000030B5FFA8BFBCBEB080BD84517D0D4F8E0
:104A50007C3118F8011D30462A4698472369013BEE
:104A60002361F2E7B845E1D9D4F87C3118F8011D8B
:104A700030462A4698472369013B2361F2E72368C1
:104A8000DA052CD55B050CD5B845CFD9D4F87C31E7
:104A900018F8011D30462A4698472369013B2361D7
:104AA000F2E718F8011C2369652903F1FF3308F1C7
:104AB000FF3B23610DD045290BD0D4F87C31304623
:104AC0002A469847236918F8021C013BA8F1020BFB
:104AD0002361D4F87C3130462A469847D846256869
:104AE00015F0100552D188F80050236803F4C06314
:104AF000B3F5806F05D1019BC3EB0A035A426BB932
:104B000016E0029BA3B1039B2A46591C30460A2398
:104B100000F098FF029BDDF80C80C21A04F26F13BC
:104B2000984528BF04F5B77840461B4900F0B8F80F
:104B300030463946002200F073F92268D9F8003077
:104B400012F0020F06460F4603D01A1DC9F80020C6
:104B500006E012F0040F03F10402C9F8002003D0AC
:104B60001B68C3E900670DE0D3F8008000F016F879
:104B700010B900F04DF803E03046394603F056FD19
:104B8000C8F80000E3680133E36000E00025284630
:104B900007B0BDE8F08F00BFA18900080A4631F0D8
:104BA000004110B503461BD00F48A2F58014844283
:104BB00010D902F1FF420C4802F5E002824209D905
:104BC000B1F5801F08D3094A914207D1B3FA83F0A7
:104BD000400910BD042010BD032010BD002010BDF1
:104BE0000028E6D1022010BDFFFFDF7F0000F07F2C
:104BF00038B5064C0023054608462360FEF7CAFC7C
:104C0000431C02D1236803B12B6038BDC4120020BD
:104C1000004870470000C07F1F2938B504460D4684
:104C200004D9162303604FF0FF3038BD426C12B137
:104C300052F821304BB9204600F030F82A460146A0
:104C40002046BDE8384000F017B8012B0AD0591CA7
:104C500003D116230360012038BD002442F825400B
:104C600028469847002038BD024B01461868FFF7D8
:104C7000D3BF00BF8402002038B5074C002305468F
:104C800008461146236003F029FD431C02D1236826
:104C900003B12B6038BD00BFC412002003F016BD65
:104CA0000EB400B59CB04FF40271ADF814106FF063
:104CB0000041049107914FF6FF711DABADF816103E
:104CC000084953F8042B029006900868019302A942
:104CD00002F004FF029B00221A701CB05DF804EB86
:104CE00003B070478402002010B50C46B1F90E10D5
:104CF00002F0E6FF0028ABBF636DA3891B1823F405
:104D00008053ACBF6365A38110BD2DE9F0411D4602
:104D10008B89DB0507460C46164605D5B1F90E1002
:104D20000022022302F042FAA389B4F90E1023F400
:104D30008053A381384632462B46BDE8F04100F04F
:104D40005BBF10B50C46B1F90E1002F02FFA431CF0
:104D5000A38915BF606523F4805343F48053A38176
:104D600018BFA38110BDB1F90E1001F089B8034638
:104D700013F8012B002AFBD1181A0138704770B5BF
:104D8000AAB1451E01396B7811F8014FA34205F114
:104D9000010606D16FF00104641B1444E04202D105
:104DA0001C46181B70BD3546002BECD1F8E71046A9
:104DB00070BD30B5036811F8014B01334CB11A785E
:104DC000A2F14105192D98BF2032A242F3D0002054
:104DD00030BD0360012030BD2DE9F0410F46904603
:104DE00002F0C4FC04460D46B8F1000F11D0C7F321
:104DF0000A53C3F16B03002B0BDD1B0503F17F5539
:104E0000002405F5401522462B4603F02DF9BDE898
:104E1000F08120462946BDE8F08100000000000036
:104E20002DE9F04F9FB0002383468A4616921A93CD
:104E30004FF000084FF000091991199B1A780D2ABC
:104E400005D8092A13D2002A00F0BE8112E02B2ACD
:104E500006D02D2A02D0202A0CD108E0012200E041
:104E6000002209925A1C19925B782BB9ACE10133EC
:104E70001993E2E700230993199C2378302B5CD126
:104E80006378582B01D0782B4CD11AAB0093099B37
:104E90000193584619A9B14A1BAB01F0B2FE10F0BC
:104EA0000706054600F09B85062E05D10134002338
:104EB0001994099300F093BD1A9A3AB11CA83521B0
:104EC00002F042FD58461A9902F0B7F91B9A062ED5
:104ED00021D8DFE806F0040D08171C0D04004FF080
:104EE0000009C84617E0DDF87080DDF8749012E024
:104EF0001D9BDDF8708002F2334223F4801343EAF5
:104F0000025908E0DFF858924FF0000803E06FF014
:104F100000494FF0FF38290740F1618549F0004909
:104F200000F05DBD199B5A1C19925B78302BF9D0AB
:104F3000002B00F05485012300E000230026049399
:104F4000199B059303963546199C2778A7F13003E2
:104F5000DAB2092A10D8082DD8BF03994FF00A02F7
:104F6000D8BF02FB013304F10104D4BF039302FB59
:104F7000063601351994E7E7584602F013F901683F
:104F80000291584602F00EF90068FFF7F0FE029910
:104F900002462046FFF7F3FE28B100203B462C4690
:104FA000029007465DE00290584602F0FBF8006868
:104FB000FFF7DDFE199B02991A1819921B5C002D50
:104FC00047D12846302B05D1199B5A1C1992013024
:104FD0005B78F7E7A3F13102082A48D8199A0290C2
:104FE000002005920446303B00F101012BD0029ACB
:104FF0000A44029207192146B94213D0013101F146
:10500000FF3EBEF1080F06DC039A4FF00A0E0EFBBE
:1050100002F20392F0E71029DCBF4FF00A0E0EFBFC
:1050200006F6E9E72044082800F1010405DC039AAC
:105030000A2101FB0233039304E0102CDCBF0A2198
:1050400001FB06360021199B581C19905B78084615
:1050500002E02C4608460291A3F130010929C2D989
:105060000127652B01D0452B60D174B905E0652B74
:1050700040F0C38400230293012728B9049B002B2E
:1050800000F0A280044600E00024DDF864A00AF1EC
:10509000010319939AF801302B2B07D02D2B02D046
:1050A0004FF0000C09E04FF0010C01E04FF0000C54
:1050B0000AF1020319939AF80230A3F13001092989
:1050C00032D81946302904D1199B591C19915978A5
:1050D000F8E7A1F1310EBEF1080F0B4626D8199B57
:1050E00006933039199B03F1010ECDF864E05B782B
:1050F000A3F13002092A05D84FF00A0E0EFB013148
:105100003039EFE7069AC2EB0E0EBEF1080F44F6F7
:105110001F6E03DC7145A8BF714600E07146BCF10B
:10512000000F04D0494202E0CDF864A00021002C19
:1051300054D1002840F05384049A002A40F04F8450
:10514000002F41D14E2B20D002DC492B0AD03BE06E
:10515000692B07D06E2B18D036E000BFE889000815
:105160000000F07F19A8A649FFF723FE60B3199B42
:10517000A449013B19A81993FFF71BFE10B9199B0D
:1051800001331993DFF894921AE019A89E49FFF7AA
:1051900010FEC8B1199B1B78282B0FD119A89B4969
:1051A0001CAA01F065FF052808D11D9BDDF8708061
:1051B00043F0FF4949F4E00900F011BCDFF86092C8
:1051C0004FF0000800F00BBC169BCDF864A0002B3C
:1051D00000F010840023099300F003BC029B0398A5
:1051E000CB1A002D14BFAA46A246102C25460493C4
:1051F000A8BF102502F0C2FE092D8046894613DDA6
:10520000834B03EBC50353E9122302F02DFF8046C5
:105210003046894602F0B2FE02460B4640464946F9
:1052200002F070FD804689460F2C37DC049B002B72
:1052300000F0D58324DD162B07DC754A02EBC30290
:10524000D2E900014B46424615E0049AC4F1250319
:105250009A4223DC6E4DC4F10F0405EBC403D3E97D
:10526000000142464B4602F0FFFE049B1C1B05EB6F
:10527000C405D5E9002302F0F7FE80468946AEE377
:10528000049B13F1160F09DB614AA2EBC3024046EF
:105290004946D2E9002303F011F8EEE7049B651BB1
:1052A0001D44002D54DD15F00F020AD0584B03EBBE
:1052B000C203D3E9000142464B4602F0D5FE8046C8
:1052C000894635F00F0500F0B180B5F59A7F0BDD0A
:1052D0000024A246059403942223CBF80030DFF883
:1052E0003C914FF0000880E14946DFF838912D11DC
:1052F000404600274E46012D0ADDEA0703D5D9E9CD
:10530000002302F0B1FE01376D1009F10809F2E740
:105310008046A1F1547906EBC70642464B46D6E9D2
:10532000000102F0A1FE21F0004389460A461B0D50
:1053300038491B058B428046CAD8A1F580118B42A3
:1053400086BFDFF8E4904FF0FF3802F154796DE04A
:105350006CD06D4215F00F020AD02D4B03EBC20347
:1053600040464946D3E9002302F0A8FF804689461B
:105370002D115BD01F2D04DD0024A246059403945B
:105380002CE115F0100F0CBF00236A23224E02936C
:1053900040464946002D08DDEB0703D5D6E900233A
:1053A00002F062FE6D100836F4E7029B80468946E3
:1053B000EBB1C1F30A53C3F16B03002B0A4616DDB0
:1053C0001F2B0EDD342BDEBF203B4FF0FF3101FAE7
:1053D00003F34FF00008CCBF4FF05C7903EA0209F9
:1053E00005E04FF0FF3202FA03F303EA00084046FB
:1053F00049460022002303F09FF80028BCD117E0A3
:1054000072890008008B00087A890008A8890008C2
:10541000108B00080000A07CC08900080000F07F0D
:105420000000F8FFD88B0008FFFFEF7F00230293F6
:10543000039B0093584605995246234601F052FFBC
:10544000059000283FF444AF049A049B002AC3F15E
:1054500000034FF00004A8BF00231293A246059B4F
:105460005846596801F0B4FE039000283FF434AF69
:10547000059B1A69059B023203F10C0192000C3066
:10548000FEF733FB1BAB00931CAB0193584642461F
:105490004B46CDE90A8902F0DCF91A9000283FF466
:1054A0001BAF5846012101F0AAFF824600283FF4B5
:1054B00013AF049B02991C9D23EAE37308931B9B83
:1054C000002BADBF129A089A129ED618B8BFD21AF6
:1054D000A3EB01032B446FF47F71A8BF089A8B42A2
:1054E000C5F1360580F28680C91A1F29A5EB010592
:1054F000C8BFB3494FF00100D5BF00FA01F3C91A84
:10550000139300FA01F3D9BF002306930693139077
:105510007719029BB74215441D443B46A8BF33464A
:10552000AB42A8BF2B46002BC2BFFF1AED1AF61ADA
:10553000129B002B63D1002F7ADC089B002B40F0DC
:105540008180002D00F38880002E00F38F80584664
:105550001A99039A02F0ABF8044600283FF4BCAE57
:10556000C36808930023C360514602F084F8002802
:1055700080F28A80089B002B40F00A82B8F1000F6D
:1055800040F00682C9F31303002B40F0018229F09A
:1055900000431B0D1B05B3F1D66F40F2F98163691F
:1055A000002B6DD021460122584602F011F85146D9
:1055B000044602F060F8002840F3EA8129F0004335
:1055C000029A1B0D1B05002A00F08D80B3F1D66FE7
:1055D00000F38980B3F15C7F00F3DC8122234FF07C
:1055E00000084FF00009CBF80030059B002B40F07D
:1055F000E281F4E1002306930123139388E75146E7
:1056000058461A4601F096FF824600283FF464AEE1
:10561000584651461A9A01F0FBFE179000283FF4B5
:105620005BAE58461A9901F008FE179B1A9382E761
:1056300058461A993A4601F0CBFF1A9000287FF499
:105640007CAF49E658460399089A01F073FF03902E
:1056500000287FF476AF3FE6584603992A4601F0CA
:10566000B7FF039000287FF46FAF35E651465846E8
:10567000324601F0ADFF824600287FF468AF2BE68A
:105680002369012B8EDC83E162D1089AC9F31303ED
:1056900022B34C498B424A462ED1029B414663B10C
:1056A000494B1340B3F1D46F07D81B0DC3F16B0303
:1056B0004FF0FF3000FA03F301E04FF0FF3399425F
:1056C0001AD1424B9A4202D101313FF405AE3E4B12
:1056D000134003F580194FF0000859E163B9B8F1A0
:1056E000000F09D16AE7A3F580136FEA13596FEA37
:1056F00009594FF0FF384BE1069B13B113EA090F2C
:1057000002E0139B13EA080F00F04281089B029A03
:105710004046494653B1FFF75FFB02460B46DDE9C1
:105720000A0102F0EFFA8046894631E1FFF754FBA7
:1057300002460B46DDE90A0102F0E2FA00220023EC
:105740008046894602F0F8FE00287FF447AF1FE14B
:105750002046514602F0CFF800224FF08043064623
:105760000F4602F0FDFE002841D0089B13B1002235
:10577000174B0FE0B8F1000F03D1C9F313033BB986
:105780000DE0B8F1010F03D1B9F1000F3FF426AFDE
:10579000104B0022CDE9062300260D4F3CE0304699
:1057A000394600220A4B02F0D1FEB8B930463946DC
:1057B0000022094B02F058FC06460F4610E000BFDD
:1057C000E3FBFFFFFFFF0F000000F07FFFFFEF7F15
:1057D0000000F03F0000F0BF0000E03F944F0026C3
:1057E00007F1004314961593DDE9142312E03046C7
:1057F00039468F4B002202F037FC089B06460F46C5
:1058000023B901F100430E900F9301E0CDE90E673B
:10581000DDE90E23CDE9062329F000452D0D854B4A
:105820002D059D422DD1DDE90A23A9F15479404689
:105830004946CDE90C2301F099FF02460B46DDE90C
:10584000060102F011FC02460B464046494602F0B2
:1058500059FA21F000431B0D774A1B0593428046FD
:105860000CD9764B0D9A9A4203D10C9B01333FF42D
:1058700033ADDFF8C8914FF0FF3878E001F154798B
:105880003DE0029B3BB3B5F1D46F24D83046394696
:105890005FA3D3E9002302F063FEB8B13946304676
:1058A00002F0A4FE002808BF012002F067FB089B5D
:1058B00006460F4623B901F100431090119301E011
:1058C000CDE91067DDE91023CDE90623079B03F13D
:1058D000D6635B1B0793DDE90A01DDE9068901F068
:1058E00045FF02460B464046494602F0BDFB0246D4
:1058F0000B46DDE90A0102F005FA80468946029B63
:10590000ABBB29F000431B0D1B059D422FD139462F
:105910003046CDF8189002F041FE02F03FFB0B46F6
:1059200002463946304602F0EBF9089BDDF818C014
:1059300006460F462BB9B8F1000F02D1CCF3130382
:105940007BB13046394634A3D3E9002302F0FEFD93
:1059500088BB3046394632A3D3E9002302F014FE57
:1059600004E031A3D3E9002302F0F0FD18BB584650
:105970001A9901F062FC5846039901F05EFC584602
:10598000514601F05AFC5846214601F056FC66E5A6
:10599000029B83B12A4B0D9300230C93404649464A
:1059A000DDE90C2302F060FB8046894619B910B985
:1059B0002223CBF8003058461A9901F03EFC584695
:1059C000039901F03AFC5846514601F036FC58461E
:1059D000059901F032FC5846214601F02EFC169B39
:1059E00013B1169A199B1360099B1BB1404609F12C
:1059F000004107E04046494604E0002402940127A4
:105A0000FFF731BB1FB0BDE8F08F00BFAFF30080E0
:105A10000000C0FFFFFFDF419535A094FFFFDF3F8F
:105A200035E5AF350000E03F9535A094FFFFCF3F4F
:105A30000000E03F0000E07FFFFF9F7CFFFFEF7F63
:105A4000000050392DE9F047404CD4F800900F4643
:105A50003D4615F801EB09EB0E04667806F00804E4
:105A600004F0FF060CB12F46F2E774462D2C03D14B
:105A7000BD1C7C78012603E02B2C04BF7C78BD1C68
:105A800013B1102B0AD15AE0302C56D12C7804F0E7
:105A9000DF04582C4CD16C7810230235002E14BF33
:105AA0004FF000486FF000480027B8FBF3FABE46FD
:105AB00003FB1A8809EB040C9CF801C01CF0040FCE
:105AC00001D0303C0BE01CF0030C1BD0BCF1010FEB
:105AD0000CBF4FF0370C4FF0570CCCEB04049C423A
