:020000040800F2
:100000000000022059020008A5020008A50200080D
:10001000A5020008A5020008A502000800000000D3
:1000200000000000000000000000000005030008C0
:10003000A50200080000000091030008E903000881
:10004000A5020008A5020008A5020008A5020008F4
:10005000A5020008A5020008A5020008A5020008E4
:10006000A5020008A5020008A5020008A5020008D4
:10007000A5020008A5020008A5020008A5020008C4
:10008000A5020008A5020008A5020008A5020008B4
:10009000A5020008A5020008A5020008A5020008A4
:1000A000A5020008A5020008A5020008A502000894
:1000B000A5020008A5020008A5020008A502000884
:1000C000A5020008A5020008A5020008A502000874
:1000D000A5020008A5020008A5020008A502000864
:1000E000A5020008A5020008A5020008A502000854
:1000F000A5020008A5020008A5020008A502000844
:10010000A5020008A5020008A5020008A502000833
:10011000A5020008A5020008A5020008A502000823
:10012000A5020008A5020008A5020008A502000813
:10013000A5020008A5020008A5020008A502000803
:10014000A5020008A5020008A5020008A5020008F3
:10015000A5020008A5020008A5020008A5020008E3
:10016000A5020008A5020008A5020008A5020008D3
:10017000A5020008A5020008A50200080000000072
:10018000A5020008A502000810B5054C237833B974
:10019000044B13B10448AFF300800123237010BD5A
:1001A000E002002000000000ACB50008084B10B5CC
:1001B0001BB108480849AFF300800848036803B939
:1001C00010BD074B002BFBD0BDE81040184700BF07
:1001D00000000000ACB50008E4020020DC020020B2
:1001E00000000000154B002B08BF134B9D46A3F5E4
:1001F000803A00218B460F461348144A121A05F024
:100200007AFB0F4B002B00D098470E4B002B00D0F1
:1002100098470020002104000D000D48002802D05E
:100220000C4804F082FF05F0ADFA2000290004F02C
:1002300021FF04F095FF00BF00000800000002202D
:10024000000000007D1A0008E0020020DC140020FD
:100250002B51000815550008DFF830D0002103E0CD
:100260000B4B5B58435004310A480B4B42189A42DF
:10027000F6D30A4A02E0002342F8043B084B9A42B4
:10028000F9D300F0FBFFFFF7ADFF7047000002203D
:10029000E0B5000888010020E0020020E002002014
:1002A000DC140020FEE7000080F309887047EFF3BC
:1002B00009807047684680F3098851480078C00774
:1002C00014BF0220032080F314887047DFF834C184
:1002D000EFF305831B0618BF6047EFF31483DB07BA
:1002E00008BF604700DF7047DFF81CC1EFF30583EC
:1002F0001B0618BF6047EFF31483DB0708BF604796
:1003000000DF7047EFF30980816911F8021C79BBA7
:1003100090E80F1010B5E047BDE81040EFF3098CEE
:100320008CE80700394B93E80600914208BF7047FC
:1003300071B11EF0100F0CBF0120002081F82000C9
:100340002CE9F00FC1F828C00CB402F0E3F80CBCA3
:100350001A60D2F828C0BCE8F00F92F820000028FC
:1003600014BF6FF0120E6FF0020E8CF30988704705
:1003700010B5274A1268914209D8264C54F82140FA
:1003800090E80F10A047EFF3098C8CE80F0010BD28
:1003900010B502F04FF8BDE810401C4B93E8060082
:1003A000914208BF7047EFF3098C1EF0100F0CBF8D
:1003B0000120002081F820002CE9F00FC1F828C0AE
:1003C0000CB402F0A7F80CBC1A60D2F828C0BCE844
:1003D000F00F92F82000002814BF6FF0120E6FF09B
:1003E000020E8CF30988704710B502F075F8FFF71C
:1003F000D2BF10B502F06EF802F06EF8FFF7CBBF77
:10040000C2B00008312300084B230008400F002031
:1004100000000000FCFFFFFF7047000008B5094B1B
:100420001A6842F400721A601A6842F480621A6014
:10043000032000F017F80F2000F0ECFDFFF7ECFFB1
:10044000002008BD003C0240024A136801331360DB
:10045000704700BFFC020020014B1868704700BFC6
:10046000FC020020074AD36823F4E0631B041B0C42
:1004700043F0BF6343F4003300F0070043EA002376
:10048000D360704700ED00E02DE9F3410F680022D2
:100490000123934003EA07059D4240F0CB804C685E
:1004A00024F0100CBCF1020F14D14FEAD20E00EB75
:1004B0008E0E02F00706DEF82030B6004FF00F086F
:1004C00008FA06F823EA08080B69B34048EA030370
:1004D000CEF820304FEA420E0323066803FA0EF3EB
:1004E000DB4303EA060804F0030606FA0EF60CF1F5
:1004F000FF3C48EA0606BCF1010F066011D8866889
:1005000003EA060CCE6806FA0EF64CEA060686608A
:10051000466826EA050CC4F3001696404CEA060627
:100520004660C66803EA060C8B6803FA0EF64CEACE
:100530000603C360E3007DD5424B5E6C46F4804603
:100540005E645B6C22F0030606F1804603F4804390
:1005500006F59C36019302F0030C019BD6F808E0E7
:100560004FEA8C0C0F2303FA0CF32EEA030E364BE2
:10057000984222D003F58063984220D003F580632F
:1005800098421ED003F5806398421CD003F5806327
:1005900098421AD003F58063984218D003F580631F
:1005A000984216D003F58063984214D003F5806317
:1005B00098420CBF082309230EE000230CE001231E
:1005C0000AE0022308E0032306E0042304E00523F5
:1005D00002E0062300E0072303FA0CF343EA0E03CC
:1005E000DFF868E0B360DEF80030EE4314F4803FDB
:1005F00014BF2B433340CEF80030DEF80430DFF870
:100600004CE014F4003F14BF2B433340CEF80430C9
:10061000DEF8083014F4801F14BF2B433340CEF8AB
:100620000830DEF80C30A40254BF06EA03051D436F
:10063000064BDD600132102A7FF42AAF02B0BDE81C
:10064000F08100BF0038024000000240003C014041
:100650000368F7B5DD07044603D4236898074CD434
:100660009DE08C4B9A6802F00C02042A07D09A682D
:1006700002F00C02082A0BD15B68590208D5854BA1
:100680001B689A03E9D56368002BE6D1012069E174
:10069000814D00232B70FFF7DFFE06467D4B1B6864
:1006A0009B0308D5FFF7D8FE41F28833801B9842A0
:1006B000F4D9032056E123792B70636873B1FFF7F7
:1006C000CBFE0546734B1B689F03C6D4FFF7C4FEE1
:1006D00041F28833401B9842F4D9EAE7FFF7BCFEA9
:1006E00005466C4B1B689E03B7D5FFF7B5FE41F27C
:1006F0008833401B9842F4D9DBE7664B9A6812F0C6
:100700000C0F07D09A6802F00C02082A18D15B6817
:10071000580215D45F4A1368990702D5E368012B84
:10072000B4D11168F82393FAA3F3B3FA83F32069E1
:10073000DBB2984021F0F80140EA010313602EE09B
:10074000E268564BEAB101221A60FFF785FE0546C2
:1007500050490B689B0705D4FFF77EFE401B6428B9
:10076000F6D9A6E70A68F82393FAA3F3B3FA83F35A
:100770002069DBB2984022F0F80240EA02030B60E5
:100780000DE01A60FFF768FE0546424B1B689F07A5
:1007900005D5FFF761FE401B6428F6D989E7236879
:1007A0001E0703D423685D074BD51FE062693C4BED
:1007B00072B101221A60FFF74FFE0546354B5B6FA1
:1007C0009807EFD4FFF748FE401B6428F6D970E77E
:1007D0001A60FFF741FE05462E4B5B6F9907E1D586
:1007E000FFF73AFE401B6428F6D962E7294B1A6CE2
:1007F00042F080521A641B6C2A4A03F08053019322
:10080000019B136843F480731360FFF725FE0546D0
:10081000244B1B68DA0517D5234D00232B70FFF7F7
:100820001BFE06461B4B1B6F9B0713D4237A2B70B2
:10083000A368FBB1FFF710FE0546164B1B6F9F0721
:1008400010D5A26992BB72E0FFF706FE401B642838
:10085000DED92EE7FFF700FE41F28833801B984275
:10086000E0D926E7FFF7F8FD41F28833401B9842B4
:10087000E3D91EE7FFF7F0FD0546064B1B6F9E0709
:10088000DFD5FFF7E9FD41F28833401B9842F4D9E8
:100890000FE700BF00380240023802400000474224
:1008A000800E474200700040703802402E4B9B681B
:1008B00003F00C03082B3FF4E9AE2C4D0023022A71
:1008C0002B6042D1FFF7C8FD064627490B68980107
:1008D0002FD447F6C07292FAA2F2B2FA82F24FF423
:1008E000403696FAA6F6B6FA86F64FF0706090FAA1
:1008F000A0F0B0FA80F0E369276A1F43636AD2B2BE
:10090000934047EA0302A36A5B08013BF6B2B34097
:100910001343E26AC0B2824013434B6001232B6051
:10092000FFF79AFD0446104B1B689A0107D500207B
:1009300018E0FFF791FD801B6428C6D9B9E6FFF7E0
:100940008BFD001B6428EED9B3E6FFF785FD044656
:10095000054B1B689B01EAD5FFF77EFD001B642851
:10096000F6D9A6E603B0F0BD003802406000474269
:100970007F4B1A6802F00F02914270B504460D4693
:1009800077D9CAB21A701B6803F00F038B4201D0EB
:10099000012070BD01688B0741BF7648836823F052
:1009A000F002A36844BF13438360CE070BD42168D1
:1009B0004D0740F1CC806F48836823F4E052E36830
:1009C00013438360C3E063686A4A012B03D1126852
:1009D00012F4003F08E0991E0129126802D812F0B3
:1009E000007F01E012F0020FD2D062498A6822F043
:1009F000030213438B60FFF72FFD6368012B05464D
:100A00000ED15C4B9B6803F00C03042BCFD0FFF797
:100A100023FD41F28833401B9842F2D9032070BD78
:100A2000022B0DD1534B9B6803F00C03082BBED057
:100A3000FFF712FD41F28833401B9842F2D9EDE7EF
:100A4000032B10D14B4B9B68FFF706FD41F2883317
:100A5000401B9842F6D9E1E7FFF7FEFC41F28833EC
:100A6000401B9842DAD8434B9B6813F00C0FF3D12C
:100A70009DE70168880741BF3E48836823F0F00284
:100A8000A36844BF13438360CA0709D4384BEAB252
:100A90001A701B6803F00F03AB427FF479AF86E74F
:100AA0006368344A012B03D1126812F4003F08E056
:100AB000991E0129126802D812F0007F01E012F09D
:100AC000020F3FF465AF2B498A6822F003021343FB
:100AD0008B60FFF7C1FC6368012B06460DD1254BE7
:100AE0009B6803F00C03042BD0D0FFF7B5FC41F258
:100AF0008833801B9842F2D990E7022B0DD11D4B11
:100B00009B6803F00C03082BC0D0FFF7A5FC41F253
:100B10008833801B9842F2D980E7032B11D1154B03
:100B20009B68FFF799FC41F28833801B9842F6D905
:100B300074E7FFF791FC41F28833801B98423FF63F
:100B40006DAF0C4B9B6813F00C0FF2D19EE70B07B7
:100B500041BF084A2169936823F4604344BF43EAD4
:100B6000C10393600F2000F055FA002070BD00BF54
:100B7000003C02400038024030B51D4CA36803F031
:100B80000C03042B30D0082B30D16268636802F06C
:100B90003F0513F4800F47F6C071636891FAA1F125
:100BA000B1FA81F147F6C07004BF124AB2FBF5F208
:100BB000C9B200EA030020FA01F01CBF0E49B1FBE4
:100BC000F5F202FB00F30A4A50684FF4403292FA01
:100BD000A2F2B2FA82F2D2B200F44030D040013038
:100BE0004000B3FBF0F030BD034830BD014830BDDC
:100BF000003802400024F40000127A0008B5FFF724
:100C0000BBFF094B9A68F02393FAA3F3B3FA83F37B
:100C100002F0F002DBB222FA03F3044AD35CD840BC
:100C2000034B186008BD00BF0038024024AF000825
:100C30008C01002008B5FFF7E1FF084B9A684FF4DC
:100C4000E05393FAA3F3B3FA83F302F4E052DBB276
:100C500022FA03F3024AD35CD84008BD00380240B0
:100C600024AF000808B5FFF7C9FF084B9A684FF496
:100C7000604393FAA3F3B3FA83F302F46042DBB266
:100C800022FA03F3024AD35CD84008BD0038024080
:100C900024AF0008704700002E4A0368904212D02B
:100CA000B0F1804F0FD0A2F57C4290420BD002F5FC
:100CB0008062904207D002F58062904203D002F534
:100CC0007842904218D14A6823F070031343214AB6
:100CD000904237D0B0F1804F34D01F4A904231D08B
:100CE00002F5806290422DD002F58062904229D0B8
:100CF00002F57842904225D0184A904222D002F55F
:100D0000806290421ED002F5806290421AD0A2F515
:100D10009832904216D002F58062904212D002F5CD
:100D2000806290420ED003608B68C3620B6883625E
:100D3000084B98420BD003F58063984207D00123FB
:100D400043617047CA6823F440731343EBE70B69B0
:100D50000363F4E70000014000040040004001404C
:100D600010B50446A0B190F8393003F0FF021BB96A
:100D700080F83820FFF78EFF022384F8393020688E
:100D8000211DFFF789FF012384F83930002010BDB1
:100D9000012010BD10B50123046A8B4024EA03032F
:100DA0000362036A8A401343036210BD10B5044610
:100DB00001220068FFF7EEFF2368084A934203D040
:100DC00002F58062934203D15A6C42F400425A64A5
:100DD0001A6842F001021A60002010BD00000140B4
:100DE0002DE9F84306683369054623F44052C36889
:100DF0002969C0691343AA683361F36811436A69BA
:100E000023F416430A43024323F00C031343F36015
:100E1000736923F44072AB69B0F5004F43EA0203F3
:100E200073613F4B36D19E4203D003F580639E42EF
:100E300016D1FFF717FF6F68192460437F00B0FBDE
:100E4000F7F7FFF70FFF6A684FF064086043B7FBDE
:100E5000F8F752003F01B0FBF2F9FFF703FF15E08E
:100E6000FFF7E8FE6F68192460437F00B0FBF7F7D7
:100E7000FFF7E0FE6A684FF064086043B7FBF8F7DD
:100E800052003F01B0FBF2F9FFF7D4FE444368681B
:100E9000400034E09E4202D0224B9E4216D1FFF722
:100EA000E1FE6F6819246043BF00B0FBF7F7FFF75E
:100EB000D9FE6A684FF064086043B7FBF8F7920008
:100EC0003F01B0FBF2F9FFF7CDFE15E0FFF7B2FEF0
:100ED0006F6819246043BF00B0FBF7F7FFF7AAFE65
:100EE0006A684FF064086043B7FBF8F792003F016F
:100EF000B0FBF2F9FFF79EFE444368688000B4FB44
:100F0000F0F0B0FBF8F008FB109212013232B2FBA5
:100F1000F8F303F00F033B43B360BDE8F88300BF71
:100F20000010014000140140704710B5044630B372
:100F300090F8393003F0FF021BB980F83820FFF732
:100F4000F3FF2268022384F83930D36823F4005376
:100F5000D3602046FFF744FF23681A6922F49042C9
:100F60001A615A6922F02A025A61DA6842F4005280
:100F7000DA6000200123E06384F8393010BD0120DD
:100F800010BD000010B50C4CA268A468B4F1006F4D
:100F900013460CD1131F094A53F8044F42F8044F6B
:100FA000074CA242F8D1044A4FF00053936010302E
:100FB00043F8201010BD00BF00ED00E0FCFFFF1F54
:100FC0008401002038B5114B1A68D16811F0020F66
:100FD0001C4604D06FF00203136100F0E9FC2368A3
:100FE000DA68520711D56FF00402094D1A615C6A84
:100FF0002B68E31AB3F57A7F07D3FFF725FA034B83
:101000002C601B6804F57A729A6338BD04030020D3
:1010100000030020264B37B51A6C264C254842F0B9
:1010200008021A641A6C02F008020192019A1A6A04
:1010300042F008021A621A6A22F008021A62A3F544
:101040000B3323604FF0FF33E3601B4B1B4A1B68DD
:1010500093420EBF0F231A4AB3FBF2F34FF0000581
:1010600018BF03F1FF3363602561A5606561FFF779
:1010700077FE32201349FFF785FF134B0D484FF4DD
:1010800080225A602946FFF791FE04210948FFF7A4
:101090008DFE23680D495A6A0A6002F57A729A63D6
:1010A000DA68284642F00402DA6003B030BD00BFBF
:1010B00000380240040300208C0100200024F400CA
:1010C00080841E00C50F000800E100E0000300203E
:1010D000174A1849936803F00C03042B03D0082B1C
:1010E00003D0154B18E0154B16E05068536810F408
:1010F000800F03F03F03506814BF104A0E4AB2FB42
:10110000F3F30B4A5268C2F30142C0F38810013274
:1011100043435200B3FBF2F30B60054B084A9B6854
:10112000C3F30313D25C0B68D3400B60704700BF5E
:10113000003802408C0100200024F40000127A00E4
:1011400034AF0008214B30B51A6C42F080521A645B
:101150001B6C95B003F080530193019B1C4B1A68E4
:1011600022F480421A601B6803F480430293029BBE
:101170000123089300B1052309934FF480030F93D3
:10118000082310934FF4A87302250024119308A894
:1011900007230B940E9512951393FFF759FA88B90C
:1011A0000F2303934FF4A0530590069303A84FF425
:1011B0008053052104950793FFF7DAFBB0FA80F01E
:1011C000400900E0204615B030BD00BF00380240A5
:1011D00000700040204B30B51A6C42F080521A6407
:1011E0001B6C95B003F080530193019B1B4B1A6855
:1011F00022F480421A601B6803F480430293029B2E
:101200000323089301230B9310230C9310934FF4A3
:10121000A87300240225119308A8072309940E95AA
:101220000F9412951393FFF713FA88B90F230393C2
:101230004FF4A0530590069303A84FF48053052163
:1012400004950793FFF794FBB0FA80F0400900E0A3
:10125000204615B030BD00BF00380240007000408D
:1012600008B50120FFF76EFF30B9FFF76BFF18B923
:10127000FFF7B0FF00B9FEE708BD0000184AD2F83A
:10128000883010B543F47003164CC2F888302368D8
:10129000002143F001032360A160236823F08473DD
:1012A00023F480332360104B6360236823F480238E
:1012B00023604FF00063E16093600C4B0C4A1A60AE
:1012C000FFF7ACF8FFF7CCFFFFF702FF236A43F00C
:1012D00008032362236A23F00803236210BD00BFC2
:1012E00000ED00E000380240103000248C010020A6
:1012F0000024F40010B50021044604F00F0400F0AF
:10130000BFF80120A04010BD70B504464B1C0E462E
:1013100021800DD0C1F3031000F01EF805463046C1
:10132000FFF7E8FF05F1100318356060A360E56082
:1013300070BDB0F9000000F0C5B80129B0F9000097
:1013400018BF002100F09CB808B5FFF7C1FEBDE84A
:101350000840FFF763B8000000B58BB0082872D8CA
:10136000DFE800F005111D2935414D596500394B65
:1013700039481A6B42F001021A631B6B03F0010338
:101380000193019B63E0334B34481A6B42F0020235
:101390001A631B6B03F002030293029B57E02D4B71
:1013A0002F481A6B42F004021A631B6B03F004030C
:1013B0000393039B4BE0274B2A481A6B42F0080229
:1013C0001A631B6B03F008030493049B3FE0214B5B
:1013D00025481A6B42F010021A631B6B03F01003CE
:1013E0000593059B33E01B4B20481A6B42F020020B
:1013F0001A631B6B03F020030693069B27E0154B33
:101400001B481A6B42F040021A631B6B03F0400347
:101410000793079B1BE00F4B16481A6B42F08002A4
:101420001A631B6B03F080030893089B0FE0094BC2
:1014300011481A6B42F480721A631B6B03F48073B9
:101440000993099B03E00D4800F0BAF900200BB0A6
:101450005DF804FB00380240000002400004024036
:1014600000080240000C024000100240001402403C
:1014700000180240001C02400020024044AF000857
:1014800030B5054687B0C0F303100C4605F00F05D4
:10149000FFF762FF0123AB4004F00F020193084BFA
:1014A00053F822300293C4F302130393C4F3C3141A
:1014B000032301A904930594FEF7E6FF07B030BDAE
:1014C00068AF000838B500F00F05C0F303100C46F4
:1014D000FFF742FF6B00C16803229A4021EA020233
:1014E000032CC260C16828BF00249C400C43C46028
:1014F00038BD000008B5124B02681A6082685A6055
:10150000C2689A600269DA6042691A6100229A61CF
:10151000B0F91A20013201D1082205E0B0F91820F3
:1015200001320CBF04220C2205485A61FFF7FDFC72
:1015300020B10448BDE8084000F042B908BD00BF32
:10154000680300209CAF0008F0B5044687B0084649
:101550000E465149154600F0B1F950490746284654
:1015600000F0ACF90146384600F08AF94C4B206097
:10157000984243D013D8A3F50063984232D003F5C4
:101580008063984252D1474B1A6C42F480221A640D
:101590001B6C03F480230293029B022345E0424B21
:1015A000984213D003F58063984233D0A3F54443A7
:1015B00098423BD13B4B1A6C42F480121A641B6C6C
:1015C00003F480130493049B04232EE0354B5A6CE0
:1015D00042F010025A645B6C03F010030093009B0E
:1015E000002322E02F4B1A6C42F400321A641B6C69
:1015F00003F400330193019B012316E0294B1A6C7D
:1016000042F400221A641B6C03F400230393039B2F
:1016100003230AE0234B5A6C42F020025A645B6CAD
:1016200003F020030593059B0523636030461A49A8
:1016300000F008F92846194900F004F9721C03D09B
:1016400030460121FFF73EFF6B1C03D028460121E5
:10165000FFF738FF4FF41653A3600023E3602361C4
:101660006361268365832046FFF744FF22680F4BA2
:101670009A420FD10E4B01221A600E4B04F118054D
:10168000206861681A4603C20834AC421346F7D199
:101690002068106007B0F0BDFCAF0008B4AF0008D0
:1016A000004C00400038024000100140001401408E
:1016B00040030020A80300208160FFF71BBF00004B
:1016C000034B19604168034B43F82120704700BF6A
:1016D00064030020440300200368034A1868136071
:1016E000C0F34010704700BF6803002038B505689C
:1016F00004462046FFF7F0FF0028FAD06868C0F3E0
:10170000080038BD0368034A18681360C0F3C010AE
:10171000704700BF6803002070B5066805460C4698
:101720002846FFF7EFFF0028FAD0C4F308047460DE
:1017300070BD0000054B186830B901221A60044BD7
:10174000044A1A60FFF766BC704700BF000400201F
:10175000C4030020000C004008B5044B1B680BB903
:10176000FFF7E8FF024B586A08BD00BF00040020E5
:10177000000C0040034B1B685863DA6842F0020219
:10178000DA607047C4030020034B1A68D36823F063
:101790000203D360704700BFC4030020024B1B68E4
:1017A0006FF002021A617047C403002008B572B6D8
:1017B000962000F00EF9962000F00BF9F8E70000F3
:1017C0000FB407B5054B04AA1B6852F8041BD86870
:1017D000019204F063FA012003F0C2FC84020020AD
:1017E00070B50E4604461546FFF78EFD013609D04A
:1017F00020460021FFF7A1FD20462946BDE87040A4
:10180000FFF797BD70BD0022FFF7EABF70B50E4627
:1018100004461546FFF778FD01360ED0E16863688F
:1018200005B91B0420460B600121FFF786FD204609
:101830000021BDE87040FFF77CBD70BD0022FFF7BE
:10184000E5BF000010B50446013001D110BD0C31D8
:10185000B1F900305A1C0BD0A342F8D12046896858
:10186000FFF70EFE20460021BDE81040FFF72ABE1C
:101870000248BDE81040FFF7A3BF00BF44B0000816
:10188000884208B50AD0431C07D0013106D004486D
:10189000FFF796FF4FF0FF3008BD084608BD00BFB8
:1018A00055B00008B1F900305A1C05D0834201D16F
:1018B000486870470C31F5E718467047421C10B570
:1018C000044607D0FFF7EEFF431C044602D102484E
:1018D000FFF776FF204610BD66B0000838B50368F4
:1018E00004461B680D46984763681D6038BD036851
:1018F00070B5DB680446984763685A6823681AB96C
:101900009B68BDE8704018475B6815689847281ABF
:101910000028636808DC5A68916859601B68002BCE
:10192000EAD050689847E7E721685A680B69106861
:10193000BDE87040184770B50D4672B646687468C9
:1019400081E80C00002334B12168511A002902DB20
:101950002346A468F7E72BB9036875601B69104636
:10196000984700E09D60AC6062B670BD08B572B685
:10197000426853688B420BD19B685360026813B96D
:10198000936898470AE012691868904706E0134682
:1019900023B19A688A42FAD18A689A6062B608BD11
:1019A00003685B681847000000487047B8B000083B
:1019B0000148FFF79CBF00BFB8B0000838B5044627
:1019C000FFF7CAFE0546FFF7C7FE401BA042FAD349
:1019D00038BD4FF47A735843FFF7F0BF436AF0B550
:1019E000C46A23F0030323445A0748BF043B4FF063
:1019F000807203E90600A3F14005A3F14402A3F1BC
:101A00000C06002742F8047FB242FAD1C26943F8BB
:101A1000202CC3788562012B18BF024B016318BFCD
:101A20002360F0BDA52E5AE290F82020836A0AB107
:101A3000603300E020331960704710B590F8204003
:101A4000836A0CB1603300E0203383E8060010BDE8
:101A5000FEE7FFF7ABBE08B1FFF7A8BE7047000076
:101A60000449054AC1F1005303F5FE339360D16088
:101A7000704700BFDC1400209001002000200021EE
:101A800004460D46094803F050FB03F07BFE204658
:101A9000294600F073F8FFF7E3FF0548002100F046
:101AA00009F900F07FF803F05BFB00001555000812
:101AB0009001002038B1830704D10378002B18BFB0
:101AC000002070470020704700B5DFF80CC000DF31
:101AD000DFF808C000DFFEE7811C0008991C000841
:101AE0000B4A136830B5002433B11D89A94203D3D2
:101AF0001C46491B1B68F7E789B20360018113B1DB
:101B00001D89691A19810CB1206030BD106030BD8B
:101B1000F80E0020431C11D00B4B984211D80B4BF0
:101B20001B684FF47A715A1E01FB0020B0FBF3F0E2
:101B30004FF6FE73984228BF184670474FF6FF7065
:101B400070474FF6FE70704700093D00C4B00008B2
:101B500038B5084C257855B900F0E6FD064B1B68F2
:101B6000FF229A702846FFF776FF0123237000209A
:101B700038BD00BFF40E0020400F002010B5EFF379
:101B800005845CB9EFF31484E40703D4BDE8104086
:101B9000FFF7DEBFDFF808C000DF10BD822010BDF8
:101BA000511B000810B588B0EFF3058434BBEFF388
:101BB000148404F00304022C0CD0032C16D0012C46
:101BC0001ED008AC84F309880F4C2478E40705D5AF
:101BD000022404E00C4C2478E4070BD4032484F39F
:101BE0001488BFF34F8FBFF36F8F03E0064C247848
:101BF000E40705D4DFF814C000DF02E0822000E033
:101C0000FF2008B010BD00BFC2B00008A91D000829
:101C10002DE9F8438946044650B1036843B18588ED
:101C2000EB1C9BB2062B03D883680BB1C2682AB9A0
:101C30008020FFF710FF0020BDE8F8834363C263F4
:101C400000F1100600F08AFC0B4F00F1FF38291D4F
:101C500047F82860C9B22268E074C4F82C90304676
:101C600000F08EFC304600F0A9FC57F82800034A2B
:101C7000836A5A63BDE8F883900C0020C91A0008F3
:101C800008B500F0D7FC18B10138024B53F820001A
:101C900008BD00BF900C002008B5FFF70BFF38B15E
:101CA000C07800F009FDFF280CBF8120002008BD8E
:101CB000802008BD70B505460C46EFF3058686B951
:101CC000EFF31486F60706D4074E36781EB9BDE842
:101CD0007040FFF79DBF28462146DFF810C000DFA7
:101CE00070BD002070BD00BFFC0E0020111C00085C
:101CF000830704D128B10369C1681B6803E000238E
:101D000000E003461946184670470000F8B5134B2B
:101D10001C681F460CB32389013B23812389E3B947
:101D20000F4B26681D683E6055B12B78012B07D1FB
:101D3000284600F05DFA18B12846214600F05CFA0A
:101D40006379012B04D120466189FFF7C9FE01E0C8
:101D5000012323710EB13446E0E7F8BDF80E0020F0
:101D6000F00E002010B504460846DFF80CC000DF76
:101D700084E80300204610BDF11C000810B504469D
:101D800018B1016809B1406820B98020FFF763FEEF
:101D9000002010BD0378002BF7D10431890089B2EF
:101DA00000F0C6F9606810BD38B5104D2C78D4B974
:101DB00021460F48FFF7E2FF0E4B214618600E4800
:101DC000FFF726FF0D4B21461860204600F03AFC35
:101DD0000B4A13689B6A203383F30988146000F070
:101DE00011FD01232B70002038BD00BFFC0E002028
:101DF000D4010020F00E0020DC010020EC0E0020B9
:101E0000400F00202DE9F04F0C4685B08046E8B128
:101E10000378012B1FD10846FFF77CFE02A982B28E
:101E2000404600F093F9012806D10020002C02461C
:101E3000034618BF402003E000200246034610205E
:101E4000029904460D4616461F4608E080240546C2
:101E50000646074603E0002580242E462F462046EE
:101E6000294632463B4605B0BDE8F08F7FB50446B3
:101E700016460846EFF30581A9B101AD00B10AB1DC
:101E800080230AE00378012BFAD102A900F0BBF904
:101E9000042801D0019601E01023019395E8070082
:101EA00084E8070005E01146DFF80CC000DF84E895
:101EB0000700204604B070BD051E00087FB50A4B20
:101EC00003A819684FF0FF32FFF7D0FF039B102BD8
:101ED000F5D101A80499FFF745FF019B002BEED037
:101EE00002989847EBE700BFF00E002010B5038B77
:101EF00042781943062A04460183438B04D101EA40
:101F000003029A4219D105E0052A16D111EA03020B
:101F100013D0428321EA03012183204600F0D4F844
:101F20000123204663700821628BFFF786FD21465E
:101F30000248BDE8104000F003B810BD180F0020A3
:101F400030B502788C784368013AD2B22BB19D78D3
:101F5000A54202D318465B68F8E7022A4B6041604D
:101F600003D803B19960886030BD00238B6030BD19
:101F700002784368013A59684160022A4FF0000232
:101F800004D809B188605A609A6000E05A60184627
:101F900070470000034B5A6842600022826058601C
:101FA000704700BF180F0020114BDA6810B50AB156
:101FB0009A8A0CE000248A1AC460D86003619A826D
:101FC000848210BD002CF5D0A38A1A4423468A428D
:101FD000DC68F7D3C460D860C468036104B12061D1
:101FE000521A92B28282998A8A1A9A8210BD00BFCE
:101FF000000F002038B5194DEB68002B2CD0AB8AB0
:10200000013BAB82AA8A002A26D1144BDC681CB3A0
:10201000A3683BB161685960616809B18B60626017
:102020000023A3600E482146FFF78AFFA38AAB82F4
:102030006378042B01BF0B4B1A68E38A9B1808BF17
:10204000A38201236370E368EB60002213B10349AC
:102050001961E2602261D5E738BD00BF000F0020A2
:10206000180F00207C0F0020836853B9084B5A6872
:10207000824202D142685A6070471346002AF6D164
:10208000704742685A60426802B19360704700BF6F
:10209000180F002038B58468054624B94378012B11
:1020A0000ED1084C03E023780BB9A468FBE728465F
:1020B000FFF7DAFF20462946BDE83840FFF740BF6A
:1020C00038BD00BF180F0020036910B573B1C26896
:1020D000DA60C2683AB1998A848A2144998213618C
:1020E0000023C36000E09A820023036110BD00005A
:1020F00030B50E4BDD78EFF3108272B69A78AA42B3
:1021000007D201329A701A78541CAC4208BF0024DE
:102110001C7062B6AA4204D203EBC20358609960F5
:1021200030BD0220BDE83040FFF793BC0C0C00200E
:1021300001231039037089080023437083704360C2
:10214000038143818381C1817047000070B5858917
:1021500004461646002D34D043891A1D013350F829
:1021600022200A60C2899BB29A42438104BF0023A5
:1021700043814368EBB14378022B1AD1FFF7F8FE95
:1021800000210546FFF750FC2389E9691A1D013338
:1021900044F82210E2899BB29A42238108BF0023AF
:1021A000284608BF2381FFF78FFF284600F006FA74
:1021B00005E0EFF3108372B6013DA58162B6002001
:1021C00070BD82B14268094B1AB11968FFF7B8FEB9
:1021D00005E01B6843605A609860012343703046F5
:1021E000082100F00DFA012070BD00BF400F002053
:1021F000C2898089101A704708B5FFF779FFBDE8DA
:10220000084000F005B9838910B50446EBB1438955
:10221000043350F823300B604378022B04D10021A3
:10222000FFF766FF00F0F4F8EFF3108372B6A389AE
:10223000013BA38162B66389E28901339BB29A4272
:10224000638104D10023638101E0184610BD04209E
:1022500010BD0000426870B504460E46002A4AD000
:102260004578022D1CD0032D0AD0012D5DD1FFF73A
:102270007FFE044610213246FFF7DFFB657034E035
:10228000084600F055F8054600284ED02046FFF7D6
:102290006FFE29460446FFF7C7FB0123637024E065
:1022A000FFF766FE00210546FFF7BEFB2389E969BB
:1022B0001A1D44F82210EFF3108272B6A28901327F
:1022C000A28162B6E28901339BB29A42238104BFA4
:1022D00000232381012328466B70FFF7F5FE134886
:1022E0002946BDE87040FFF72BBE2046FFF7ECFE05
:1022F0000E482146F5E78189C089814210D22389A1
:102300001D1D44F82560EFF3108572B60131A181DF
:1023100062B601339BB2834214BF2381228170BD18
:102320000320BDE87040FFF794BB70BD180F00207C
:10233000EFF3108372B6026803F001030AB111686B
:10234000016003B962B61046704781420DD34368FD
:1023500099420AD2EFF3108372B602680A600160F4
:1023600013F0010003D162B67047012070470020CE
:1023700070470000034B00221A60034A1268DA809B
:10238000704700BF300F0020D0B0000808B5104BD8
:1023900010485A68104B196891421FBF1A60DA88BA
:1023A00002F1FF3102681CBF52189A809A88038894
:1023B0009A420BD1084B064800221A60FFF7D8FD5D
:1023C000BDE8084001460248FFF7BABD08BD00BF9E
:1023D000180F00207C0F0020300F0020426810B53D
:1023E0007AB1FFF7C5FD0446FFF76EFE012161706B
:1023F0002046FFF719FB21460448BDE81040FFF7CF
:102400009FBD42880132428010BD00BF180F0020DE
:10241000054B1B7823B9054B4FF080521A6070476B
:10242000034B01221A7070473D0F002004ED00E0BD
:102430003C0F002038B5184B184D18680123437025
:10244000FFF7A8FD6C78AA78144BEAB103EBC4033C
:10245000586802781AB91989FFF748FD07E0012A80
:1024600003D19968FFF7F6FE01E0FFF7B7FFEB78BD
:1024700001349C4208BF0024EFF3108372B6AB789E
:10248000013BAB7062B6DEE75C700548FFF770FD9C
:10249000BDE8384000F08AB8400F00200C0C002046
:1024A000180F0020084B1A68084B1A6000225A6067
:1024B000072243F8042C064A136843F07F43136055
:1024C0004FF0FF30704700BFCCB0000814E000E0D0
:1024D00020ED00E07047000008B50B4B18680123A1
:1024E0004370FFF757FDFFF751FF084A13680133A8
:1024F0001360FFF77FFDFFF709FC0548FFF738FD84
:10250000BDE8084000F052B8400F00207C0F0020CA
:10251000180F0020084B1B68DA78012A0AD0DA6A03
:102520009B6A9A4203D81268044B9A4202D0012057
:10253000FFF78FBA704700BF400F0020A52E5AE268
:1025400008B50448FFF714FD034B5860022343709D
:1025500008BD00BF180F0020400F0020064B1A884E
:10256000064B0120904204D853F8041F11B10130EA
:10257000F8E70020704700BFC0B000088C0C0020B6
:1025800030B500240125047045708170446084607A
:10259000C46004618482C4820483448380F8204040
:1025A0001146BDE83040FFF719BA0000024B5860F1
:1025B00002234370704700BF400F002070B50446EF
:1025C00018B9BDE87040FFF7BBBF0B4DA278286873
:1025D00083789A424FF0010607D9FFF7DBFC2B689E
:1025E0005E7002236C60637070BD667021460348A4
:1025F000BDE87040FFF7A4BC400F0020180F00207A
:1026000038B50D46014678B14FF6FF739842074C36
:1026100002D02068FFF7C8FC236805485D70FFF70B
:10262000A7FC02236060437038BD00BF400F00204C
:10263000180F0020024B186800B1C078704700BF27
:10264000400F002010B588B9174B1B6899701748C8
:1026500043689B788B4222D9134C2168FFF770FCAA
:10266000236801225A70FFF76BFF18E0104B1B889C
:10267000984216D801380F4B53F820408CB10A4BC2
:10268000A1701B689C42E2D02046FFF703FD6378EF
:10269000012B04D10548FFF76BFCFFF78FFF0020EB
:1026A00010BDFF2010BD00BF400F0020180F0020FC
:1026B000C0B00008900C002070B5184D18B12B6800
:1026C000DB78984213D12E6800247470FDF7EFFD7B
:1026D000B062FFF71FFF2A681149D3782C60013BD5
:1026E00041F82340D462FFF72BFF204670BD0D4B0D
:1026F0001B8898420FD8441E094E56F8245055B1F5
:102700002846FFF7B1FC2846FFF7DEFC002046F81C
:102710002400E86270BDFF2070BD00BF400F0020A4
:10272000900C0020C0B0000810B5284B1A88002378
:10273000934205D22649002041F823000133F7E7F0
:10274000244C254AFF23E370244B1B8863622046F8
:10275000234BE3620021FFF713FF224A00230421E9
:1027600011705360204A1170D360136193821F4A25
:102770001460022262701E4A137053701D4B1B7846
:10278000D370FFF7F7FD1C4B1A6842F47F021A6002
:102790001B681B0203F07F43DB43B3FA83F3174A42
:1027A00017481268DBB2C3F10803C2F302229A424F
:1027B000A8BF531C6FF08071026801FA03F303F0A5
:1027C0007F4122F07F430B43036010BDC0B000087F
:1027D000900C0020480F0020511A0008C8B00008D3
:1027E000EC0C0020180F0020000F0020400F0020EC
:1027F0000C0C0020CAB0000820ED00E00CED00E059
:102800001CED00E008B5FFF74DFE0C4B00281860EA
:1028100012DB00F1604000F56440FF2202701A688C
:1028200053119B0003F1604303F5614302F01F0263
:10283000012101FA02F21A6008BD00BF380F002022
:1028400010B5054B0360044602F0AEFA204602F0D4
:10285000E5FA204610BD00BF00B2000810B50446DE
:10286000FFF7EEFF204602F03DFC204610BD0000C1
:10287000084909480B685A1C032392FBF3F303EB46
:102880004303D31A0B600BB9012100E0002100F0D3
:10289000A7B800BFB40F0020B80F002010B51F4C20
:1028A000002220461346312101F0A8FB20463821A2
:1028B0000122002300F0C2F8204607210222002353
:1028C00000F01AFD032120460A46002301F06AF9B0
:1028D000204608210422002300F0E0FA20461121BE
:1028E0000022012300F034FF0122204613460A2172
:1028F00000F0D4FA204622210222012300F028FF12
:10290000204614210322012300F0C8FAFFF7B0FF8C
:102910000348BDE8104001F05DBE00BFB80F0020C5
:10292000F00F002008B50E4801F0AEFD0C490D482F
:1029300000F04EF80C4801F021FF0C480C4B83616D
:102940000023C36241F2883102F036FA064801F0F2
:102950001DFF0028FAD1044801F07AFFF6E700BF16
:10296000F00F0020B80F0020800F0020C00F0020C3
:102970009D2800082DE9F041104CDFF85080104FE1
:10298000104E0025204602F029FAC4F80080A56107
:10299000E56220460C4C3946324602F09EFB20464A
:1029A00002F01CFAA561C4F80080E56220463946B1
:1029B0003246BDE8F04102F090BB00BF840F00201A
:1029C0004128000888010020C00F002000B2000844
:1029D000024B19600023036043607047F40F00202E
:1029E000016070471068052801DD052002E000281D
:1029F00001DA002010600A68002A01DA002202E0F1
:102A0000082A01DD08220A601A68022A01DD022272
:102A100002E0002A01DA01221A60704700234360B5
:102A200003681BB101F00703DB004360436801F05A
:102A300038011943C9104160084670471FB5044664
:102A4000039102920193FFF7E9FF04A902AA41F85A
:102A5000040D01AB2046FFF7C5FF0299019ACC4C4B
:102A60009DF80C30206801EB41014900D20001F0D3
:102A7000FE0102F0F80201F07BFD0299019A206844
:102A80009DF80C3001EB410149000131D200C9B27F
:102A900002F0F80201F06CFD0299019A20689DF89D
:102AA0000C3001EB410149000231D20001F0FE017E
:102AB00002F0F80201F05CFD0299019A20689DF88D
:102AC0000C3001EB410149000331D200C9B202F0E0
:102AD000F80201F04DFD0299019A206801EB4101D5
:102AE00049000431D20001F0FE0102F0F802002397
:102AF00001F03EFD0299019A20689DF80C3001EB2F
:102B00004101D2004900013201F0FE01D2B201F0D0
:102B10002FFD0299019A206801EB41014900D20082
:102B200001310132C9B2D2B2002301F021FD029974
:102B3000019A206801EB41014900D20002310132C3
:102B400001F0FE01D2B2002301F012FD0299019AB8
:102B5000206801EB41014900D20003310132C9B2C2
:102B6000D2B2002301F004FD0299019A20689DF879
:102B70000C3001EB41014900D2000431013201F077
:102B8000FE01D2B201F0F4FC0299019A20689DF88E
:102B90000C3001EB4101D2004900023201F0FE018C
:102BA00002F0FE0201F0E4FC0299019A206801EBB8
:102BB00041014900D20001310232C9B202F0FE02E5
:102BC000002301F0D5FC0299019A206801EB410134
:102BD0004900D2000231023201F0FE0102F0FE0291
:102BE000002301F0C5FC0299019A206801EB410124
:102BF0004900D20003310232C9B202F0FE020023C2
:102C000001F0B6FC0299019A20689DF80C3001EBA6
:102C100041014900D2000431023201F0FE0102F00C
:102C2000FE0201F0A5FC0299019A20689DF80C3083
:102C300001EB4101D2004900033201F0FE01D2B2A2
:102C400001F096FC0299019A20689DF80C3001EB86
:102C500041014900D20001310332C9B2D2B201F0C0
:102C600087FC0299019A20689DF80C3001EB410124
:102C70004900D2000231033201F0FE01D2B201F06C
:102C800077FC0299019A20689DF80C3001EB410114
:102C90004900D20003310332C9B2D2B201F068FC5C
:102CA0000299019A206801EB41014900D2000431E8
:102CB000033201F0FE01D2B2002301F059FC029967
:102CC000019A20689DF80C3001EB4101D2004900C7
:102CD000043201F0FE0102F0FC0201F049FC02990D
:102CE000019A206801EB41014900D2000131043210
:102CF000C9B202F0FC02002301F03AFC0299019AE9
:102D0000206801EB41014900D2000231043201F098
:102D1000FE0102F0FC02002301F02AFC0299019A54
:102D200020689DF80C3001EB41014900D2000331CD
:102D30000432C9B202F0FC0201F01AFC0299019AB5
:102D4000206801EB41014900D2000431043201F056
:102D5000FE0102F0FC02002301F00AFC0299019A34
:102D600020689DF80C3001EB4101D200490005328A
:102D700001F0FE01D2B201F0FBFB0299019A20683A
:102D800001EB41014900D2000131053202E000BFF0
:102D9000F40F0020C9B2D2B2002301F0E9FB02997E
:102DA000019A206801EB41014900D200023105324D
:102DB00001F0FE01D2B2002301F0DAFB0299019A80
:102DC000206801EB41014900D20003310532C9B24C
:102DD000D2B2002301F0CCFB0299019A20689DF841
:102DE0000C3001EB41014900D2000431053201F001
:102DF000FE01D2B201F0BCFB0299019A20689DF855
:102E00000C3001EB4101D2004900063201F0FE0115
:102E100002F0FE0201F0ACFB0299019A206801EB7E
:102E200041014900D20001310632C9B202F0FE026E
:102E3000002301F09DFB0299019A206801EB4101FA
:102E40004900D2000231063201F0FE0102F0FE021A
:102E5000002301F08DFB0299019A206801EB4101EA
:102E60004900D20003310632C9B202F0FE0200234B
:102E700001F07EFB0299019A20689DF80C3001EB6D
:102E800041014900D2000431063201F0FE0102F096
:102E9000FE0201F06DFB04B010BD00BF1FB504467B
:102EA000039102920193FFF7B9FD04A902AA41F828
:102EB000040D01AB2046FFF795FD0299019ACB4C1A
:102EC00001EB41014900D200206801F0FE0102F04F
:102ED000F802002301F04CFB0299019A20689DF84A
:102EE0000C3001EB410149000131D200C9B202F0BE
:102EF000F80201F03DFB0299019A20689DF80C3020
:102F000001EB410149000231D20001F0FE0102F063
:102F1000F80201F02DFB0299019A20689DF80C300F
:102F200001EB410149000331D200C9B202F0F802BD
:102F300001F01EFB0299019A206801EB4101490052
:102F40000431D20001F0FE0102F0F802002301F08A
:102F50000FFB0299019A20689DF80C3001EB4101AA
:102F6000D2004900013201F0FE01D2B201F000FBB3
:102F70000299019A206801EB41014900D200013118
:102F80000132C9B2D2B2002301F0F2FA0299019AD9
:102F9000206801EB41014900D2000231013201F009
:102FA000FE01D2B2002301F0E3FA0299019A2068EF
:102FB00001EB41014900D20003310132C9B2D2B262
:102FC000002301F0D5FA0299019A20689DF80C308F
:102FD00001EB41014900D2000431013201F0FE0150
:102FE000D2B201F0C5FA0299019A20689DF80C301E
:102FF00001EB4101D2004900023201F0FE0102F072
:10300000FE0201F0B5FA0299019A206801EB410134
:103010004900D20001310232C9B202F0FE0200239F
:1030200001F0A6FA0299019A206801EB41014900DA
:10303000D2000231023201F0FE0102F0FE02002352
:1030400001F096FA0299019A206801EB41014900CA
:10305000D20003310232C9B202F0FE02002301F0B5
:1030600087FA0299019A20689DF80C3001EB410122
:103070004900D2000431023201F0FE0102F0FE02EA
:1030800001F076FA0299019A20689DF80C3001EB64
:103090004101D2004900033201F0FE01D2B201F039
:1030A00067FA0299019A206801EB41014900D200B8
:1030B00001310332C9B2D2B2002301F059FA0299A8
:1030C000019A206801EB41014900D200023103322C
:1030D00001F0FE01D2B2002301F04AFA0299019AEE
:1030E000206801EB41014900D20003310332C9B22B
:1030F000D2B2002301F03CFA0299019A20689DF8AF
:103100000C3001EB41014900D2000431033201F0DF
:10311000FE01D2B201F02CFA0299019A20689DF8C2
:103120000C3001EB4101D2004900043201F0FE01F4
:1031300002F0FC0201F01CFA0299019A206801EBEE
:1031400041014900D20001310432C9B202F0FC024F
:10315000002301F00DFA0299019A206801EB410168
:103160004900D2000231043201F0FE0102F0FC02FB
:10317000002301F0FDF90299019A206801EB410159
:103180004900D20003310432C9B202F0FC0200232C
:1031900001F0EEF90299019A20689DF80C3001EBDC
:1031A00041014900D2000431043201F0FE0102F075
:1031B000FC0201F0DDF90299019A20689DF80C30BB
:1031C00001EB4101D2004900053201F0FE01D2B20B
:1031D00001F0CEF90299019A206801EB4101490002
:1031E000D20001310532C9B202E000BFF40F002065
:1031F000D2B2002301F0BCF90299019A206801EBD8
:1032000041014900D2000231053201F0FE01D2B283
:10321000002301F0ADF90299019A206801EB410108
:103220004900D20003310532C9B2D2B2002301F005
:103230009FF90299019A20689DF80C3001EB410139
:103240004900D2000431053201F0FE01D2B201F092
:103250008FF90299019A206801EB4101D2004900DF
:10326000063201F0FE0102F0FE02002301F080F9B7
:103270000299019A20689DF80C3001EB4101490048
:10328000D20001310632C9B202F0FE0201F070F93B
:103290000299019A20689DF80C3001EB4101490028
:1032A000D2000231063201F0FE0102F0FE0201F00E
:1032B0005FF90299019A20689DF80C3001EB4101F9
:1032C0004900D20003310632C9B202F0FE0201F019
:1032D0004FF90299019A206801EB41014900D2009F
:1032E0000431063201F0FE0102F0FE02002301F07B
:1032F0003FF904B010BD00BF1FB504460391029210
:103300000193FFF78BFB04A902AA41F8040D01AB5E
:103310002046FFF767FB0299019ACB4C01EB410174
:103320004900D200206801F0FE0102F0F8020023FB
:1033300001F01EF90299019A206801EB4101490050
:103340000131D200C9B202F0F802002301F010F9F5
:103350000299019A20689DF80C3001EB4101490067
:103360000231D20001F0FE0102F0F80201F000F992
:103370000299019A206801EB410149000331D20012
:10338000C9B202F0F802002301F0F2F80299019AA2
:10339000206801EB410149000431D20001F0FE0137
:1033A00002F0F802002301F0E3F80299019A206884
:1033B00001EB4101D2004900013201F0FE01D2B21D
:1033C000002301F0D5F80299019A20689DF80C308D
:1033D00001EB41014900D20001310132C9B2D2B240
:1033E00001F0C6F80299019A206801EB41014900F9
:1033F000D2000231013201F0FE01D2B2002301F00D
:10340000B7F80299019A20689DF80C3001EB410150
:103410004900D20003310132C9B2D2B201F0A8F89A
:103420000299019A206801EB41014900D200043160
:10343000013201F0FE01D2B2002301F099F80299A5
:10344000019A206801EB4101D2004900023201F0EB
:10345000FE0102F0FE02002301F08AF80299019AAF
:1034600020689DF80C3001EB41014900D200013188
:103470000232C9B202F0FE0201F07AF80299019A12
:10348000206801EB41014900D2000231023201F013
:10349000FE0102F0FE02002301F06AF80299019A8F
:1034A00020689DF80C3001EB41014900D200033146
:1034B0000232C9B202F0FE0201F05AF80299019AF2
:1034C000206801EB41014900D2000431023201F0D1
:1034D000FE0102F0FE02002301F04AF80299019A6F
:1034E00020689DF80C3001EB4101D2004900033205
:1034F00001F0FE01D2B201F03BF80299019A206876
:1035000001EB41014900D20001310332C9B2D2B20C
:10351000002301F02DF80299019A206801EB410186
:103520004900D2000231033201F0FE01D2B2002381
:1035300001F01EF80299019A206801EB410149004F
:10354000D20003310332C9B2D2B2002301F010F825
:103550000299019A20689DF80C3001EB4101490065
:10356000D2000431033201F0FE01D2B201F000F8C2
:103570000299019A20689DF80C3001EB4101D200BC
:103580004900043201F0FE0102F0FC0200F0F0FFFD
:103590000299019A20689DF80C3001EB4101490025
:1035A000D20001310432C9B202F0FC0200F0E0FFA7
:1035B0000299019A20689DF80C3001EB4101490005
:1035C000D2000231043201F0FE0102F0FC0200F0F0
:1035D000CFFF0299019A20689DF80C3001EB410160
:1035E0004900D20003310432C9B202F0FC0200F0FB
:1035F000BFFF0299019A20689DF80C3001EB410150
:103600004900D2000431043201F0FE0102F0FC0254
:1036100000F0AEFF0299019A20689DF80C3001EB92
:103620004101D2004900053201F0FE01D2B200F0A2
:103630009FFF0299019A206801EB41014900D200E5
:1036400001310532C9B201E0F40F0020D2B20023EB
:1036500000F08EFF0299019A206801EB41014900B8
:10366000D2000231053201F0FE01D2B2002300F097
:103670007FFF0299019A206801EB41014900D200C5
:1036800003310532C9B2D2B2002300F071FF0299B2
:10369000019A20689DF80C3001EB41014900D200ED
:1036A0000431053201F0FE01D2B200F061FF02994F
:1036B000019A20689DF80C3001EB4101D2004900CD
:1036C000063201F0FE0102F0FE0200F051FF029905
:1036D000019A206801EB41014900D2000131063214
:1036E000C9B202F0FE02002300F042FF0299019AE3
:1036F000206801EB41014900D2000231063201F09D
:10370000FE0102F0FE02002300F032FF0299019A4E
:10371000206801EB41014900D20003310632C9B2F1
:1037200002F0FE02002300F023FF0299019A2068B4
:103730009DF80C3001EB41014900D2000431063202
:1037400001F0FE0102F0FE0200F012FF04B010BD15
:103750001FB50446039102920193FFF75FF904A994
:1037600002AA41F8040D01AB2046FFF73BF902998C
:10377000019ACA4C01EB41014900D200206801F0D6
:10378000FE0102F0F802002300F0F2FE0299019A15
:1037900020689DF80C3001EB410149000131D20055
:1037A000C9B202F0F80200F0E3FE0299019A206823
:1037B0009DF80C3001EB410149000231D20001F0CB
:1037C000FE0102F0F80200F0D3FE0299019A20688F
:1037D0009DF80C3001EB410149000331D200C9B220
:1037E00002F0F80200F0C4FE0299019A206801EB91
:1037F000410149000431D20001F0FE0102F0F8025B
:10380000002300F0B5FE0299019A20689DF80C3063
:1038100001EB4101D2004900013201F0FE01D2B2B8
:1038200000F0A6FE0299019A206801EB41014900CF
:10383000D20001310132C9B2D2B2002300F098FEA9
:103840000299019A206801EB41014900D20002313E
:10385000013201F0FE01D2B2002300F089FE02998C
:10386000019A206801EB41014900D2000331013285
:10387000C9B2D2B2002300F07BFE0299019A2068FF
:103880009DF80C3001EB41014900D20004310132B6
:1038900001F0FE01D2B200F06BFE0299019A20689D
:1038A0009DF80C3001EB4101D2004900023201F0D9
:1038B000FE0102F0FE0200F05BFE0299019A206810
:1038C00001EB41014900D20001310232C9B202F0DC
:1038D000FE02002300F04CFE0299019A206801EBE1
:1038E00041014900D2000231023201F0FE0102F032
:1038F000FE02002300F03CFE0299019A206801EBD1
:1039000041014900D20003310232C9B202F0FE0285
:10391000002300F02DFE0299019A206801EB41017D
:103920004900D2000431023201F0FE0102F0FE0231
:10393000002300F01DFE0299019A20689DF80C30CA
:1039400001EB4101D2004900033201F0FE01D2B285
:1039500000F00EFE0299019A206801EB4101490036
:10396000D20001310332C9B2D2B2002300F000FE0E
:103970000299019A206801EB41014900D20002310D
:10398000033201F0FE01D2B2002300F0F1FD0299F2
:10399000019A206801EB41014900D2000331033252
:1039A000C9B2D2B2002300F0E3FD0299019A206867
:1039B00001EB41014900D2000431033201F0FE0164
:1039C000D2B2002300F0D4FD0299019A20689DF83C
:1039D0000C3001EB4101D2004900043201F0FE013C
:1039E00002F0FC0200F0C4FD0299019A206801EB8C
:1039F00041014900D20001310432C9B202F0FC0297
:103A0000002300F0B5FD0299019A206801EB410105
:103A10004900D2000231043201F0FE0102F0FC0242
:103A2000002300F0A5FD0299019A206801EB4101F5
:103A30004900D20003310432C9B202F0FC02002373
:103A400000F096FD0299019A206801EB41014900BE
:103A5000D2000431043201F0FE0102F0FC02002326
:103A600000F086FD0299019A20689DF80C3001EB68
:103A70004101D2004900053201F0FE01D2B200F04E
:103A800077FD0299019A206801EB41014900D200BB
:103A900001310532C9B2D2B2002301E0F40F002097
:103AA00000F066FD0299019A206801EB410149008E
:103AB000D2000231053201F0FE01D2B2002300F043
:103AC00057FD0299019A206801EB41014900D2009B
:103AD00003310532C9B2D2B2002300F049FD029988
:103AE000019A20689DF80C3001EB41014900D20099
:103AF0000431053201F0FE01D2B200F039FD029925
:103B0000019A206801EB4101D2004900063201F020
:103B1000FE0102F0FE02002300F02AFD0299019A44
:103B200020689DF80C3001EB41014900D2000131C1
:103B30000632C9B202F0FE0200F01AFD0299019AA3
:103B400020689DF80C3001EB41014900D2000231A0
:103B5000063201F0FE0102F0FE0200F009FD0299BA
:103B6000019A20689DF80C3001EB41014900D20018
:103B700003310632C9B202F0FE0200F0F9FC0299EC
:103B8000019A206801EB41014900D200043106325C
:103B900001F0FE0102F0FE02002300F0E9FC04B097
:103BA00010BD00BF1FB50446039102920193FEF7BA
:103BB00035FF04A902AA41F8040D01AB2046FEF727
:103BC00011FF0299019ACB4C9DF80C30206801EB53
:103BD00041014900D20001F0FE0102F0F80200F0BC
:103BE000C7FC0299019A206801EB410149000131AB
:103BF000D200C9B202F0F802002300F0B9FC029929
:103C0000019A206801EB410149000231D20001F024
:103C1000FE0102F0F802002300F0AAFC0299019ACA
:103C2000206801EB410149000331D200C9B202F022
:103C3000F802002300F09CFC0299019A20689DF88C
:103C40000C3001EB410149000431D20001F0FE01CA
:103C500002F0F80200F08CFC0299019A20689DF8AD
:103C60000C3001EB4101D2004900013201F0FE01AC
:103C7000D2B200F07DFC0299019A206801EB41016B
:103C80004900D20001310132C9B2D2B2002300F0A2
:103C90006FFC0299019A206801EB41014900D200B2
:103CA0000231013201F0FE01D2B2002300F060FCCB
:103CB0000299019A206801EB41014900D2000331C9
:103CC0000132C9B2D2B2002300F052FC0299019A2B
:103CD00020689DF80C3001EB41014900D20004310D
:103CE000013201F0FE01D2B200F042FC0299019AC9
:103CF00020689DF80C3001EB4101D20049000232EE
:103D000001F0FE0102F0FE0200F032FC0299019A7D
:103D1000206801EB41014900D20001310232C9B2F1
:103D200002F0FE02002300F023FC0299019A2068B1
:103D300001EB41014900D2000231023201F0FE01E3
:103D400002F0FE02002300F013FC0299019A2068A1
:103D500001EB41014900D20003310232C9B202F045
:103D6000FE02002300F004FC0299019A20689DF8ED
:103D70000C3001EB41014900D2000431023201F064
:103D8000FE0102F0FE0200F0F3FB0299019A2068A6
:103D90009DF80C3001EB4101D2004900033201F0E3
:103DA000FE01D2B200F0E4FB0299019A20689DF86E
:103DB0000C3001EB41014900D20001310332C9B29C
:103DC000D2B200F0D5FB0299019A206801EB4101C3
:103DD0004900D2000231033201F0FE01D2B20023C9
:103DE00000F0C6FB0299019A20689DF80C3001EBA7
:103DF00041014900D20003310332C9B2D2B200F00E
:103E0000B7FB0299019A20689DF80C3001EB410143
:103E10004900D2000431033201F0FE01D2B200F0B9
:103E2000A7FB0299019A206801EB4101D2004900E9
:103E3000043201F0FE0102F0FC02002300F098FBC6
:103E40000299019A20689DF80C3001EB410149006C
:103E5000D20001310432C9B202F0FC0200F088FB4A
:103E60000299019A206801EB41014900D200023118
:103E7000043201F0FE0102F0FC02002300F078FBA6
:103E80000299019A20689DF80C3001EB410149002C
:103E9000D20003310432C9B202F0FC0200F068FB28
:103EA0000299019A206801EB41014900D2000431D6
:103EB000043201F0FE0102F0FC02002300F058FB86
:103EC0000299019A206801EB4101D20049000532B4
:103ED00001F0FE01D2B2002300F04AFB0299019AE0
:103EE00020689DF80C3001EB41014900D2000131FE
:103EF000053201E0F40F0020C9B2D2B200F038FB65
:103F00000299019A20689DF80C3001EB41014900AB
:103F1000D2000231053201F0FE01D2B200F028FBDE
:103F20000299019A20689DF80C3001EB410149008B
:103F3000D20003310532C9B2D2B200F019FB0299A6
:103F4000019A206801EB41014900D2000431053299
:103F500001F0FE01D2B2002300F00AFB0299019A9F
:103F6000206801EB4101D2004900063201F0FE0158
:103F700002F0FE02002300F0FBFA0299019A206889
:103F800001EB41014900D20001310632C9B202F011
:103F9000FE02002300F0ECFA0299019A20689DF8D5
:103FA0000C3001EB41014900D2000231063201F030
:103FB000FE0102F0FE0200F0DBFA0299019A20688D
:103FC00001EB41014900D20003310632C9B202F0CF
:103FD000FE02002300F0CCFA0299019A206801EB5E
:103FE00041014900D2000431063201F0FE0102F025
:103FF000FE02002300F0BCFA04B010BD1FB5044659
:10400000039102920193FEF709FD04A902AA41F867
:10401000040D01AB2046FEF7E5FC0299019ACC4C59
:104020009DF80C30206801EB41014900D20001F0FD
:10403000FE0102F0F80200F09BFA0299019A206852
:104040009DF80C3001EB410149000131D200C9B2A9
:1040500002F0F80200F08CFA0299019A20689DF8AB
:104060000C3001EB410149000231D20001F0FE01A8
:1040700002F0F80200F07CFA0299019A20689DF89B
:104080000C3001EB410149000331D200C9B202F00A
:10409000F80200F06DFA0299019A206801EB4101E3
:1040A00049000431D20001F0FE0102F0F8020023C1
:1040B00000F05EFA0299019A20689DF80C3001EB3D
:1040C0004101D2004900013201F0FE01D2B200F0FC
:1040D0004FFA0299019A206801EB41014900D20090
:1040E00001310132C9B2D2B2002300F041FA029983
:1040F000019A206801EB41014900D20002310132EE
:1041000001F0FE01D2B2002300F032FA0299019AC6
:10411000206801EB41014900D20003310132C9B2EC
:10412000D2B2002300F024FA0299019A20689DF887
:104130000C3001EB41014900D2000431013201F0A1
:10414000FE01D2B200F014FA0299019A20689DF89B
:104150000C3001EB4101D2004900023201F0FE01B6
:1041600002F0FE0200F004FA0299019A206801EBC5
:1041700041014900D20001310232C9B202F0FE020F
:10418000002300F0F5F90299019A206801EB410142
:104190004900D2000231023201F0FE0102F0FE02BB
:1041A000002300F0E5F90299019A206801EB410132
:1041B0004900D20003310232C9B202F0FE020023EC
:1041C00000F0D6F90299019A20689DF80C3001EBB5
:1041D00041014900D2000431023201F0FE0102F037
:1041E000FE0200F0C5F90299019A20689DF80C3092
:1041F00001EB4101D2004900033201F0FE01D2B2CD
:1042000000F0B6F90299019A20689DF80C3001EB94
:1042100041014900D20001310332C9B2D2B200F0EB
:10422000A7F90299019A20689DF80C3001EB410131
:104230004900D2000231033201F0FE01D2B200F097
:1042400097F90299019A20689DF80C3001EB410121
:104250004900D20003310332C9B2D2B200F088F96A
:104260000299019A206801EB41014900D200043112
:10427000033201F0FE01D2B2002300F079F9029975
:10428000019A20689DF80C3001EB4101D2004900F1
:10429000043201F0FE0102F0FC0200F069F902991B
:1042A000019A206801EB41014900D200013104323A
:1042B000C9B202F0FC02002300F05AF90299019AF7
:1042C000206801EB41014900D2000231043201F0C3
:1042D000FE0102F0FC02002300F04AF90299019A63
:1042E000206801EB41014900D20003310432C9B218
:1042F00002F0FC02002300F03BF90299019A2068C9
:104300009DF80C3001EB41014900D2000431043228
:1043100001F0FE0102F0FC0200F02AF90299019A74
:1043200020689DF80C3001EB4101D20049000532B4
:1043300001F0FE01D2B200F01BF90299019A206847
:1043400001EB41014900D2000131053202E000BF1A
:10435000F40F0020C9B2D2B2002300F009F902998B
:10436000019A206801EB41014900D2000231053277
:1043700001F0FE01D2B2002300F0FAF80299019A8E
:10438000206801EB41014900D20003310532C9B276
:10439000D2B2002300F0ECF80299019A20689DF84F
:1043A0000C3001EB41014900D2000431053201F02B
:1043B000FE01D2B200F0DCF80299019A20689DF863
:1043C0000C3001EB4101D2004900063201F0FE0140
:1043D00002F0FE0200F0CCF80299019A20689DF8E4
:1043E0000C3001EB41014900D20001310632C9B263
:1043F00002F0FE0200F0BCF80299019A20689DF8D4
:104400000C3001EB41014900D2000231063201F0CB
:10441000FE0102F0FE0200F0ABF80299019A20685A
:104420009DF80C3001EB41014900D2000331063206
:10443000C9B202F0FE0200F09BF80299019A2068CE
:1044400001EB41014900D2000431063201F0FE01C6
:1044500002F0FE02002300F08BF804B010BD00BF94
:10446000C268436801B91B041360704738B5102255
:1044700004460D46002101F03EFA20462946FDF78C
:10448000DDF9204638BD000008B50B4B0B48DA6853
:104490005B681B0413600A4BDA685B681B041360DB
:1044A000084BDA685B681360002100F0B2FA064B33
:1044B00000221A6008BD00BFF81000202C11002057
:1044C000C8100020741100200811002070B51E488B
:1044D0000C460125C1F10701A54000F09AFA1B4CDA
:1044E00004F1C00614F8011C19482940FFF7B8FF71
:1044F000217818482940FFF7B3FF61781648294012
:10450000FFF7AEFFA17815482940FFF7A9FFE17832
:1045100013482940FFF7A4FF217912482940FFF7EB
:104520009FFF114BDA68596811605B6806341B0401
:10453000B4421360D6D10D4BDA68596811605B68DC
:104540001B04136070BD00BF2C1100200910002057
:104550000C11002084110020D81000201C11002014
:10456000F80F0020E8100020F8100020C8100020EC
:10457000F0B5C2F3C000440006267143204402F0A7
:104580000702134D01EB000EC2F107020124944013
:1045900015F80E60E443E4B204EA0607C3F38006AC
:1045A00096403E44471C05F80E600F440230EE5D15
:1045B00004EA060EC3F3400696407644EE550844DE
:1045C00003F00103295C93400C4023442B54F0BDBD
:1045D0000810002070B5064600240A4DEB686A6892
:1045E0001A60E1B23046FFF771FF6B68EA681B049E
:1045F00013604FF4FA700134FDF7E0F9082CECD1A8
:1046000070BD00BF7411002010B5214C8EB04FF06A
:10461000FF3300930193029303930493059306934E
:104620000793089309930A930B930C93204617233F
:1046300016211F2200F070F9164A1749204600F093
:104640004CFD0F211548FFF711FF1E211448FFF7FD
:104650000DFF15211348FFF709FF3B211248FFF713
:1046600005FF3C211148FFF701FF33211048FFF7F8
:10467000FDFE36210F48FFF7F9FE3D210E48FFF7FA
:10468000F5FE08210D48FFF7F1FE0EB010BD00BF8A
:104690002C11002088010020E1480008F8100020BB
:1046A000C8100020741100200C1100201C110020E3
:1046B00084110020F80F0020D8100020E8100020FE
:1046C0007047000010B5064B036003F118024C332D
:1046D000044642658365543000F032FB204610BD2D
:1046E00040B10008A0F15400FFF7ECBFA0F1580062
:1046F000FFF7E8BF10B5044600F0F4FC204610BDFB
:1047000010B50446FFF7DEFF204600F0EBFC204624
:1047100010BDA0F15400F3E7A0F15800F0E700004D
:1047200070B50E4E0E4D0F4C0023304609210A2263
:1047300000F058FA30460C4E2946224600F0CDFCD7
:10474000304626212722002300F04CFA3046294625
:104750002246BDE8704000F0C0BC00BF001200203F
:10476000C5460008880100209411002083681A685B
:1047700043681A4214BF01200020704702484FF4DA
:10478000E13100F07BBA00BF6C120020F8B52B4875
:10479000242100F0E7FA0023294A0021995401332B
:1047A000402BF9D12748FFF7E1FF18B90120FDF7A9
:1047B00010F9F7E72448FFF7D9FF0028F6D04FF4A7
:1047C000FA70FDF7FBF81F48FFF7D0FF38B11E481D
:1047D000FFF7CCFF18B10120FDF7FBF8F3E74FF42A
:1047E000FA701A4CFDF7EAF804F140070025164864
:1047F0006678FFF7BBFFA840064366701148FFF7D5
:10480000B5FF18B90120FDF7E4F8F7E70D48FFF709
:10481000ADFF18B10120FDF7DCF8F7E74FF47A702F
:104820000135FDF7CBF8082DE1D114F8013FBC426A
:1048300001D07E2BDAD10020F8BD00BFC0120020CD
:10484000E812002028130020D8120020E7120020D0
:1048500010B50024094BE15C7E2908D0084800F01F
:1048600081FA01340120FDF7B4F8402CF2D104485C
:104870000A21BDE8104000F075BA00BFE812002020
:10488000C012002038B5114C0023204626212722D3
:1048900000F0A8F920460E4C0E490F4A102500F0F2
:1048A0001CFC2A462046002101F025F820460B4C2E
:1048B0000321FCF7A8FF204600212A4601F01BF83F
:1048C00020460021BDE83840FCF79DBF6C12002057
:1048D00028130020C546000888010020D8120020B7
:1048E000074B70B504460360054600F1400655F8D5
:1048F000040F08B100F0F6FBB542F8D1204670BDB8
:10490000E0B0000810B50446FFF7EAFF204600F0CB
:10491000E9FB204610BD00002DE9F04188B00546B6
:10492000ADF80430BDF93830ADF80630BDF93C3093
:10493000ADF80830BDF94030ADF80A30BDF944306B
:10494000ADF80C30BDF94830ADF80E30BDF94C3043
:10495000ADF81030BDF95030ADF81230BDF954301B
:10496000ADF81430BDF95830ADF81630BDF95C30F3
:10497000ADF81830BDF96030ADF81A30BDF96430CB
:104980001948ADF81C300024BDF968302860ADF836
:104990000010ADF80220ADF81E306C64A8463DF959
:1049A00014707B1C0CD0102000F09EFB00210646EA
:1049B000102200F0A0FF30463946FCF73FFF00E030
:1049C000002601371CBF01236A6C48F8046F1CBF26
:1049D000A340134304F1010418BF6B64102CDED113
:1049E000284608B0BDE8F081E0B0000810B501230A
:1049F00050F823205C1E42B141FA04F414F0010F78
:104A0000D468526808BF120422600133112BEFD121
:104A100010BD10B50446FFF7E9FF204610BD0000A9
:104A2000094B036083686BB1084A1368834202D163
:104A30004368136070475A68824201D01346FAE710
:104A400042685A60704700BFF0B000083813002079
:104A500010B50446FFF7E4FF204600F043FB204674
:104A600010BD0000054B03600023436081600273AA
:104A700019B1034B1A68426018607047F0B0000823
:104A800038130020F8B50B4B1C6807460E4674B16E
:104A9000A56855B128463946324602F0E8FA20B9F1
:104AA000284602F0DCFAB04201D06468EFE7204605
:104AB000F8BD00BF38130020007B7047036870B555
:104AC0001B690021012205469847431C04460ED06D
:104AD0002B6828461B690021022298472B6806464E
:104AE0001B692846214600229847304670BD70BD9C
:104AF00010B5074B0446002240F8043BFFF7B2FF15
:104B0000044B03F10802343322606360204610BD79
:104B100050B20008F8B0000810B5074B03F10802C6
:104B200034330446026040F8043FFFF779FF204623
:104B300000F08CF9204610BDF8B0000810B5002335
:104B4000036043600A782F2A044613D14A788AB159
:104B5000481C2060194623681A782F2A02D1013395
:104B6000236004E01AB1013301312360F3E7FFF75A
:104B700089FF6060204610BD00687047406808B536
:104B800020B1FFF799FF431E5842584108BD10B5A8
:104B90000446FFF7F3FF00B1606810BD406808B538
:104BA00020B1FFF789FFB0FA80F0400908BD10B5C9
:104BB0000446FFF7F3FF10B1606800B1043810BD80
:104BC0004068003018BF0120704700F05FB8A0F1C6
:104BD0005400FFF7FABF00F05CB8A0F15400FFF7F3
:104BE000FABF000038B504461D4600F021F804F174
:104BF0005400294600F082F8054B03F108022260B8
:104C000003F1200254336265A365204638BD00BF1E
:104C100038B100081823594343185A6B1B6A0AB964
:104C20002BB118471BB10144243118461047704777
:104C3000F8B505460F4B45F8043B04460F461646AB
:104C4000284600211C2200F056FE002323626363E5
:104C5000A363E3644FF4165323652846394632466E
:104C6000FCF772FC284604492246FCF729FD204641
:104C7000F8BD00BFA0B10008154C000838B50446C7
:104C80000D460430FCF718FD256538BD0430FCF7EF
:104C90002DBD10B504300C46FCF73EFD204610BD7E
:104CA00000207047F8B507460D468E180C46B442F2
:104CB00008D03B6814F8011B5B6A384698470130FE
:104CC000F5D12646701BF8BDF8B506460D468F187F
:104CD0000C46BC4208D0336830469B6A9847431C58
:104CE00002D004F8010BF4E7601BF8BD0020704708
:104CF0000020704700207047002070471FB5044611
:104D0000FFF7F6FE0B4B0C4903F108023C336360DE
:104D100000236361226001A8224602F003F90749DB
:104D200001A800F04BFC606100F0D4F9204604B00B
:104D300010BD00BFA8B10008ECB10008F0B1000838
:104D400010B5074B03F108023C3304460260436090
:104D5000406900F06BFA2046FFF7DEFE204610BDEA
:104D6000A8B1000838B504460D46406900F014FBB0
:104D700028466169BDE8384000F04EBC436841698F
:104D800010B50446194400F03DF8E36A23B9A3695D
:104D90004BB1BDE810401847A06920B104F11C01D7
:104DA000BDE81040184710BD10B5044600F030F8BB
:104DB0000023A361E36210BD38B505460C4600F040
:104DC00027F86C612869FCF7EBFD01192846BDE85E
:104DD000384000F017B803689B681847074B10B5B8
:104DE0000360002343608360C3600446FCF7DCFD7E
:104DF00003492061FCF772FD204610BD18B200087F
:104E0000D74D000803460A460069191DFCF793BDFB
:104E1000014604310069FCF7A9BD000010B5034B41
:104E200003600446FFF7F4FF204610BD18B20008E7
:104E3000044B1B6823B9044826212722FCF784BBB6
:104E4000704700BF40030020A8030020074B036009
:104E50000023074A52F82310814204BF002142F880
:104E600023100133402BF4D1704700BF50B200082B
:104E70003C1300202DE9F3410F462D49054602F071
:104E8000E4F8044610B9FFF7D3FF4DE0284629495E
:104E900002F0DBF818B9FFF7CBFF012444E0284605
:104EA000254902F0D2F818B9FFF7C2FF02243BE00F
:104EB0000024224B53F824201E4672B10134402CAA
:104EC000F7D107E068462946FFF738FE6846FFF746
:104ED00077FE60B94FF0FF3426E02B783A2BF1D102
:104EE000284617496A4602F041F8009817E06846DC
:104EF000FFF754FE18B16846FFF759FE0FE0684609
:104F0000FFF745FE05460028E4D003686846D3F85D
:104F10000880FFF731FE3A4601462846C047002880
:104F2000D8D046F824000334204602B0BDE8F08112
:104F300024B200083DB200082BB200083C13002048
:104F4000ECB1000802284FF0000309DDC21E07493A
:104F500051F8220041F8223020B103685B681847FD
:104F6000184670474FF0FF30704700BF3C130020D9
:104F7000022870B50C4615460FDC0E4B1B680BB9AA
:104F8000FFF756FF6619B44205D00B4814F8011B11
:104F9000FCF7C2FBF7E7284670BD0338074B53F810
:104FA000200020B10368BDE870401B6818474FF02F
:104FB000FF3070BD40030020A80300203C130020F8
:104FC000022810B50C460ADC0B4B1B680BB9FFF727
:104FD0002FFF0A48FCF78AFB2070012010BD033820
:104FE000074B53F8200020B10368BDE810409B68D0
:104FF00018474FF0FF3010BD40030020A8030020E9
:105000003C130020022807DD0338064B53F820002C
:1050100020B10368DB681847012070474FF0FF306C
:10502000704700BF3C130020022807DD0338064B01
:1050300053F8200020B103681B691847002070470F
:105040004FF0FF30704700BF3C130020022808B526
:1050500004D84FF400534B60002008BD00F07AF8EC
:10506000092303604FF0FF3008BD08B5012000F0B0
:1050700077F8704708B5FCF767F9FFF7FAFFBDE866
:105080000840FDF74FBC0000074A13681844EFF3CF
:105090000881884229BF054B10600C224FF0FF3079
:1050A0002CBF1A601846704720020020D814002038
:1050B000074C08B523680546986800F06DF9236829
:1050C000D86800F069F90DB1FCF770FBFEE700BF8E
:1050D00084020020002101F04DBE03460846194617
:1050E00000F02AB800F0CABB10B5002814BF04466F
:1050F0000124204600F0BAFB30B900F007F808B9E7
:1051000000F00CF88047F4E710BD0000024B18686F
:10511000BFF35F8F704700BF3C14002008B5062026
:1051200001F0E4FE0120FFF7C3FF01460020024624
:10513000034603F00FB8000038B5054604480C4696
:10514000134620B102202946224603F003F838BD59
:1051500055810008014B1868704700BF8402002089
:1051600008B5074B044613B1002103F04FF8054B77
:105170001868836A03B198472046FFF799FF00BF7C
:105180000D820008D8B2000870B505460C4609B972
:10519000002070BD18B183690BB900F04FF9204BA6
:1051A0009C4201D16C6808E01E4B9C4201D1AC6866
:1051B00003E01D4B9C4208BFEC68B4F90C30002B97
:1051C000E6D02846214600F039F8236B064633B175
:1051D0002846216A98470028B8BF4FF0FF36A389B8
:1051E0001B0603D52846216900F08EFB616B41B197
:1051F00004F14403994202D0284600F085FB0023C5
:105200006363A16C21B1284600F07EFB0023A364F8
:1052100000F07EF90023A38100F07BF9304670BDD9
:1052200074B2000894B20008B4B20008024B014600
:105230001868FFF7A9BF00BF840200208A892DE902
:10524000F041054610070C4657D44B68002B02DC92
:105250000B6C002B18DDE66AB6B102F48052002315
:1052600092B22F682B600AB1626D10E0216A284665
:105270000123B047411C024609D12B683BB11D2BCD
:1052800001D0162B47D12F600020BDE8F081A38903
:105290005B0705D56368D21A636B0BB1236CD21A16
:1052A000E66A216A00232846B047461CA38905D137
:1052B0002A681AB11D2A01D0162A19D1002262606B
:1052C000D9042269226004D5421C01D12B6803B99C
:1052D0006065616B2F600029D6D004F144039942C8
:1052E00002D0284600F010FB00206063BDE8F0818A
:1052F00043F04003A381BDE8F0810F69002FC3D0C4
:1053000093070E6808BF4B690F6018BF0023C7EBF7
:1053100006088B6012E0A38943F04003A3814FF09D
:10532000FF30BDE8F0812846216AA66A3A46434626
:10533000B0470028EFDD0744C0EB0808B8F1000FC4
:10534000F1DCA1E738B50B6905460C46DBB118B1B5
:1053500083690BB900F072F80C4B9C4201D16C6868
:1053600008E00B4B9C4201D1AC6803E0094B9C4226
:1053700008BFEC68B4F90C302BB128462146BDE8D3
:105380003840FFF75BBF002038BD00BF74B2000893
:1053900094B20008B4B20008014620B9044B054994
:1053A000186800F0D1B9044B1868FFF7CBBF00BFF5
:1053B000D8B200084553000884020020014900F0DB
:1053C000C3B900BF45530008002310B5044603606D
:1053D0004360836081814366C2810361436183616D
:1053E00019465C30082200F086FA054B6362054BD3
:1053F000A362054BE362054B2462236310BD00BF2B
:10540000C16F0008E76F00081F70000843700008B4
:1054100070B568234D1E5D430E4605F1740100F022
:10542000B7FA044640B1002180E842000C30A06089
:1054300005F1680200F05FFA204670BD836910B57F
:10544000044633BB8364C3640365124B124A1B6872
:105450008262984204BF0123836100F01FF86060FC
:10546000204600F01BF8A060204600F017F8042149
:10547000E06000226068FFF7A7FFA0680921012211
:10548000FFF7A2FFE06812210222FFF79DFF012330
:10549000A36110BDD8B20008BD530008F8B51B4B7E
:1054A0001E68B369074613B93046FFF7C7FF483691
:1054B000B4687368013B04D4B4F90C5075B1683416
:1054C000F8E733682BB938460421FFF7A1FF3060B5
:1054D00008B13668ECE70C233B60F8BD4FF6FF736C
:1054E000E3810123A38165662560A5606560256170
:1054F0006561A56104F15C002946082200F0FBF912
:105500006563A563A564E5642046F8BDD8B20008CC
:105510007047704738B5074B074CE41AA4101D4676
:1055200024B1013C55F824309847F9E7BDE83840EC
:1055300005F0F2BCD8020020DC020020F7B50F46CF
:10554000114601AA054603F02FFD064608B90020C2
:1055500029E02846FFF7A2FF04460028F7D0284696
:105560003946019A4FF4DB7301F04AFB002806DA52
:105570000025FFF7CDFFA581FFF7CBFFE7E70B4B3A
:1055800063620B4BA3620B4BE3620B4B2363F3058C
:10559000E081A681246205D5284621460022022307
:1055A00000F044F8204603B0F0BD00BFC16F000812
:1055B000E76F00081F700008437000080A4603499F
:1055C000034608681946FFF7B9BF00BF84020020F0
:1055D00070B50E461446054618B183690BB9FFF73E
:1055E0002DFF0A4B9C4201D16C6808E0084B9C429D
:1055F00001D1AC6803E0074B9C4208BFEC68284629
:1056000031462246BDE8704001F00CBB74B2000880
:1056100094B20008B4B200080A4603490346086879
:105620001946FFF7D5BF00BF8402002000F000B884
:105630002DE9F8430C4690461E46054618B183698D
:105640000BB9FFF7FBFE3D4B9C4201D16C6808E0B3
:105650003B4B9C4201D1AC6803E03A4B9C4208BFF3
:10566000EC68A38903F48473B3F5847F03D12846DF
:105670002146FFF767FEE76A0FB91D232BE0012ED5
:1056800004D0022E2BD056B3162324E02846214600
:10569000FFF758FEA28902F4805292B20AB1606DFF
:1056A00005E0216A28463346B847411C14D0A38937
:1056B0005A0706D56368C01A636B4BB1236CC01AD6
:1056C00006E01B0704D5236813B122699B1A18440E
:1056D0008044002603E02B604FF0FF392BE0236964
:1056E0001BB92846214600F073F828462146FFF7EB
:1056F00029FE81460028EFD12846216A42463346DA
:10570000B8470130E8D0616B41B104F144039942DC
:1057100002D0284600F0F8F8002363632369236071
:10572000A389002123F402636160A38104F15C007A
:10573000082200F0E0F84846BDE8F88374B200089B
:1057400094B20008B4B200082DE9F84380468946B7
:1057500000F14804002694B1A5686768013F0CD4A5
:10576000AB89012B07D9B5F90E30013303D0404680
:105770002946C84706436835F0E72468EBE730461A
:10578000BDE8F88370B50E4B0E4CE41AA41000254A
:105790001E46A54204D056F8253098470135F8E753
:1057A00005F0B4FB084C094BE41AA41000251E4672
:1057B000A54204D056F8253098470135F8E770BD6A
:1057C000C4020020C4020020D8020020C40200202D
:1057D000F0B58B899D0791B006460C4626D4B1F9E9
:1057E0000E10002909DAA38913F0800F4FF000058D
:1057F00014BF40274FF480670DE001AA03F00CFCB2
:105800000028F0DB029D05F47045A5F500514D42DE
:105810004D414FF480673046394600F0B9F860B921
:10582000A3899A051DD443F00203A38104F1470321
:10583000236023610123636113E00B4BB362A389EF
:10584000206043F08003A381206167614DB1304641
:10585000B4F90E1003F0FEFE18B1A38943F0010362
:10586000A38111B0F0BD00BFBD530008024B01463B
:10587000186800F08DB800BF84020020024B01467A
:10588000186800F041B800BF8402002010B5C9B20A
:1058900002449042034606D01C788C4200F101007D
:1058A000F7D1184610BD002010BD10B5431E0A44A4
:1058B000914204D011F8014B03F8014FF8E710BDF5
:1058C000814210B501EB020301D3421E0BE0984266
:1058D000FBD28118D21AD34204D013F8014D01F83B
:1058E000014DF8E710BD994204D011F8014B02F8C0
:1058F000014FF8E710BD02440346934202D003F87B
:10590000011BFAE77047000030B500293DD051F87F
:10591000042C0B1F1D49002AB8BF9B180A680C46AF
:1059200012B95A600B6030BD93420DD219685818F5
:10593000904201BF5A5852181A6042685A60236058
:1059400030BD994203D80A4651680029F9D114683C
:1059500015199D420AD11B682344D0188842136050
:1059600013D10868034413604B680DE002D90C237F
:10597000036030BD1C681819884204BF0868496874
:10598000596004BF00191860536030BD44140020F2
:1059900070B5CC1C24F0030408340C2C38BF0C2444
:1059A000002C064603DA0C233360002070BD8C42C5
:1059B000F9D3204A136810461946A1B10A68121B90
:1059C0000ED40B2A03D90A608B188C501FE08B422F
:1059D0000DBF5A684A685A60026018BF0B4616E04D
:1059E0000B464968E9E7144D2B681BB9304601F0B6
:1059F0007FF928603046214601F07AF9421C0346BF
:105A0000D1D0C51C25F0030585420AD11C6003F1E5
:105A10000B001A1D20F00700821A0AD0514299503B
:105A200070BD3046E91A01F063F90130BBD02B4656
:105A3000ECE770BD44140020401400209368013B43
:105A4000002B10B5936009DA9469A34202DBCBB254
:105A50000A2B03D1BDE8104002F0AABA1368581C03
:105A600010601970C8B210BDF8B506460F4614464E
:105A7000D518AC4208D0304614F8011B3A46FFF75F
:105A8000DDFF431CF5D100E00020F8BD2DE9F04317
:105A90009DB00D4690460393064618B183690BB935
:105AA000FFF7CCFC754B9D4201D1756808E0744B43
:105AB0009D4201D1B56803E0724B9D4208BFF56875
:105AC000AB891C070AD52B6943B100230993202316
:105AD0008DF8293030238DF82A3041E030462946B0
